{
  "contractName": "NoNoShow",
  "abi": [
    {
      "inputs": [],
      "payable": false,
      "stateMutability": "nonpayable",
      "type": "constructor"
    },
    {
      "anonymous": false,
      "inputs": [
        {
          "indexed": false,
          "internalType": "bytes32",
          "name": "keyID",
          "type": "bytes32"
        },
        {
          "indexed": false,
          "internalType": "bytes32",
          "name": "compID",
          "type": "bytes32"
        },
        {
          "indexed": false,
          "internalType": "uint32",
          "name": "date",
          "type": "uint32"
        },
        {
          "indexed": false,
          "internalType": "uint32",
          "name": "time",
          "type": "uint32"
        },
        {
          "indexed": false,
          "internalType": "uint256",
          "name": "personnel",
          "type": "uint256"
        }
      ],
      "name": "alertToComp",
      "type": "event"
    },
    {
      "anonymous": false,
      "inputs": [
        {
          "indexed": false,
          "internalType": "bytes32",
          "name": "keyID",
          "type": "bytes32"
        },
        {
          "indexed": false,
          "internalType": "bool",
          "name": "ack",
          "type": "bool"
        }
      ],
      "name": "alertToCust",
      "type": "event"
    },
    {
      "constant": false,
      "inputs": [
        {
          "internalType": "string",
          "name": "phoneNumber",
          "type": "string"
        },
        {
          "internalType": "string",
          "name": "name",
          "type": "string"
        },
        {
          "internalType": "string",
          "name": "id",
          "type": "string"
        },
        {
          "internalType": "string",
          "name": "pw",
          "type": "string"
        },
        {
          "internalType": "uint32",
          "name": "age",
          "type": "uint32"
        }
      ],
      "name": "custSignUp",
      "outputs": [
        {
          "internalType": "bool",
          "name": "",
          "type": "bool"
        }
      ],
      "payable": false,
      "stateMutability": "nonpayable",
      "type": "function"
    },
    {
      "constant": true,
      "inputs": [
        {
          "internalType": "string",
          "name": "id",
          "type": "string"
        },
        {
          "internalType": "string",
          "name": "pw",
          "type": "string"
        }
      ],
      "name": "custLogIn",
      "outputs": [
        {
          "internalType": "string",
          "name": "",
          "type": "string"
        },
        {
          "internalType": "bytes32",
          "name": "keyID",
          "type": "bytes32"
        },
        {
          "internalType": "bool",
          "name": "pass",
          "type": "bool"
        }
      ],
      "payable": false,
      "stateMutability": "view",
      "type": "function"
    },
    {
      "constant": false,
      "inputs": [
        {
          "internalType": "bytes32",
          "name": "keyID",
          "type": "bytes32"
        },
        {
          "internalType": "bytes32",
          "name": "compID",
          "type": "bytes32"
        },
        {
          "internalType": "uint32",
          "name": "date",
          "type": "uint32"
        },
        {
          "internalType": "uint32",
          "name": "time",
          "type": "uint32"
        },
        {
          "internalType": "uint32",
          "name": "personnel",
          "type": "uint32"
        }
      ],
      "name": "book",
      "outputs": [],
      "payable": false,
      "stateMutability": "nonpayable",
      "type": "function"
    },
    {
      "constant": false,
      "inputs": [
        {
          "internalType": "string",
          "name": "compName",
          "type": "string"
        },
        {
          "internalType": "uint32",
          "name": "startTime",
          "type": "uint32"
        },
        {
          "internalType": "string",
          "name": "id",
          "type": "string"
        },
        {
          "internalType": "string",
          "name": "pw",
          "type": "string"
        },
        {
          "internalType": "string",
          "name": "addr",
          "type": "string"
        },
        {
          "internalType": "string",
          "name": "phoneNumber",
          "type": "string"
        },
        {
          "internalType": "string",
          "name": "img",
          "type": "string"
        },
        {
          "internalType": "string",
          "name": "description",
          "type": "string"
        }
      ],
      "name": "compSignUp",
      "outputs": [
        {
          "internalType": "bool",
          "name": "",
          "type": "bool"
        }
      ],
      "payable": false,
      "stateMutability": "nonpayable",
      "type": "function"
    },
    {
      "constant": true,
      "inputs": [
        {
          "internalType": "string",
          "name": "id",
          "type": "string"
        },
        {
          "internalType": "string",
          "name": "pw",
          "type": "string"
        }
      ],
      "name": "compLogIn",
      "outputs": [
        {
          "internalType": "string",
          "name": "",
          "type": "string"
        },
        {
          "internalType": "bytes32",
          "name": "compID",
          "type": "bytes32"
        },
        {
          "internalType": "bool",
          "name": "pass",
          "type": "bool"
        }
      ],
      "payable": false,
      "stateMutability": "view",
      "type": "function"
    },
    {
      "constant": false,
      "inputs": [
        {
          "internalType": "bytes32",
          "name": "compID",
          "type": "bytes32"
        },
        {
          "internalType": "uint32",
          "name": "date",
          "type": "uint32"
        }
      ],
      "name": "bookList",
      "outputs": [
        {
          "components": [
            {
              "internalType": "bytes32",
              "name": "compID",
              "type": "bytes32"
            },
            {
              "internalType": "bytes32",
              "name": "keyID",
              "type": "bytes32"
            },
            {
              "internalType": "string",
              "name": "compName",
              "type": "string"
            },
            {
              "internalType": "string",
              "name": "custName",
              "type": "string"
            },
            {
              "internalType": "string",
              "name": "custPN",
              "type": "string"
            },
            {
              "internalType": "uint32",
              "name": "date",
              "type": "uint32"
            },
            {
              "internalType": "uint32",
              "name": "time",
              "type": "uint32"
            },
            {
              "internalType": "uint32",
              "name": "personnel",
              "type": "uint32"
            },
            {
              "internalType": "bool",
              "name": "isShow",
              "type": "bool"
            }
          ],
          "internalType": "struct NoNoShow.books[]",
          "name": "",
          "type": "tuple[]"
        }
      ],
      "payable": false,
      "stateMutability": "nonpayable",
      "type": "function"
    },
    {
      "constant": false,
      "inputs": [
        {
          "internalType": "bytes32",
          "name": "compID",
          "type": "bytes32"
        },
        {
          "internalType": "bytes32",
          "name": "keyID",
          "type": "bytes32"
        },
        {
          "internalType": "string",
          "name": "compName",
          "type": "string"
        },
        {
          "internalType": "string",
          "name": "custName",
          "type": "string"
        },
        {
          "internalType": "string",
          "name": "custPN",
          "type": "string"
        },
        {
          "internalType": "uint32",
          "name": "date",
          "type": "uint32"
        },
        {
          "internalType": "uint32",
          "name": "time",
          "type": "uint32"
        },
        {
          "internalType": "uint32",
          "name": "personnel",
          "type": "uint32"
        },
        {
          "internalType": "bool",
          "name": "ack",
          "type": "bool"
        }
      ],
      "name": "ackBook",
      "outputs": [],
      "payable": false,
      "stateMutability": "nonpayable",
      "type": "function"
    },
    {
      "constant": false,
      "inputs": [
        {
          "internalType": "bytes32",
          "name": "keyID",
          "type": "bytes32"
        },
        {
          "internalType": "bytes32",
          "name": "compID",
          "type": "bytes32"
        },
        {
          "internalType": "uint32",
          "name": "date",
          "type": "uint32"
        },
        {
          "internalType": "bool",
          "name": "isShow",
          "type": "bool"
        }
      ],
      "name": "resBook",
      "outputs": [],
      "payable": false,
      "stateMutability": "nonpayable",
      "type": "function"
    },
    {
      "constant": false,
      "inputs": [
        {
          "internalType": "bytes32",
          "name": "compID",
          "type": "bytes32"
        },
        {
          "internalType": "string",
          "name": "phoneNumber",
          "type": "string"
        },
        {
          "internalType": "string",
          "name": "compName",
          "type": "string"
        },
        {
          "internalType": "string",
          "name": "custName",
          "type": "string"
        },
        {
          "internalType": "string",
          "name": "custPN",
          "type": "string"
        },
        {
          "internalType": "uint32",
          "name": "date",
          "type": "uint32"
        },
        {
          "internalType": "uint32",
          "name": "time",
          "type": "uint32"
        },
        {
          "internalType": "uint32",
          "name": "personnel",
          "type": "uint32"
        }
      ],
      "name": "callBook",
      "outputs": [],
      "payable": false,
      "stateMutability": "nonpayable",
      "type": "function"
    },
    {
      "constant": false,
      "inputs": [
        {
          "internalType": "string",
          "name": "phoneNumber",
          "type": "string"
        },
        {
          "internalType": "uint32",
          "name": "idx",
          "type": "uint32"
        }
      ],
      "name": "checkUser",
      "outputs": [
        {
          "components": [
            {
              "internalType": "bytes32",
              "name": "compID",
              "type": "bytes32"
            },
            {
              "internalType": "bytes32",
              "name": "keyID",
              "type": "bytes32"
            },
            {
              "internalType": "string",
              "name": "compName",
              "type": "string"
            },
            {
              "internalType": "string",
              "name": "custName",
              "type": "string"
            },
            {
              "internalType": "string",
              "name": "custPN",
              "type": "string"
            },
            {
              "internalType": "uint32",
              "name": "date",
              "type": "uint32"
            },
            {
              "internalType": "uint32",
              "name": "time",
              "type": "uint32"
            },
            {
              "internalType": "uint32",
              "name": "personnel",
              "type": "uint32"
            },
            {
              "internalType": "bool",
              "name": "isShow",
              "type": "bool"
            }
          ],
          "internalType": "struct NoNoShow.books[]",
          "name": "",
          "type": "tuple[]"
        }
      ],
      "payable": false,
      "stateMutability": "nonpayable",
      "type": "function"
    }
  ],
  "bytecode": "0x608060405234801561001057600080fd5b50336000806101000a81548173ffffffffffffffffffffffffffffffffffffffff021916908373ffffffffffffffffffffffffffffffffffffffff160217905550612cc6806100606000396000f3fe608060405234801561001057600080fd5b506004361061009e5760003560e01c80634c2eadc3116100665780634c2eadc3146101575780639f56854e14610189578063b885e2db146101b9578063cc16c478146101d5578063df5262a7146102055761009e565b80631bc1f5f0146100a3578063224e788f146100bf57806333b70572146100ef57806341dd988b1461011f578063450944281461013b575b600080fd5b6100bd60048036036100b891908101906120d2565b610237565b005b6100d960048036036100d491908101906122be565b61040b565b6040516100e691906129b3565b60405180910390f35b6101096004803603610104919081019061243d565b610959565b60405161011691906129b3565b60405180910390f35b610139600480360361013491908101906121ac565b610eb8565b005b61015560048036036101509190810190612135565b611251565b005b610171600480360361016c91908101906122fa565b611297565b60405161018093929190612a6c565b60405180910390f35b6101a3600480360361019e9190810190612366565b611412565b6040516101b091906129d5565b60405180910390f35b6101d360048036036101ce9190810190611fc4565b6115fe565b005b6101ef60048036036101ea9190810190612491565b611977565b6040516101fc91906129d5565b60405180910390f35b61021f600480360361021a91908101906122fa565b611b66565b60405161022e93929190612a6c565b60405180910390f35b6000600160036000878152602001908152602001600020805490500390505b60008163ffffffff161061031d578263ffffffff16600360008781526020019081526020016000208263ffffffff168154811061028f57fe5b906000526020600020906006020160050160009054906101000a900463ffffffff1663ffffffff16141561030f5781600360008781526020019081526020016000208263ffffffff16815481106102e257fe5b9060005260206000209060060201600501600c6101000a81548160ff02191690831515021790555061031d565b808060019003915050610256565b506000600160046000868152602001908152602001600020805490500390505b60008163ffffffff1610610404578263ffffffff16600460008681526020019081526020016000208263ffffffff168154811061037657fe5b906000526020600020906006020160050160009054906101000a900463ffffffff1663ffffffff1614156103f65781600460008681526020019081526020016000208263ffffffff16815481106103c957fe5b9060005260206000209060060201600501600c6101000a81548160ff021916908315150217905550610404565b80806001900391505061033d565b5050505050565b60606005600061041b9190611ce1565b6000600160046000868152602001908152602001600020805490500390505b60008163ffffffff1610610670578263ffffffff16600460008681526020019081526020016000208263ffffffff168154811061047357fe5b906000526020600020906006020160050160009054906101000a900463ffffffff1663ffffffff161415610662576005600460008681526020019081526020016000208263ffffffff16815481106104c757fe5b90600052602060002090600602019080600181540180825580915050906001820390600052602060002090600602016000909192909190915060008201548160000155600182015481600101556002820181600201908054600181600116156101000203166002900461053b929190611d05565b5060038201816003019080546001816001161561010002031660029004610563929190611d05565b506004820181600401908054600181600116156101000203166002900461058b929190611d05565b506005820160009054906101000a900463ffffffff168160050160006101000a81548163ffffffff021916908363ffffffff1602179055506005820160049054906101000a900463ffffffff168160050160046101000a81548163ffffffff021916908363ffffffff1602179055506005820160089054906101000a900463ffffffff168160050160086101000a81548163ffffffff021916908363ffffffff16021790555060058201600c9054906101000a900460ff1681600501600c6101000a81548160ff0219169083151502179055505050505b80806001900391505061043a565b506005805480602002602001604051908101604052809291908181526020016000905b8282101561094d5783829060005260206000209060060201604051806101200160405290816000820154815260200160018201548152602001600282018054600181600116156101000203166002900480601f0160208091040260200160405190810160405280929190818152602001828054600181600116156101000203166002900480156107645780601f1061073957610100808354040283529160200191610764565b820191906000526020600020905b81548152906001019060200180831161074757829003601f168201915b50505050508152602001600382018054600181600116156101000203166002900480601f0160208091040260200160405190810160405280929190818152602001828054600181600116156101000203166002900480156108065780601f106107db57610100808354040283529160200191610806565b820191906000526020600020905b8154815290600101906020018083116107e957829003601f168201915b50505050508152602001600482018054600181600116156101000203166002900480601f0160208091040260200160405190810160405280929190818152602001828054600181600116156101000203166002900480156108a85780601f1061087d576101008083540402835291602001916108a8565b820191906000526020600020905b81548152906001019060200180831161088b57829003601f168201915b505050505081526020016005820160009054906101000a900463ffffffff1663ffffffff1663ffffffff1681526020016005820160049054906101000a900463ffffffff1663ffffffff1663ffffffff1681526020016005820160089054906101000a900463ffffffff1663ffffffff1663ffffffff16815260200160058201600c9054906101000a900460ff16151515158152505081526020019060010190610693565b50505050905092915050565b6060600560006109699190611ce1565b60006003600060018660405161097f91906128f8565b908152602001604051809103902060000154815260200190815260200160002080549050905060006001856040516109b791906128f8565b908152602001604051809103902060000154905060006001830390505b84600184030363ffffffff168163ffffffff1611806109fa575060008163ffffffff1610155b15610bcd576005600360008481526020019081526020016000208263ffffffff1681548110610a2557fe5b906000526020600020906006020190806001815401808255809150509060018203906000526020600020906006020160009091929091909150600082015481600001556001820154816001015560028201816002019080546001816001161561010002031660029004610a99929190611d05565b5060038201816003019080546001816001161561010002031660029004610ac1929190611d05565b5060048201816004019080546001816001161561010002031660029004610ae9929190611d05565b506005820160009054906101000a900463ffffffff168160050160006101000a81548163ffffffff021916908363ffffffff1602179055506005820160049054906101000a900463ffffffff168160050160046101000a81548163ffffffff021916908363ffffffff1602179055506005820160089054906101000a900463ffffffff168160050160086101000a81548163ffffffff021916908363ffffffff16021790555060058201600c9054906101000a900460ff1681600501600c6101000a81548160ff0219169083151502179055505050508080600190039150506109d4565b506005805480602002602001604051908101604052809291908181526020016000905b82821015610eaa5783829060005260206000209060060201604051806101200160405290816000820154815260200160018201548152602001600282018054600181600116156101000203166002900480601f016020809104026020016040519081016040528092919081815260200182805460018160011615610100020316600290048015610cc15780601f10610c9657610100808354040283529160200191610cc1565b820191906000526020600020905b815481529060010190602001808311610ca457829003601f168201915b50505050508152602001600382018054600181600116156101000203166002900480601f016020809104026020016040519081016040528092919081815260200182805460018160011615610100020316600290048015610d635780601f10610d3857610100808354040283529160200191610d63565b820191906000526020600020905b815481529060010190602001808311610d4657829003601f168201915b50505050508152602001600482018054600181600116156101000203166002900480601f016020809104026020016040519081016040528092919081815260200182805460018160011615610100020316600290048015610e055780601f10610dda57610100808354040283529160200191610e05565b820191906000526020600020905b815481529060010190602001808311610de857829003601f168201915b505050505081526020016005820160009054906101000a900463ffffffff1663ffffffff1663ffffffff1681526020016005820160049054906101000a900463ffffffff1663ffffffff1663ffffffff1681526020016005820160089054906101000a900463ffffffff1663ffffffff1663ffffffff16815260200160058201600c9054906101000a900460ff16151515158152505081526020019060010190610bf0565b505050509250505092915050565b6000600188604051610eca91906128f8565b9081526020016040518091039020600001549050600360008281526020019081526020016000206040518061012001604052808b81526020018381526020018981526020018881526020018781526020018663ffffffff1681526020018563ffffffff1681526020018463ffffffff168152602001600015158152509080600181540180825580915050906001820390600052602060002090600602016000909192909190915060008201518160000155602082015181600101556040820151816002019080519060200190610fa1929190611d8c565b506060820151816003019080519060200190610fbe929190611d8c565b506080820151816004019080519060200190610fdb929190611d8c565b5060a08201518160050160006101000a81548163ffffffff021916908363ffffffff16021790555060c08201518160050160046101000a81548163ffffffff021916908363ffffffff16021790555060e08201518160050160086101000a81548163ffffffff021916908363ffffffff16021790555061010082015181600501600c6101000a81548160ff021916908315150217905550505050600460008a81526020019081526020016000206040518061012001604052808b81526020018381526020018981526020018881526020018781526020018663ffffffff1681526020018563ffffffff1681526020018463ffffffff168152602001600015158152509080600181540180825580915050906001820390600052602060002090600602016000909192909190915060008201518160000155602082015181600101556040820151816002019080519060200190611138929190611d8c565b506060820151816003019080519060200190611155929190611d8c565b506080820151816004019080519060200190611172929190611d8c565b5060a08201518160050160006101000a81548163ffffffff021916908363ffffffff16021790555060c08201518160050160046101000a81548163ffffffff021916908363ffffffff16021790555060e08201518160050160086101000a81548163ffffffff021916908363ffffffff16021790555061010082015181600501600c6101000a81548160ff0219169083151502179055505050507f0f5a46bcb7bffad606a4cd31cf3f42e0ea0e9890ab6f17413758fb74a68939fb81600160405161123e9291906129f0565b60405180910390a1505050505050505050565b7ff238aa3cda78908518533ba3515f842a31f098cca6ac98f3c623ecb90e56790f8585858585604051611288959493929190612a19565b60405180910390a15050505050565b6060600080846040516020016112ad91906128f8565b604051602081830303815290604052805190602001206001866040516112d391906128f8565b90815260200160405180910390206003016040516020016112f4919061299c565b6040516020818303038152906040528051906020012014801561138257508360405160200161132391906128f8565b6040516020818303038152906040528051906020012060018660405161134991906128f8565b908152602001604051809103902060040160405160200161136a919061299c565b60405160208183030381529060405280519060200120145b156113ee5760018560405161139791906128f8565b90815260200160405180910390206000015460016040518060400160405280600681526020017f636c69656e740000000000000000000000000000000000000000000000000000815250919092509250925061140b565b600060405180602001604052806000815250906000909250925092505b9250925092565b60008060018560405161142591906128f8565b908152602001604051809103902060030180546001816001161561010002031660029004905014156115f0576000868686868660405160200161146c95949392919061294d565b604051602081830303815290604052805190602001209050604051806101000160405280828152602001888152602001878152602001868152602001858152602001600063ffffffff168152602001600063ffffffff1681526020018463ffffffff168152506001866040516114e291906128f8565b9081526020016040518091039020600082015181600001556020820151816001019080519060200190611516929190611d8c565b506040820151816002019080519060200190611533929190611d8c565b506060820151816003019080519060200190611550929190611d8c565b50608082015181600401908051906020019061156d929190611d8c565b5060a08201518160050160006101000a81548163ffffffff021916908363ffffffff16021790555060c08201518160050160046101000a81548163ffffffff021916908363ffffffff16021790555060e08201518160050160086101000a81548163ffffffff021916908363ffffffff16021790555090505060019150506115f5565b600090505b95945050505050565b801561193357600360008981526020019081526020016000206040518061012001604052808b81526020018a81526020018981526020018881526020018781526020018663ffffffff1681526020018563ffffffff1681526020018463ffffffff1681526020016000151581525090806001815401808255809150509060018203906000526020600020906006020160009091929091909150600082015181600001556020820151816001015560408201518160020190805190602001906116c7929190611d8c565b5060608201518160030190805190602001906116e4929190611d8c565b506080820151816004019080519060200190611701929190611d8c565b5060a08201518160050160006101000a81548163ffffffff021916908363ffffffff16021790555060c08201518160050160046101000a81548163ffffffff021916908363ffffffff16021790555060e08201518160050160086101000a81548163ffffffff021916908363ffffffff16021790555061010082015181600501600c6101000a81548160ff021916908315150217905550505050600460008a81526020019081526020016000206040518061012001604052808b81526020018a81526020018981526020018881526020018781526020018663ffffffff1681526020018563ffffffff1681526020018463ffffffff16815260200160001515815250908060018154018082558091505090600182039060005260206000209060060201600090919290919091506000820151816000015560208201518160010155604082015181600201908051906020019061185e929190611d8c565b50606082015181600301908051906020019061187b929190611d8c565b506080820151816004019080519060200190611898929190611d8c565b5060a08201518160050160006101000a81548163ffffffff021916908363ffffffff16021790555060c08201518160050160046101000a81548163ffffffff021916908363ffffffff16021790555060e08201518160050160086101000a81548163ffffffff021916908363ffffffff16021790555061010082015181600501600c6101000a81548160ff0219169083151502179055505050505b7f0f5a46bcb7bffad606a4cd31cf3f42e0ea0e9890ab6f17413758fb74a68939fb88826040516119649291906129f0565b60405180910390a1505050505050505050565b60008060028860405161198a91906128f8565b90815260200160405180910390206003018054600181600116156101000203166002900490501415611b55576000848a89896040516020016119cf949392919061290f565b6040516020818303038152906040528051906020012090506040518061012001604052808281526020018a63ffffffff1681526020018b815260200189815260200188815260200187815260200186815260200185815260200184815250600289604051611a3d91906128f8565b90815260200160405180910390206000820151816000015560208201518160010160006101000a81548163ffffffff021916908363ffffffff1602179055506040820151816002019080519060200190611a98929190611d8c565b506060820151816003019080519060200190611ab5929190611d8c565b506080820151816004019080519060200190611ad2929190611d8c565b5060a0820151816005019080519060200190611aef929190611d8c565b5060c0820151816006019080519060200190611b0c929190611d8c565b5060e0820151816007019080519060200190611b29929190611d8c565b50610100820151816008019080519060200190611b47929190611d8c565b509050506001915050611b5a565b600090505b98975050505050505050565b606060008084604051602001611b7c91906128f8565b60405160208183030381529060405280519060200120600286604051611ba291906128f8565b9081526020016040518091039020600301604051602001611bc3919061299c565b60405160208183030381529060405280519060200120148015611c51575083604051602001611bf291906128f8565b60405160208183030381529060405280519060200120600286604051611c1891906128f8565b9081526020016040518091039020600401604051602001611c39919061299c565b60405160208183030381529060405280519060200120145b15611cbd57600285604051611c6691906128f8565b90815260200160405180910390206000015460016040518060400160405280600481526020017f636f6d70000000000000000000000000000000000000000000000000000000008152509190925092509250611cda565b600060405180602001604052806000815250906000909250925092505b9250925092565b5080546000825560060290600052602060002090810190611d029190611e0c565b50565b828054600181600116156101000203166002900490600052602060002090601f016020900481019282601f10611d3e5780548555611d7b565b82800160010185558215611d7b57600052602060002091601f016020900482015b82811115611d7a578254825591600101919060010190611d5f565b5b509050611d889190611ec4565b5090565b828054600181600116156101000203166002900490600052602060002090601f016020900481019282601f10611dcd57805160ff1916838001178555611dfb565b82800160010185558215611dfb579182015b82811115611dfa578251825591602001919060010190611ddf565b5b509050611e089190611ec4565b5090565b611ec191905b80821115611ebd576000808201600090556001820160009055600282016000611e3b9190611ee9565b600382016000611e4b9190611ee9565b600482016000611e5b9190611ee9565b6005820160006101000a81549063ffffffff02191690556005820160046101000a81549063ffffffff02191690556005820160086101000a81549063ffffffff021916905560058201600c6101000a81549060ff021916905550600601611e12565b5090565b90565b611ee691905b80821115611ee2576000816000905550600101611eca565b5090565b90565b50805460018160011615610100020316600290046000825580601f10611f0f5750611f2e565b601f016020900490600052602060002090810190611f2d9190611ec4565b5b50565b600081359050611f4081612c3e565b92915050565b600081359050611f5581612c55565b92915050565b600082601f830112611f6c57600080fd5b8135611f7f611f7a82612ad7565b612aaa565b91508082526020830160208301858383011115611f9b57600080fd5b611fa6838284612bcc565b50505092915050565b600081359050611fbe81612c6c565b92915050565b60008060008060008060008060006101208a8c031215611fe357600080fd5b6000611ff18c828d01611f46565b99505060206120028c828d01611f46565b98505060408a013567ffffffffffffffff81111561201f57600080fd5b61202b8c828d01611f5b565b97505060608a013567ffffffffffffffff81111561204857600080fd5b6120548c828d01611f5b565b96505060808a013567ffffffffffffffff81111561207157600080fd5b61207d8c828d01611f5b565b95505060a061208e8c828d01611faf565b94505060c061209f8c828d01611faf565b93505060e06120b08c828d01611faf565b9250506101006120c28c828d01611f31565b9150509295985092959850929598565b600080600080608085870312156120e857600080fd5b60006120f687828801611f46565b945050602061210787828801611f46565b935050604061211887828801611faf565b925050606061212987828801611f31565b91505092959194509250565b600080600080600060a0868803121561214d57600080fd5b600061215b88828901611f46565b955050602061216c88828901611f46565b945050604061217d88828901611faf565b935050606061218e88828901611faf565b925050608061219f88828901611faf565b9150509295509295909350565b600080600080600080600080610100898b0312156121c957600080fd5b60006121d78b828c01611f46565b985050602089013567ffffffffffffffff8111156121f457600080fd5b6122008b828c01611f5b565b975050604089013567ffffffffffffffff81111561221d57600080fd5b6122298b828c01611f5b565b965050606089013567ffffffffffffffff81111561224657600080fd5b6122528b828c01611f5b565b955050608089013567ffffffffffffffff81111561226f57600080fd5b61227b8b828c01611f5b565b94505060a061228c8b828c01611faf565b93505060c061229d8b828c01611faf565b92505060e06122ae8b828c01611faf565b9150509295985092959890939650565b600080604083850312156122d157600080fd5b60006122df85828601611f46565b92505060206122f085828601611faf565b9150509250929050565b6000806040838503121561230d57600080fd5b600083013567ffffffffffffffff81111561232757600080fd5b61233385828601611f5b565b925050602083013567ffffffffffffffff81111561235057600080fd5b61235c85828601611f5b565b9150509250929050565b600080600080600060a0868803121561237e57600080fd5b600086013567ffffffffffffffff81111561239857600080fd5b6123a488828901611f5b565b955050602086013567ffffffffffffffff8111156123c157600080fd5b6123cd88828901611f5b565b945050604086013567ffffffffffffffff8111156123ea57600080fd5b6123f688828901611f5b565b935050606086013567ffffffffffffffff81111561241357600080fd5b61241f88828901611f5b565b925050608061243088828901611faf565b9150509295509295909350565b6000806040838503121561245057600080fd5b600083013567ffffffffffffffff81111561246a57600080fd5b61247685828601611f5b565b925050602061248785828601611faf565b9150509250929050565b600080600080600080600080610100898b0312156124ae57600080fd5b600089013567ffffffffffffffff8111156124c857600080fd5b6124d48b828c01611f5b565b98505060206124e58b828c01611faf565b975050604089013567ffffffffffffffff81111561250257600080fd5b61250e8b828c01611f5b565b965050606089013567ffffffffffffffff81111561252b57600080fd5b6125378b828c01611f5b565b955050608089013567ffffffffffffffff81111561255457600080fd5b6125608b828c01611f5b565b94505060a089013567ffffffffffffffff81111561257d57600080fd5b6125898b828c01611f5b565b93505060c089013567ffffffffffffffff8111156125a657600080fd5b6125b28b828c01611f5b565b92505060e089013567ffffffffffffffff8111156125cf57600080fd5b6125db8b828c01611f5b565b9150509295985092959890939650565b60006125f783836127e1565b905092915050565b600061260a82612b28565b6126148185612b56565b93508360208202850161262685612b03565b8060005b85811015612662578484038952815161264385826125eb565b945061264e83612b49565b925060208a0199505060018101905061262a565b50829750879550505050505092915050565b61267d81612b94565b82525050565b61268c81612b94565b82525050565b61269b81612ba0565b82525050565b6126aa81612ba0565b82525050565b60006126bb82612b3e565b6126c58185612b78565b93506126d5818560208601612bdb565b6126de81612c20565b840191505092915050565b60006126f482612b3e565b6126fe8185612b89565b935061270e818560208601612bdb565b80840191505092915050565b600061272582612b33565b61272f8185612b67565b935061273f818560208601612bdb565b61274881612c20565b840191505092915050565b6000815460018116600081146127705760018114612795576127d9565b607f60028304166127818187612b89565b955060ff19831686528086019350506127d9565b600282046127a38187612b89565b95506127ae85612b13565b60005b828110156127d0578154818901526001820191506020810190506127b1565b82880195505050505b505092915050565b6000610120830160008301516127fa6000860182612692565b50602083015161280d6020860182612692565b5060408301518482036040860152612825828261271a565b9150506060830151848203606086015261283f828261271a565b91505060808301518482036080860152612859828261271a565b91505060a083015161286e60a08601826128c3565b5060c083015161288160c08601826128c3565b5060e083015161289460e08601826128c3565b506101008301516128a9610100860182612674565b508091505092915050565b6128bd81612bba565b82525050565b6128cc81612baa565b82525050565b6128db81612baa565b82525050565b6128f26128ed82612baa565b612c0e565b82525050565b600061290482846126e9565b915081905092915050565b600061291b82876126e9565b915061292782866126e9565b915061293382856126e9565b915061293f82846126e9565b915081905095945050505050565b600061295982886126e9565b915061296582876126e9565b915061297182866126e9565b915061297d82856126e9565b915061298982846128e1565b6004820191508190509695505050505050565b60006129a88284612753565b915081905092915050565b600060208201905081810360008301526129cd81846125ff565b905092915050565b60006020820190506129ea6000830184612683565b92915050565b6000604082019050612a0560008301856126a1565b612a126020830184612683565b9392505050565b600060a082019050612a2e60008301886126a1565b612a3b60208301876126a1565b612a4860408301866128d2565b612a5560608301856128d2565b612a6260808301846128b4565b9695505050505050565b60006060820190508181036000830152612a8681866126b0565b9050612a9560208301856126a1565b612aa26040830184612683565b949350505050565b6000604051905081810181811067ffffffffffffffff82111715612acd57600080fd5b8060405250919050565b600067ffffffffffffffff821115612aee57600080fd5b601f19601f8301169050602081019050919050565b6000819050602082019050919050565b60008190508160005260206000209050919050565b600081519050919050565b600081519050919050565b600081519050919050565b6000602082019050919050565b600082825260208201905092915050565b600082825260208201905092915050565b600082825260208201905092915050565b600081905092915050565b60008115159050919050565b6000819050919050565b600063ffffffff82169050919050565b6000612bc582612baa565b9050919050565b82818337600083830152505050565b60005b83811015612bf9578082015181840152602081019050612bde565b83811115612c08576000848401525b50505050565b6000612c1982612c31565b9050919050565b6000601f19601f8301169050919050565b60008160e01b9050919050565b612c4781612b94565b8114612c5257600080fd5b50565b612c5e81612ba0565b8114612c6957600080fd5b50565b612c7581612baa565b8114612c8057600080fd5b5056fea365627a7a7231582075075b1183e8f8e68baa7bfe246c90e5074b58eddbbedcb761150f75fbc635136c6578706572696d656e74616cf564736f6c634300050c0040",
  "source": "pragma solidity >=0.4.25 <0.7.0;\r\npragma experimental ABIEncoderV2;\r\n\r\ncontract NoNoShow{\r\n  // DB  \r\n  address payable creator;\r\n  struct books{\r\n    bytes32 compID;\r\n    bytes32 keyID;\r\n    string compName; // \r\n    string custName; //  \r\n    string custPN; //  \r\n    uint32 date; // 20201414\r\n    uint32 time; // 1130\r\n    uint32 personnel; // \r\n    bool isShow; // false true\r\n  }\r\n\r\n  // DB\r\n  struct custDB{\r\n    bytes32 keyID; // + \r\n    string phoneNumber;\r\n    string name;\r\n    string ID;\r\n    string PW;\r\n    uint32 showCnt;\r\n    uint32 noShowCnt;\r\n    uint32 age;\r\n    // ,    \r\n  }\r\n  struct compDB{//comp  company\r\n    bytes32 compID;\r\n    uint32 startTime; // \r\n    string comName;\r\n    string ID;\r\n    string PW;\r\n    string addr; //  \r\n    string phoneNumber; //  \r\n    string img; //   \r\n    string description; //  \r\n    //      \r\n  }\r\n  mapping(string=>custDB) userCust;//   DB\r\n  mapping(string=>compDB) userComp;//   DB\r\n  mapping(bytes32=>books[]) LedgerDB;//      DB\r\n  mapping(bytes32=>books[]) compBooks;// c.f.)        DB\r\n  books[] resBooks; //      \r\n  //    : mapping(=>) , string[]       \r\n  //   (       .)\r\n  event alertToComp(bytes32 keyID,bytes32 compID, uint32 date, uint32 time, uint personnel);\r\n  event alertToCust(bytes32 keyID, bool ack);\r\n  // \r\n  constructor () public{\r\n    creator = msg.sender; //    creator     .\r\n  }\r\n\r\n  // \r\n  function custSignUp(string memory phoneNumber,string memory name,string memory id, string memory pw, uint32 age) public returns(bool){\r\n    if(bytes(userCust[id].ID).length==0){//   ,    ID 0  \r\n      //c.f.)     delete userCust[phoneNumber]  \r\n      bytes32 keyID = keccak256( abi.encodePacked( phoneNumber,name,id,pw,age ) );\r\n      userCust[id] = custDB(keyID,phoneNumber,name,id,pw,0,0,age); // keyID , +\"1234\"  .\r\n      return true;\r\n    }\r\n    return false;\r\n  }\r\n  function custLogIn(string memory id, string memory pw) public view returns(string memory,bytes32 keyID,bool pass){//\r\n    if(keccak256(abi.encodePacked((userCust[id].ID)))  == keccak256(abi.encodePacked((id))) && keccak256(abi.encodePacked((userCust[id].PW))) == keccak256(abi.encodePacked((pw)))){\r\n      return (\"client\",userCust[id].keyID,true);\r\n    }\r\n    return (\"\",\"\",false);\r\n  }\r\n  function book(bytes32 keyID,bytes32 compID,uint32 date, uint32 time, uint32 personnel)public{\r\n    emit alertToComp(keyID,compID,date,time, personnel); //    .  Tx   .\r\n  }\r\n  // \r\n  function compSignUp(string memory compName,uint32 startTime, string memory id, string memory pw ,string memory addr,string memory phoneNumber, string memory img, string memory description) public returns(bool){\r\n    if(bytes(userComp[id].ID).length==0){//   ,    ID 0  \r\n      //c.f.)     delete userCust[phoneNumber]  \r\n      bytes32 compID = keccak256( abi.encodePacked( phoneNumber,compName,id,pw ) );\r\n      userComp[id] = compDB(compID, startTime, compName, id, pw, addr, phoneNumber, img, description);\r\n      return true;\r\n    }\r\n    return false;\r\n  }\r\n  //function changeCompInfo() =>        .\r\n\r\n  function compLogIn(string memory id, string memory pw) public view returns(string memory,bytes32 compID, bool pass){ //    ..\r\n    if(keccak256(abi.encodePacked((userComp[id].ID)))  == keccak256(abi.encodePacked((id))) && keccak256(abi.encodePacked((userComp[id].PW))) == keccak256(abi.encodePacked((pw)))){\r\n      return (\"comp\",userComp[id].compID,true); //     keccack256  .(string  )\r\n    }\r\n    return (\"\",\"\",false);\r\n  }\r\n  ////   \r\n  function bookList(bytes32 compID,uint32 date) public returns(books[] memory){ //  ID     \r\n    delete resBooks;\r\n    for(uint32 i = uint32(compBooks[compID].length-1);i>=0;i--){\r\n        if(compBooks[compID][i].date == date){\r\n            resBooks.push(compBooks[compID][i]);\r\n        }\r\n    }\r\n    return resBooks;\r\n  }\r\n  function ackBook(bytes32 compID,bytes32 keyID,string memory compName,string memory custName, string memory custPN, uint32 date,uint32 time,uint32 personnel, bool ack) public{\r\n    if(ack){\r\n      LedgerDB[keyID].push(books(compID,keyID,compName,custName,custPN,date,time,personnel, false));\r\n      compBooks[compID].push(books(compID,keyID,compName,custName,custPN,date,time,personnel, false));\r\n    }\r\n    emit alertToCust(keyID, ack);\r\n  }\r\n  function resBook(bytes32 keyID,bytes32 compID, uint32 date, bool isShow) public{ //     \r\n    for(uint32 i = uint32(LedgerDB[keyID].length - 1);i>=0;i--){\r\n        if(LedgerDB[keyID][i].date == date){\r\n            LedgerDB[keyID][i].isShow = isShow;\r\n            break;\r\n        }\r\n    }\r\n    for(uint32 i = uint32(compBooks[compID].length - 1);i>=0;i--){\r\n        if(compBooks[compID][i].date == date){\r\n            compBooks[compID][i].isShow = isShow;\r\n            break;\r\n        }\r\n    }\r\n  }\r\n  function callBook(bytes32 compID,string memory phoneNumber,string memory compName,string memory custName, string memory custPN, uint32 date,uint32 time, uint32 personnel) public {//     \r\n    bytes32 keyID = userCust[phoneNumber].keyID;\r\n    LedgerDB[keyID].push(books(compID,keyID,compName,custName,custPN,date,time,personnel,false));\r\n    compBooks[compID].push(books(compID,keyID,compName,custName,custPN,date,time,personnel,false));\r\n    emit alertToCust(keyID, true);\r\n  }\r\n  //   \r\n  function checkUser(string memory phoneNumber,uint32 idx) public returns(books[] memory){ //     \r\n    delete resBooks;\r\n    uint32 bookLength = uint32(LedgerDB[userCust[phoneNumber].keyID].length);\r\n    bytes32 keyID = userCust[phoneNumber].keyID;\r\n    for(uint32 i = bookLength - 1;i>bookLength-1-idx || i>=0;i--){\r\n        resBooks.push(LedgerDB[keyID][i]);\r\n    }\r\n    return resBooks;\r\n  }\r\n}\r\n",
  "sourcePath": "E:/HDD//0/20-1 / 1/nonoShow/Solidity_API_Smart_Contract/contracts/NoNoShow.sol",
  "compiler": {
    "name": "solc",
    "version": "0.5.12+commit.7709ece9.Emscripten.clang"
  },
  "schemaVersion": "3.0.19",
  "updatedAt": "2020-05-19T16:17:15.692Z",
  "devdoc": {
    "methods": {}
  },
  "userdoc": {
    "methods": {
      "bookList(bytes32,uint32)": {
        "notice": "/   "
      }
    }
  }
}