{
  "contractName": "NoNoShow",
  "abi": [
    {
      "inputs": [],
      "payable": false,
      "stateMutability": "nonpayable",
      "type": "constructor"
    },
    {
      "anonymous": false,
      "inputs": [
        {
          "indexed": false,
          "internalType": "address",
          "name": "from",
          "type": "address"
        },
        {
          "indexed": false,
          "internalType": "bytes32",
          "name": "keyID",
          "type": "bytes32"
        },
        {
          "indexed": false,
          "internalType": "bytes32",
          "name": "compID",
          "type": "bytes32"
        },
        {
          "indexed": false,
          "internalType": "uint32",
          "name": "date",
          "type": "uint32"
        },
        {
          "indexed": false,
          "internalType": "uint32",
          "name": "time",
          "type": "uint32"
        },
        {
          "indexed": false,
          "internalType": "uint256",
          "name": "personnel",
          "type": "uint256"
        }
      ],
      "name": "alertToCompEvent",
      "type": "event"
    },
    {
      "anonymous": false,
      "inputs": [
        {
          "indexed": false,
          "internalType": "address",
          "name": "from",
          "type": "address"
        },
        {
          "indexed": false,
          "internalType": "bytes32",
          "name": "keyID",
          "type": "bytes32"
        },
        {
          "indexed": false,
          "internalType": "bool",
          "name": "ack",
          "type": "bool"
        }
      ],
      "name": "alertToCustEvent",
      "type": "event"
    },
    {
      "anonymous": false,
      "inputs": [
        {
          "indexed": false,
          "internalType": "address",
          "name": "from",
          "type": "address"
        },
        {
          "indexed": false,
          "internalType": "bytes32",
          "name": "compID",
          "type": "bytes32"
        },
        {
          "components": [
            {
              "internalType": "bytes32",
              "name": "compID",
              "type": "bytes32"
            },
            {
              "internalType": "bytes32",
              "name": "keyID",
              "type": "bytes32"
            },
            {
              "internalType": "string",
              "name": "compName",
              "type": "string"
            },
            {
              "internalType": "string",
              "name": "custName",
              "type": "string"
            },
            {
              "internalType": "string",
              "name": "custPN",
              "type": "string"
            },
            {
              "internalType": "uint32",
              "name": "date",
              "type": "uint32"
            },
            {
              "internalType": "uint32",
              "name": "time",
              "type": "uint32"
            },
            {
              "internalType": "uint32",
              "name": "personnel",
              "type": "uint32"
            },
            {
              "internalType": "bool",
              "name": "isShow",
              "type": "bool"
            }
          ],
          "indexed": false,
          "internalType": "struct NoNoShow.books[]",
          "name": "bookList",
          "type": "tuple[]"
        }
      ],
      "name": "checkBookListEvent",
      "type": "event"
    },
    {
      "anonymous": false,
      "inputs": [
        {
          "indexed": false,
          "internalType": "address",
          "name": "from",
          "type": "address"
        },
        {
          "indexed": false,
          "internalType": "string",
          "name": "to",
          "type": "string"
        },
        {
          "components": [
            {
              "internalType": "bytes32",
              "name": "compID",
              "type": "bytes32"
            },
            {
              "internalType": "bytes32",
              "name": "keyID",
              "type": "bytes32"
            },
            {
              "internalType": "string",
              "name": "compName",
              "type": "string"
            },
            {
              "internalType": "string",
              "name": "custName",
              "type": "string"
            },
            {
              "internalType": "string",
              "name": "custPN",
              "type": "string"
            },
            {
              "internalType": "uint32",
              "name": "date",
              "type": "uint32"
            },
            {
              "internalType": "uint32",
              "name": "time",
              "type": "uint32"
            },
            {
              "internalType": "uint32",
              "name": "personnel",
              "type": "uint32"
            },
            {
              "internalType": "bool",
              "name": "isShow",
              "type": "bool"
            }
          ],
          "indexed": false,
          "internalType": "struct NoNoShow.books[]",
          "name": "noShowList",
          "type": "tuple[]"
        }
      ],
      "name": "checkNoShowListEvent",
      "type": "event"
    },
    {
      "anonymous": false,
      "inputs": [
        {
          "indexed": false,
          "internalType": "address",
          "name": "from",
          "type": "address"
        },
        {
          "indexed": false,
          "internalType": "string",
          "name": "to",
          "type": "string"
        },
        {
          "indexed": false,
          "internalType": "bool",
          "name": "pass",
          "type": "bool"
        }
      ],
      "name": "compSignUpEvent",
      "type": "event"
    },
    {
      "anonymous": false,
      "inputs": [
        {
          "indexed": false,
          "internalType": "address",
          "name": "from",
          "type": "address"
        },
        {
          "indexed": false,
          "internalType": "string",
          "name": "to",
          "type": "string"
        },
        {
          "indexed": false,
          "internalType": "bool",
          "name": "pass",
          "type": "bool"
        }
      ],
      "name": "custSignUpEvent",
      "type": "event"
    },
    {
      "constant": false,
      "inputs": [
        {
          "internalType": "string",
          "name": "phoneNumber",
          "type": "string"
        },
        {
          "internalType": "string",
          "name": "name",
          "type": "string"
        },
        {
          "internalType": "string",
          "name": "id",
          "type": "string"
        },
        {
          "internalType": "string",
          "name": "pw",
          "type": "string"
        },
        {
          "internalType": "uint32",
          "name": "age",
          "type": "uint32"
        }
      ],
      "name": "custSignUp",
      "outputs": [],
      "payable": false,
      "stateMutability": "nonpayable",
      "type": "function"
    },
    {
      "constant": true,
      "inputs": [
        {
          "internalType": "string",
          "name": "id",
          "type": "string"
        },
        {
          "internalType": "string",
          "name": "pw",
          "type": "string"
        }
      ],
      "name": "custLogIn",
      "outputs": [
        {
          "internalType": "string",
          "name": "",
          "type": "string"
        },
        {
          "internalType": "bytes32",
          "name": "keyID",
          "type": "bytes32"
        },
        {
          "internalType": "bool",
          "name": "pass",
          "type": "bool"
        }
      ],
      "payable": false,
      "stateMutability": "view",
      "type": "function"
    },
    {
      "constant": false,
      "inputs": [
        {
          "internalType": "bytes32",
          "name": "keyID",
          "type": "bytes32"
        },
        {
          "internalType": "bytes32",
          "name": "compID",
          "type": "bytes32"
        },
        {
          "internalType": "uint32",
          "name": "date",
          "type": "uint32"
        },
        {
          "internalType": "uint32",
          "name": "time",
          "type": "uint32"
        },
        {
          "internalType": "uint32",
          "name": "personnel",
          "type": "uint32"
        }
      ],
      "name": "book",
      "outputs": [],
      "payable": false,
      "stateMutability": "nonpayable",
      "type": "function"
    },
    {
      "constant": false,
      "inputs": [
        {
          "internalType": "string",
          "name": "compName",
          "type": "string"
        },
        {
          "internalType": "uint32",
          "name": "startTime",
          "type": "uint32"
        },
        {
          "internalType": "string",
          "name": "id",
          "type": "string"
        },
        {
          "internalType": "string",
          "name": "pw",
          "type": "string"
        },
        {
          "internalType": "string",
          "name": "addr",
          "type": "string"
        },
        {
          "internalType": "string",
          "name": "phoneNumber",
          "type": "string"
        },
        {
          "internalType": "string",
          "name": "img",
          "type": "string"
        },
        {
          "internalType": "string",
          "name": "description",
          "type": "string"
        }
      ],
      "name": "compSignUp",
      "outputs": [],
      "payable": false,
      "stateMutability": "nonpayable",
      "type": "function"
    },
    {
      "constant": true,
      "inputs": [
        {
          "internalType": "string",
          "name": "id",
          "type": "string"
        },
        {
          "internalType": "string",
          "name": "pw",
          "type": "string"
        }
      ],
      "name": "compLogIn",
      "outputs": [
        {
          "internalType": "string",
          "name": "",
          "type": "string"
        },
        {
          "internalType": "bytes32",
          "name": "compID",
          "type": "bytes32"
        },
        {
          "internalType": "bool",
          "name": "pass",
          "type": "bool"
        }
      ],
      "payable": false,
      "stateMutability": "view",
      "type": "function"
    },
    {
      "constant": false,
      "inputs": [
        {
          "internalType": "bytes32",
          "name": "compID",
          "type": "bytes32"
        },
        {
          "internalType": "uint32",
          "name": "date",
          "type": "uint32"
        }
      ],
      "name": "bookList",
      "outputs": [],
      "payable": false,
      "stateMutability": "nonpayable",
      "type": "function"
    },
    {
      "constant": false,
      "inputs": [
        {
          "internalType": "bytes32",
          "name": "compID",
          "type": "bytes32"
        },
        {
          "internalType": "bytes32",
          "name": "keyID",
          "type": "bytes32"
        },
        {
          "internalType": "string",
          "name": "compName",
          "type": "string"
        },
        {
          "internalType": "string",
          "name": "custName",
          "type": "string"
        },
        {
          "internalType": "string",
          "name": "custPN",
          "type": "string"
        },
        {
          "internalType": "uint32",
          "name": "date",
          "type": "uint32"
        },
        {
          "internalType": "uint32",
          "name": "time",
          "type": "uint32"
        },
        {
          "internalType": "uint32",
          "name": "personnel",
          "type": "uint32"
        },
        {
          "internalType": "bool",
          "name": "ack",
          "type": "bool"
        }
      ],
      "name": "ackBook",
      "outputs": [],
      "payable": false,
      "stateMutability": "nonpayable",
      "type": "function"
    },
    {
      "constant": false,
      "inputs": [
        {
          "internalType": "bytes32",
          "name": "keyID",
          "type": "bytes32"
        },
        {
          "internalType": "bytes32",
          "name": "compID",
          "type": "bytes32"
        },
        {
          "internalType": "uint32",
          "name": "date",
          "type": "uint32"
        },
        {
          "internalType": "bool",
          "name": "isShow",
          "type": "bool"
        }
      ],
      "name": "resBook",
      "outputs": [],
      "payable": false,
      "stateMutability": "nonpayable",
      "type": "function"
    },
    {
      "constant": false,
      "inputs": [
        {
          "internalType": "bytes32",
          "name": "compID",
          "type": "bytes32"
        },
        {
          "internalType": "string",
          "name": "phoneNumber",
          "type": "string"
        },
        {
          "internalType": "string",
          "name": "compName",
          "type": "string"
        },
        {
          "internalType": "string",
          "name": "custName",
          "type": "string"
        },
        {
          "internalType": "string",
          "name": "custPN",
          "type": "string"
        },
        {
          "internalType": "uint32",
          "name": "date",
          "type": "uint32"
        },
        {
          "internalType": "uint32",
          "name": "time",
          "type": "uint32"
        },
        {
          "internalType": "uint32",
          "name": "personnel",
          "type": "uint32"
        }
      ],
      "name": "callBook",
      "outputs": [],
      "payable": false,
      "stateMutability": "nonpayable",
      "type": "function"
    },
    {
      "constant": false,
      "inputs": [
        {
          "internalType": "string",
          "name": "phoneNumber",
          "type": "string"
        },
        {
          "internalType": "string",
          "name": "callerPN",
          "type": "string"
        },
        {
          "internalType": "uint32",
          "name": "idx",
          "type": "uint32"
        }
      ],
      "name": "checkUser",
      "outputs": [],
      "payable": false,
      "stateMutability": "nonpayable",
      "type": "function"
    }
  ],
  "bytecode": "0x608060405234801561001057600080fd5b50336000806101000a81548173ffffffffffffffffffffffffffffffffffffffff021916908373ffffffffffffffffffffffffffffffffffffffff160217905550612ca0806100606000396000f3fe608060405234801561001057600080fd5b506004361061009e5760003560e01c8063763c10ed11610066578063763c10ed146101455780639f56854e14610161578063b885e2db1461017d578063cc16c47814610199578063df5262a7146101b55761009e565b80631bc1f5f0146100a3578063224e788f146100bf57806341dd988b146100db57806345094428146100f75780634c2eadc314610113575b600080fd5b6100bd60048036036100b89190810190611e25565b6101e7565b005b6100d960048036036100d49190810190612011565b6103bb565b005b6100f560048036036100f09190810190611eff565b610680565b005b610111600480360361010c9190810190611e88565b610a3c565b005b61012d6004803603610128919081019061204d565b610aa5565b60405161013c93929190612919565b60405180910390f35b61015f600480360361015a9190810190612190565b610c20565b005b61017b600480360361017691908101906120b9565b610f31565b005b61019760048036036101929190810190611d17565b6111ff565b005b6101b360048036036101ae919081019061220f565b61159b565b005b6101cf60048036036101ca919081019061204d565b611839565b6040516101de93929190612919565b60405180910390f35b6000600160036000878152602001908152602001600020805490500390505b60008163ffffffff16106102cd578263ffffffff16600360008781526020019081526020016000208263ffffffff168154811061023f57fe5b906000526020600020906006020160050160009054906101000a900463ffffffff1663ffffffff1614156102bf5781600360008781526020019081526020016000208263ffffffff168154811061029257fe5b9060005260206000209060060201600501600c6101000a81548160ff0219169083151502179055506102cd565b808060019003915050610206565b506000600160046000868152602001908152602001600020805490500390505b60008163ffffffff16106103b4578263ffffffff16600460008681526020019081526020016000208263ffffffff168154811061032657fe5b906000526020600020906006020160050160009054906101000a900463ffffffff1663ffffffff1614156103a65781600460008681526020019081526020016000208263ffffffff168154811061037957fe5b9060005260206000209060060201600501600c6101000a81548160ff0219169083151502179055506103b4565b8080600190039150506102ed565b5050505050565b600660006103c991906119b4565b6000600160046000858152602001908152602001600020805490500390505b60008163ffffffff161061061e578163ffffffff16600460008581526020019081526020016000208263ffffffff168154811061042157fe5b906000526020600020906006020160050160009054906101000a900463ffffffff1663ffffffff161415610610576006600460008581526020019081526020016000208263ffffffff168154811061047557fe5b9060005260206000209060060201908060018154018082558091505090600182039060005260206000209060060201600090919290919091506000820154816000015560018201548160010155600282018160020190805460018160011615610100020316600290046104e99291906119d8565b50600382018160030190805460018160011615610100020316600290046105119291906119d8565b50600482018160040190805460018160011615610100020316600290046105399291906119d8565b506005820160009054906101000a900463ffffffff168160050160006101000a81548163ffffffff021916908363ffffffff1602179055506005820160049054906101000a900463ffffffff168160050160046101000a81548163ffffffff021916908363ffffffff1602179055506005820160089054906101000a900463ffffffff168160050160086101000a81548163ffffffff021916908363ffffffff16021790555060058201600c9054906101000a900460ff1681600501600c6101000a81548160ff0219169083151502179055505050505b8080600190039150506103e8565b507f67ad9860a3959145cbacd0dcbd73672d5ca3c3e1cd794dafee5fea697b8f58326000809054906101000a900473ffffffffffffffffffffffffffffffffffffffff16836006604051610674939291906127c0565b60405180910390a15050565b60006001886040516106929190612705565b9081526020016040518091039020600001549050600360008281526020019081526020016000206040518061012001604052808b81526020018381526020018981526020018881526020018781526020018663ffffffff1681526020018563ffffffff1681526020018463ffffffff168152602001600015158152509080600181540180825580915050906001820390600052602060002090600602016000909192909190915060008201518160000155602082015181600101556040820151816002019080519060200190610769929190611a5f565b506060820151816003019080519060200190610786929190611a5f565b5060808201518160040190805190602001906107a3929190611a5f565b5060a08201518160050160006101000a81548163ffffffff021916908363ffffffff16021790555060c08201518160050160046101000a81548163ffffffff021916908363ffffffff16021790555060e08201518160050160086101000a81548163ffffffff021916908363ffffffff16021790555061010082015181600501600c6101000a81548160ff021916908315150217905550505050600460008a81526020019081526020016000206040518061012001604052808b81526020018381526020018981526020018881526020018781526020018663ffffffff1681526020018563ffffffff1681526020018463ffffffff168152602001600015158152509080600181540180825580915050906001820390600052602060002090600602016000909192909190915060008201518160000155602082015181600101556040820151816002019080519060200190610900929190611a5f565b50606082015181600301908051906020019061091d929190611a5f565b50608082015181600401908051906020019061093a929190611a5f565b5060a08201518160050160006101000a81548163ffffffff021916908363ffffffff16021790555060c08201518160050160046101000a81548163ffffffff021916908363ffffffff16021790555060e08201518160050160086101000a81548163ffffffff021916908363ffffffff16021790555061010082015181600501600c6101000a81548160ff0219169083151502179055505050507f48c71e3760d25c9734a027d6c1ab38250cdbafcf3fe5310c097e1f234340a5696000809054906101000a900473ffffffffffffffffffffffffffffffffffffffff16826001604051610a29939291906127fe565b60405180910390a1505050505050505050565b7fd1734fd516d013f71564198d4f4b4fdaf91e280558fb732201fb43da3a2a03a06000809054906101000a900473ffffffffffffffffffffffffffffffffffffffff168686868686604051610a9696959493929190612835565b60405180910390a15050505050565b606060008084604051602001610abb9190612705565b60405160208183030381529060405280519060200120600186604051610ae19190612705565b9081526020016040518091039020600301604051602001610b0291906127a9565b60405160208183030381529060405280519060200120148015610b90575083604051602001610b319190612705565b60405160208183030381529060405280519060200120600186604051610b579190612705565b9081526020016040518091039020600401604051602001610b7891906127a9565b60405160208183030381529060405280519060200120145b15610bfc57600185604051610ba59190612705565b90815260200160405180910390206000015460016040518060400160405280600681526020017f636c69656e7400000000000000000000000000000000000000000000000000008152509190925092509250610c19565b600060405180602001604052806000815250906000909250925092505b9250925092565b60066000610c2e91906119b4565b6000600360006001600587604051610c469190612705565b9081526020016040518091039020604051610c6191906127a9565b908152602001604051809103902060000154815260200190815260200160002080549050905060006001600586604051610c9b9190612705565b9081526020016040518091039020604051610cb691906127a9565b908152602001604051809103902060000154905060006001830390505b83600184030363ffffffff168163ffffffff161180610cf9575060008163ffffffff1610155b15610ecc576006600360008481526020019081526020016000208263ffffffff1681548110610d2457fe5b906000526020600020906006020190806001815401808255809150509060018203906000526020600020906006020160009091929091909150600082015481600001556001820154816001015560028201816002019080546001816001161561010002031660029004610d989291906119d8565b5060038201816003019080546001816001161561010002031660029004610dc09291906119d8565b5060048201816004019080546001816001161561010002031660029004610de89291906119d8565b506005820160009054906101000a900463ffffffff168160050160006101000a81548163ffffffff021916908363ffffffff1602179055506005820160049054906101000a900463ffffffff168160050160046101000a81548163ffffffff021916908363ffffffff1602179055506005820160089054906101000a900463ffffffff168160050160086101000a81548163ffffffff021916908363ffffffff16021790555060058201600c9054906101000a900460ff1681600501600c6101000a81548160ff021916908315150217905550505050808060019003915050610cd3565b507f9df6c3f3a30555aaeb023f172ec93e0b40c1d3239ece0d980c087d9e124453366000809054906101000a900473ffffffffffffffffffffffffffffffffffffffff16856006604051610f2293929190612896565b60405180910390a15050505050565b6000600184604051610f439190612705565b9081526020016040518091039020600301805460018160011615610100020316600290049050141561119a5760008585858585604051602001610f8a95949392919061275a565b604051602081830303815290604052805190602001209050604051806101000160405280828152602001878152602001868152602001858152602001848152602001600063ffffffff168152602001600063ffffffff1681526020018363ffffffff168152506001856040516110009190612705565b9081526020016040518091039020600082015181600001556020820151816001019080519060200190611034929190611a5f565b506040820151816002019080519060200190611051929190611a5f565b50606082015181600301908051906020019061106e929190611a5f565b50608082015181600401908051906020019061108b929190611a5f565b5060a08201518160050160006101000a81548163ffffffff021916908363ffffffff16021790555060c08201518160050160046101000a81548163ffffffff021916908363ffffffff16021790555060e08201518160050160086101000a81548163ffffffff021916908363ffffffff160217905550905050836005876040516111159190612705565b90815260200160405180910390209080519060200190611136929190611adf565b507f6ee1dfbc2e7f960e232ec0fc4ffbdbee8ff8ecf493e10dc7f8171b809ffb64396000809054906101000a900473ffffffffffffffffffffffffffffffffffffffff1687600160405161118c939291906128db565b60405180910390a1506111f8565b7f6ee1dfbc2e7f960e232ec0fc4ffbdbee8ff8ecf493e10dc7f8171b809ffb64396000809054906101000a900473ffffffffffffffffffffffffffffffffffffffff168660006040516111ef939291906128db565b60405180910390a15b5050505050565b801561153457600360008981526020019081526020016000206040518061012001604052808b81526020018a81526020018981526020018881526020018781526020018663ffffffff1681526020018563ffffffff1681526020018463ffffffff1681526020016000151581525090806001815401808255809150509060018203906000526020600020906006020160009091929091909150600082015181600001556020820151816001015560408201518160020190805190602001906112c8929190611a5f565b5060608201518160030190805190602001906112e5929190611a5f565b506080820151816004019080519060200190611302929190611a5f565b5060a08201518160050160006101000a81548163ffffffff021916908363ffffffff16021790555060c08201518160050160046101000a81548163ffffffff021916908363ffffffff16021790555060e08201518160050160086101000a81548163ffffffff021916908363ffffffff16021790555061010082015181600501600c6101000a81548160ff021916908315150217905550505050600460008a81526020019081526020016000206040518061012001604052808b81526020018a81526020018981526020018881526020018781526020018663ffffffff1681526020018563ffffffff1681526020018463ffffffff16815260200160001515815250908060018154018082558091505090600182039060005260206000209060060201600090919290919091506000820151816000015560208201518160010155604082015181600201908051906020019061145f929190611a5f565b50606082015181600301908051906020019061147c929190611a5f565b506080820151816004019080519060200190611499929190611a5f565b5060a08201518160050160006101000a81548163ffffffff021916908363ffffffff16021790555060c08201518160050160046101000a81548163ffffffff021916908363ffffffff16021790555060e08201518160050160086101000a81548163ffffffff021916908363ffffffff16021790555061010082015181600501600c6101000a81548160ff0219169083151502179055505050505b7f48c71e3760d25c9734a027d6c1ab38250cdbafcf3fe5310c097e1f234340a5696000809054906101000a900473ffffffffffffffffffffffffffffffffffffffff168983604051611588939291906127fe565b60405180910390a1505050505050505050565b60006002876040516115ad9190612705565b908152602001604051809103902060030180546001816001161561010002031660029004905014156117d1576000838988886040516020016115f2949392919061271c565b6040516020818303038152906040528051906020012090506040518061012001604052808281526020018963ffffffff1681526020018a8152602001888152602001878152602001868152602001858152602001848152602001838152506002886040516116609190612705565b90815260200160405180910390206000820151816000015560208201518160010160006101000a81548163ffffffff021916908363ffffffff16021790555060408201518160020190805190602001906116bb929190611a5f565b5060608201518160030190805190602001906116d8929190611a5f565b5060808201518160040190805190602001906116f5929190611a5f565b5060a0820151816005019080519060200190611712929190611a5f565b5060c082015181600601908051906020019061172f929190611a5f565b5060e082015181600701908051906020019061174c929190611a5f565b5061010082015181600801908051906020019061176a929190611a5f565b509050507f4058f139981afbe299fb17362c672999234af2793279fc0d8ab29fdec123a81e6000809054906101000a900473ffffffffffffffffffffffffffffffffffffffff168560016040516117c3939291906128db565b60405180910390a15061182f565b7f4058f139981afbe299fb17362c672999234af2793279fc0d8ab29fdec123a81e6000809054906101000a900473ffffffffffffffffffffffffffffffffffffffff16846000604051611826939291906128db565b60405180910390a15b5050505050505050565b60606000808460405160200161184f9190612705565b604051602081830303815290604052805190602001206002866040516118759190612705565b908152602001604051809103902060030160405160200161189691906127a9565b604051602081830303815290604052805190602001201480156119245750836040516020016118c59190612705565b604051602081830303815290604052805190602001206002866040516118eb9190612705565b908152602001604051809103902060040160405160200161190c91906127a9565b60405160208183030381529060405280519060200120145b15611990576002856040516119399190612705565b90815260200160405180910390206000015460016040518060400160405280600481526020017f636f6d700000000000000000000000000000000000000000000000000000000081525091909250925092506119ad565b600060405180602001604052806000815250906000909250925092505b9250925092565b50805460008255600602906000526020600020908101906119d59190611b5f565b50565b828054600181600116156101000203166002900490600052602060002090601f016020900481019282601f10611a115780548555611a4e565b82800160010185558215611a4e57600052602060002091601f016020900482015b82811115611a4d578254825591600101919060010190611a32565b5b509050611a5b9190611c17565b5090565b828054600181600116156101000203166002900490600052602060002090601f016020900481019282601f10611aa057805160ff1916838001178555611ace565b82800160010185558215611ace579182015b82811115611acd578251825591602001919060010190611ab2565b5b509050611adb9190611c17565b5090565b828054600181600116156101000203166002900490600052602060002090601f016020900481019282601f10611b2057805160ff1916838001178555611b4e565b82800160010185558215611b4e579182015b82811115611b4d578251825591602001919060010190611b32565b5b509050611b5b9190611c17565b5090565b611c1491905b80821115611c10576000808201600090556001820160009055600282016000611b8e9190611c3c565b600382016000611b9e9190611c3c565b600482016000611bae9190611c3c565b6005820160006101000a81549063ffffffff02191690556005820160046101000a81549063ffffffff02191690556005820160086101000a81549063ffffffff021916905560058201600c6101000a81549060ff021916905550600601611b65565b5090565b90565b611c3991905b80821115611c35576000816000905550600101611c1d565b5090565b90565b50805460018160011615610100020316600290046000825580601f10611c625750611c81565b601f016020900490600052602060002090810190611c809190611c17565b5b50565b600081359050611c9381612c18565b92915050565b600081359050611ca881612c2f565b92915050565b600082601f830112611cbf57600080fd5b8135611cd2611ccd82612984565b612957565b91508082526020830160208301858383011115611cee57600080fd5b611cf9838284612af0565b50505092915050565b600081359050611d1181612c46565b92915050565b60008060008060008060008060006101208a8c031215611d3657600080fd5b6000611d448c828d01611c99565b9950506020611d558c828d01611c99565b98505060408a013567ffffffffffffffff811115611d7257600080fd5b611d7e8c828d01611cae565b97505060608a013567ffffffffffffffff811115611d9b57600080fd5b611da78c828d01611cae565b96505060808a013567ffffffffffffffff811115611dc457600080fd5b611dd08c828d01611cae565b95505060a0611de18c828d01611d02565b94505060c0611df28c828d01611d02565b93505060e0611e038c828d01611d02565b925050610100611e158c828d01611c84565b9150509295985092959850929598565b60008060008060808587031215611e3b57600080fd5b6000611e4987828801611c99565b9450506020611e5a87828801611c99565b9350506040611e6b87828801611d02565b9250506060611e7c87828801611c84565b91505092959194509250565b600080600080600060a08688031215611ea057600080fd5b6000611eae88828901611c99565b9550506020611ebf88828901611c99565b9450506040611ed088828901611d02565b9350506060611ee188828901611d02565b9250506080611ef288828901611d02565b9150509295509295909350565b600080600080600080600080610100898b031215611f1c57600080fd5b6000611f2a8b828c01611c99565b985050602089013567ffffffffffffffff811115611f4757600080fd5b611f538b828c01611cae565b975050604089013567ffffffffffffffff811115611f7057600080fd5b611f7c8b828c01611cae565b965050606089013567ffffffffffffffff811115611f9957600080fd5b611fa58b828c01611cae565b955050608089013567ffffffffffffffff811115611fc257600080fd5b611fce8b828c01611cae565b94505060a0611fdf8b828c01611d02565b93505060c0611ff08b828c01611d02565b92505060e06120018b828c01611d02565b9150509295985092959890939650565b6000806040838503121561202457600080fd5b600061203285828601611c99565b925050602061204385828601611d02565b9150509250929050565b6000806040838503121561206057600080fd5b600083013567ffffffffffffffff81111561207a57600080fd5b61208685828601611cae565b925050602083013567ffffffffffffffff8111156120a357600080fd5b6120af85828601611cae565b9150509250929050565b600080600080600060a086880312156120d157600080fd5b600086013567ffffffffffffffff8111156120eb57600080fd5b6120f788828901611cae565b955050602086013567ffffffffffffffff81111561211457600080fd5b61212088828901611cae565b945050604086013567ffffffffffffffff81111561213d57600080fd5b61214988828901611cae565b935050606086013567ffffffffffffffff81111561216657600080fd5b61217288828901611cae565b925050608061218388828901611d02565b9150509295509295909350565b6000806000606084860312156121a557600080fd5b600084013567ffffffffffffffff8111156121bf57600080fd5b6121cb86828701611cae565b935050602084013567ffffffffffffffff8111156121e857600080fd5b6121f486828701611cae565b925050604061220586828701611d02565b9150509250925092565b600080600080600080600080610100898b03121561222c57600080fd5b600089013567ffffffffffffffff81111561224657600080fd5b6122528b828c01611cae565b98505060206122638b828c01611d02565b975050604089013567ffffffffffffffff81111561228057600080fd5b61228c8b828c01611cae565b965050606089013567ffffffffffffffff8111156122a957600080fd5b6122b58b828c01611cae565b955050608089013567ffffffffffffffff8111156122d257600080fd5b6122de8b828c01611cae565b94505060a089013567ffffffffffffffff8111156122fb57600080fd5b6123078b828c01611cae565b93505060c089013567ffffffffffffffff81111561232457600080fd5b6123308b828c01611cae565b92505060e089013567ffffffffffffffff81111561234d57600080fd5b6123598b828c01611cae565b9150509295985092959890939650565b600061237583836125c3565b905092915050565b61238681612aa8565b82525050565b6000612397826129da565b6123a181856129fd565b9350836020820285016123b3856129b0565b8060005b858110156123ee578484038952816123cf8582612369565b94506123da836129f0565b925060208a019950506001810190506123b7565b50829750879550505050505092915050565b61240981612a62565b82525050565b61241881612a62565b82525050565b61242781612a6e565b82525050565b61243681612a6e565b82525050565b6000612447826129e5565b6124518185612a1f565b9350612461818560208601612aff565b61246a81612bc6565b840191505092915050565b6000612480826129e5565b61248a8185612a30565b935061249a818560208601612aff565b80840191505092915050565b6000815460018116600081146124c357600181146124e95761252d565b607f60028304166124d48187612a0e565b955060ff19831686526020860193505061252d565b600282046124f78187612a0e565b9550612502856129c5565b60005b8281101561252457815481890152600182019150602081019050612505565b80880195505050505b505092915050565b6000815460018116600081146125525760018114612577576125bb565b607f60028304166125638187612a30565b955060ff19831686528086019350506125bb565b600282046125858187612a30565b9550612590856129c5565b60005b828110156125b257815481890152600182019150602081019050612593565b82880195505050505b505092915050565b6000610120830160008084015490506125db81612b32565b6125e8600087018261241e565b50600184015490506125f981612b32565b612606602087018261241e565b5060028401858303604087015261261d83826124a6565b92505060038401858303606087015261263683826124a6565b92505060048401858303608087015261264f83826124a6565b9250506005840154905061266281612b4c565b61266f60a08701826126d0565b5061267981612b80565b61268660c08701826126d0565b5061269081612b9a565b61269d60e08701826126d0565b506126a781612b66565b6126b5610100870182612400565b50819250505092915050565b6126ca81612ade565b82525050565b6126d981612a98565b82525050565b6126e881612a98565b82525050565b6126ff6126fa82612a98565b612bb4565b82525050565b60006127118284612475565b915081905092915050565b60006127288287612475565b91506127348286612475565b91506127408285612475565b915061274c8284612475565b915081905095945050505050565b60006127668288612475565b91506127728287612475565b915061277e8286612475565b915061278a8285612475565b915061279682846126ee565b6004820191508190509695505050505050565b60006127b58284612535565b915081905092915050565b60006060820190506127d5600083018661237d565b6127e2602083018561242d565b81810360408301526127f4818461238c565b9050949350505050565b6000606082019050612813600083018661237d565b612820602083018561242d565b61282d604083018461240f565b949350505050565b600060c08201905061284a600083018961237d565b612857602083018861242d565b612864604083018761242d565b61287160608301866126df565b61287e60808301856126df565b61288b60a08301846126c1565b979650505050505050565b60006060820190506128ab600083018661237d565b81810360208301526128bd818561243c565b905081810360408301526128d1818461238c565b9050949350505050565b60006060820190506128f0600083018661237d565b8181036020830152612902818561243c565b9050612911604083018461240f565b949350505050565b60006060820190508181036000830152612933818661243c565b9050612942602083018561242d565b61294f604083018461240f565b949350505050565b6000604051905081810181811067ffffffffffffffff8211171561297a57600080fd5b8060405250919050565b600067ffffffffffffffff82111561299b57600080fd5b601f19601f8301169050602081019050919050565b60008190508160005260206000209050919050565b60008190508160005260206000209050919050565b600081549050919050565b600081519050919050565b6000600682019050919050565b600082825260208201905092915050565b600082825260208201905092915050565b600082825260208201905092915050565b600081905092915050565b600060ff82169050919050565b6000819050919050565b600063ffffffff82169050919050565b60008115159050919050565b6000819050919050565b600073ffffffffffffffffffffffffffffffffffffffff82169050919050565b600063ffffffff82169050919050565b6000612ab382612aba565b9050919050565b6000612ac582612acc565b9050919050565b6000612ad782612a78565b9050919050565b6000612ae982612a98565b9050919050565b82818337600083830152505050565b60005b83811015612b1d578082015181840152602081019050612b02565b83811115612b2c576000848401525b50505050565b6000612b45612b4083612be4565b612a48565b9050919050565b6000612b5f612b5a83612be4565b612a52565b9050919050565b6000612b79612b7483612c0b565b612a3b565b9050919050565b6000612b93612b8e83612bf1565b612a52565b9050919050565b6000612bad612ba883612bfe565b612a52565b9050919050565b6000612bbf82612bd7565b9050919050565b6000601f19601f8301169050919050565b60008160e01b9050919050565b60008160001c9050919050565b60008160201c9050919050565b60008160401c9050919050565b60008160601c9050919050565b612c2181612a62565b8114612c2c57600080fd5b50565b612c3881612a6e565b8114612c4357600080fd5b50565b612c4f81612a98565b8114612c5a57600080fd5b5056fea365627a7a7231582016d8a6201cd2a272b8c649790d3ff5b2a9c4b2082b9268ca7e613e55ede08e5d6c6578706572696d656e74616cf564736f6c634300050c0040",
  "source": "pragma solidity >=0.4.25 <0.7.0;\r\npragma experimental ABIEncoderV2;\r\n\r\ncontract NoNoShow{\r\n  // DB  \r\n  address payable creator;\r\n  struct books{\r\n    bytes32 compID;\r\n    bytes32 keyID;\r\n    string compName; // \r\n    string custName; //  \r\n    string custPN; //  \r\n    uint32 date; // 20201414\r\n    uint32 time; // 1130\r\n    uint32 personnel; // \r\n    bool isShow; // false true\r\n  }\r\n\r\n  // DB\r\n  struct custDB{\r\n    bytes32 keyID; // + \r\n    string phoneNumber;\r\n    string name;\r\n    string ID;\r\n    string PW;\r\n    uint32 showCnt;\r\n    uint32 noShowCnt;\r\n    uint32 age;\r\n    // ,    \r\n  }\r\n  struct compDB{//comp  company\r\n    bytes32 compID;\r\n    uint32 startTime; // \r\n    string comName;\r\n    string ID;\r\n    string PW;\r\n    string addr; //  \r\n    string phoneNumber; //  \r\n    string img; //   \r\n    string description; //  \r\n    //      \r\n  }\r\n  mapping(string=>custDB) userCust;//   DB\r\n  mapping(string=>compDB) userComp;//   DB\r\n  mapping(bytes32=>books[]) LedgerDB;//      DB\r\n  mapping(bytes32=>books[]) compBooks;// c.f.)        DB\r\n  mapping(string=>string) userID_finder; // phoneNumber => ID\r\n  books[] resBooks; //      \r\n  //    : mapping(=>) , string[]       \r\n  //   (       .)\r\n\r\n  //    \r\n  event custSignUpEvent(address from, string to, bool pass);\r\n  event compSignUpEvent(address from, string to, bool pass);\r\n\r\n  //    \r\n  event alertToCompEvent(address from, bytes32 keyID,bytes32 compID, uint32 date, uint32 time, uint personnel);\r\n  event alertToCustEvent(address from, bytes32 keyID, bool ack);\r\n\r\n  //    \r\n  event checkBookListEvent(address from, bytes32 compID,books[] bookList);\r\n  event checkNoShowListEvent(address from, string to, books[] noShowList);\r\n\r\n  // \r\n  constructor () public{\r\n    creator = msg.sender; //    creator     .\r\n  }\r\n\r\n  // \r\n  function custSignUp(string memory phoneNumber,string memory name,string memory id, string memory pw, uint32 age) public{\r\n    if(bytes(userCust[id].ID).length==0){//   ,    ID 0  \r\n      //c.f.)     delete userCust[phoneNumber]  \r\n      bytes32 keyID = keccak256( abi.encodePacked( phoneNumber,name,id,pw,age ) );\r\n      userCust[id] = custDB(keyID,phoneNumber,name,id,pw,0,0,age); // keyID , +\"1234\"  .\r\n      userID_finder[phoneNumber] = id;\r\n      emit custSignUpEvent(creator,phoneNumber,true);\r\n      return;\r\n    }else{\r\n        emit custSignUpEvent(creator,phoneNumber,false);\r\n        return;\r\n    }\r\n  }\r\n  function custLogIn(string memory id, string memory pw) public view returns(string memory,bytes32 keyID,bool pass){//\r\n    if(keccak256(abi.encodePacked((userCust[id].ID)))  == keccak256(abi.encodePacked((id))) && keccak256(abi.encodePacked((userCust[id].PW))) == keccak256(abi.encodePacked((pw)))){\r\n      return (\"client\",userCust[id].keyID,true);\r\n    }\r\n    return (\"\",\"\",false);\r\n  }\r\n  function book(bytes32 keyID,bytes32 compID,uint32 date, uint32 time, uint32 personnel)public{\r\n    emit alertToCompEvent(creator,keyID,compID,date,time, personnel); //    .  Tx   .\r\n  }\r\n  // \r\n  function compSignUp(string memory compName,uint32 startTime, string memory id, string memory pw ,string memory addr,string memory phoneNumber, string memory img, string memory description) public {\r\n    if(bytes(userComp[id].ID).length==0){//   ,    ID 0  \r\n      //c.f.)     delete userCust[phoneNumber]  \r\n      bytes32 compID = keccak256( abi.encodePacked( phoneNumber,compName,id,pw ) );\r\n      userComp[id] = compDB(compID, startTime, compName, id, pw, addr, phoneNumber, img, description);\r\n      emit compSignUpEvent(creator, phoneNumber, true);\r\n    }else{\r\n      emit compSignUpEvent(creator, phoneNumber, false);\r\n    }\r\n  }\r\n  //function changeCompInfo() =>        .\r\n\r\n  function compLogIn(string memory id, string memory pw) public view returns(string memory,bytes32 compID, bool pass){ //    ..\r\n    if(keccak256(abi.encodePacked((userComp[id].ID)))  == keccak256(abi.encodePacked((id))) && keccak256(abi.encodePacked((userComp[id].PW))) == keccak256(abi.encodePacked((pw)))){\r\n      return (\"comp\",userComp[id].compID,true); //     keccack256  .(string  )\r\n    }\r\n    return (\"\",\"\",false);\r\n  }\r\n  ////   \r\n  function bookList(bytes32 compID,uint32 date) public { //  ID     \r\n    delete resBooks;\r\n    for(uint32 i = uint32(compBooks[compID].length-1);i>=0;i--){\r\n        if(compBooks[compID][i].date == date){\r\n            resBooks.push(compBooks[compID][i]);\r\n        }\r\n    }\r\n    emit checkBookListEvent(creator, compID, resBooks);\r\n  }\r\n  function ackBook(bytes32 compID,bytes32 keyID,string memory compName,string memory custName, string memory custPN, uint32 date,uint32 time,uint32 personnel, bool ack) public{\r\n    if(ack){\r\n      LedgerDB[keyID].push(books(compID,keyID,compName,custName,custPN,date,time,personnel, false));\r\n      compBooks[compID].push(books(compID,keyID,compName,custName,custPN,date,time,personnel, false));\r\n    }\r\n    emit alertToCustEvent(creator, keyID, ack);\r\n  }\r\n  function resBook(bytes32 keyID,bytes32 compID, uint32 date, bool isShow) public{ //     \r\n    for(uint32 i = uint32(LedgerDB[keyID].length - 1);i>=0;i--){\r\n        if(LedgerDB[keyID][i].date == date){\r\n            LedgerDB[keyID][i].isShow = isShow;\r\n            break;\r\n        }\r\n    }\r\n    for(uint32 i = uint32(compBooks[compID].length - 1);i>=0;i--){\r\n        if(compBooks[compID][i].date == date){\r\n            compBooks[compID][i].isShow = isShow;\r\n            break;\r\n        }\r\n    }\r\n  }\r\n\r\n  function callBook(bytes32 compID,string memory phoneNumber,string memory compName,string memory custName, string memory custPN, uint32 date,uint32 time, uint32 personnel) public {//     \r\n    bytes32 keyID = userCust[phoneNumber].keyID;\r\n    LedgerDB[keyID].push(books(compID,keyID,compName,custName,custPN,date,time,personnel,false));\r\n    compBooks[compID].push(books(compID,keyID,compName,custName,custPN,date,time,personnel,false));\r\n    emit alertToCustEvent(creator, keyID, true);\r\n  }\r\n  //   \r\n  function checkUser(string memory phoneNumber,string memory callerPN ,uint32 idx) public { //     \r\n    delete resBooks;\r\n    uint32 bookLength = uint32(LedgerDB[userCust[userID_finder[phoneNumber]].keyID].length);\r\n    bytes32 keyID = userCust[userID_finder[phoneNumber]].keyID;\r\n    for(uint32 i = bookLength - 1;i>bookLength-1-idx || i>=0;i--){\r\n        resBooks.push(LedgerDB[keyID][i]);\r\n    }\r\n    emit checkNoShowListEvent(creator,callerPN,resBooks);\r\n  }\r\n}\r\n",
  "sourcePath": "E:/HDD//0/20-1 / 1/nonoShow/Solidity_API_Smart_Contract/contracts/NoNoShow.sol",
  "compiler": {
    "name": "solc",
    "version": "0.5.12+commit.7709ece9.Emscripten.clang"
  },
  "schemaVersion": "3.0.19",
  "updatedAt": "2020-06-08T08:18:59.055Z",
  "devdoc": {
    "methods": {}
  },
  "userdoc": {
    "methods": {
      "bookList(bytes32,uint32)": {
        "notice": "/   "
      }
    }
  }
}