{
  "contractName": "NoNoShow",
  "abi": [
    {
      "constant": false,
      "inputs": [],
      "name": "dummy",
      "outputs": [
        {
          "internalType": "uint256",
          "name": "",
          "type": "uint256"
        }
      ],
      "payable": false,
      "stateMutability": "nonpayable",
      "type": "function"
    },
    {
      "constant": false,
      "inputs": [],
      "name": "setDum",
      "outputs": [],
      "payable": false,
      "stateMutability": "nonpayable",
      "type": "function"
    },
    {
      "constant": true,
      "inputs": [],
      "name": "dumd",
      "outputs": [
        {
          "components": [
            {
              "internalType": "string",
              "name": "dumcom",
              "type": "string"
            },
            {
              "internalType": "string",
              "name": "dumpw",
              "type": "string"
            }
          ],
          "internalType": "struct NoNoShow.dumdum",
          "name": "",
          "type": "tuple"
        }
      ],
      "payable": false,
      "stateMutability": "view",
      "type": "function"
    },
    {
      "constant": false,
      "inputs": [
        {
          "internalType": "string",
          "name": "str",
          "type": "string"
        }
      ],
      "name": "setDMap",
      "outputs": [],
      "payable": false,
      "stateMutability": "nonpayable",
      "type": "function"
    },
    {
      "constant": true,
      "inputs": [
        {
          "internalType": "string",
          "name": "a",
          "type": "string"
        }
      ],
      "name": "daRet",
      "outputs": [
        {
          "components": [
            {
              "internalType": "string",
              "name": "dumcom",
              "type": "string"
            },
            {
              "internalType": "string",
              "name": "dumpw",
              "type": "string"
            }
          ],
          "internalType": "struct NoNoShow.dumdum[]",
          "name": "",
          "type": "tuple[]"
        }
      ],
      "payable": false,
      "stateMutability": "view",
      "type": "function"
    }
  ],
  "bytecode": "0x608060405234801561001057600080fd5b50610af5806100206000396000f3fe608060405234801561001057600080fd5b50600436106100575760003560e01c806308ef849e1461005c57806332e43a111461006657806335669f5b14610084578063868cadb1146100a0578063cbc22a24146100be575b600080fd5b6100646100ee565b005b61006e61018d565b60405161007b9190610976565b60405180910390f35b61009e60048036036100999190810190610750565b610196565b005b6100a861029e565b6040516100b59190610954565b60405180910390f35b6100d860048036036100d39190810190610750565b6103fc565b6040516100e59190610932565b60405180910390f35b6040518060400160405280600281526020017f686800000000000000000000000000000000000000000000000000000000000081525060008001908051906020019061013b9291906105bd565b506040518060400160405280600281526020017f65650000000000000000000000000000000000000000000000000000000000008152506000600101908051906020019061018a9291906105bd565b50565b6000600a905090565b6002816040516101a6919061091b565b908152602001604051809103902060405180604001604052806040518060400160405280600181526020017f310000000000000000000000000000000000000000000000000000000000000081525081526020016040518060400160405280600181526020017f310000000000000000000000000000000000000000000000000000000000000081525081525090806001815401808255809150509060018203906000526020600020906002020160009091929091909150600082015181600001908051906020019061027a92919061063d565b50602082015181600101908051906020019061029792919061063d565b5050505050565b6102a66106bd565b6000604051806040016040529081600082018054600181600116156101000203166002900480601f01602080910402602001604051908101604052809291908181526020018280546001816001161561010002031660029004801561034c5780601f106103215761010080835404028352916020019161034c565b820191906000526020600020905b81548152906001019060200180831161032f57829003601f168201915b50505050508152602001600182018054600181600116156101000203166002900480601f0160208091040260200160405190810160405280929190818152602001828054600181600116156101000203166002900480156103ee5780601f106103c3576101008083540402835291602001916103ee565b820191906000526020600020905b8154815290600101906020018083116103d157829003601f168201915b505050505081525050905090565b606060028260405161040e919061091b565b9081526020016040518091039020805480602002602001604051908101604052809291908181526020016000905b828210156105b25783829060005260206000209060020201604051806040016040529081600082018054600181600116156101000203166002900480601f0160208091040260200160405190810160405280929190818152602001828054600181600116156101000203166002900480156104f85780601f106104cd576101008083540402835291602001916104f8565b820191906000526020600020905b8154815290600101906020018083116104db57829003601f168201915b50505050508152602001600182018054600181600116156101000203166002900480601f01602080910402602001604051908101604052809291908181526020018280546001816001161561010002031660029004801561059a5780601f1061056f5761010080835404028352916020019161059a565b820191906000526020600020905b81548152906001019060200180831161057d57829003601f168201915b5050505050815250508152602001906001019061043c565b505050509050919050565b828054600181600116156101000203166002900490600052602060002090601f016020900481019282601f106105fe57805160ff191683800117855561062c565b8280016001018555821561062c579182015b8281111561062b578251825591602001919060010190610610565b5b50905061063991906106d7565b5090565b828054600181600116156101000203166002900490600052602060002090601f016020900481019282601f1061067e57805160ff19168380011785556106ac565b828001600101855582156106ac579182015b828111156106ab578251825591602001919060010190610690565b5b5090506106b991906106d7565b5090565b604051806040016040528060608152602001606081525090565b6106f991905b808211156106f55760008160009055506001016106dd565b5090565b90565b600082601f83011261070d57600080fd5b813561072061071b826109be565b610991565b9150808252602083016020830185838301111561073c57600080fd5b610747838284610a5f565b50505092915050565b60006020828403121561076257600080fd5b600082013567ffffffffffffffff81111561077c57600080fd5b610788848285016106fc565b91505092915050565b600061079d83836108c8565b905092915050565b60006107b0826109fa565b6107ba8185610a28565b9350836020820285016107cc856109ea565b8060005b8581101561080857848403895281516107e98582610791565b94506107f483610a1b565b925060208a019950506001810190506107d0565b50829750879550505050505092915050565b600061082582610a10565b61082f8185610a4a565b935061083f818560208601610a6e565b80840191505092915050565b600061085682610a05565b6108608185610a39565b9350610870818560208601610a6e565b61087981610aa1565b840191505092915050565b600060408301600083015184820360008601526108a1828261084b565b915050602083015184820360208601526108bb828261084b565b9150508091505092915050565b600060408301600083015184820360008601526108e5828261084b565b915050602083015184820360208601526108ff828261084b565b9150508091505092915050565b61091581610a55565b82525050565b6000610927828461081a565b915081905092915050565b6000602082019050818103600083015261094c81846107a5565b905092915050565b6000602082019050818103600083015261096e8184610884565b905092915050565b600060208201905061098b600083018461090c565b92915050565b6000604051905081810181811067ffffffffffffffff821117156109b457600080fd5b8060405250919050565b600067ffffffffffffffff8211156109d557600080fd5b601f19601f8301169050602081019050919050565b6000819050602082019050919050565b600081519050919050565b600081519050919050565b600081519050919050565b6000602082019050919050565b600082825260208201905092915050565b600082825260208201905092915050565b600081905092915050565b6000819050919050565b82818337600083830152505050565b60005b83811015610a8c578082015181840152602081019050610a71565b83811115610a9b576000848401525b50505050565b6000601f19601f830116905091905056fea365627a7a72315820c0818262994ae87602a1a3c902cc829256b680dc3fe271ff41de7af9828d51446c6578706572696d656e74616cf564736f6c634300050c0040",
  "source": "pragma solidity >=0.4.25 <0.7.0;\r\npragma experimental ABIEncoderV2;\r\n\r\ncontract NoNoShow{\r\n  struct dumdum{\r\n    string dumcom;\r\n    string dumpw;\r\n  }\r\n  struct dums{\r\n    uint cnt;\r\n    dumdum[] darr;\r\n  }\r\n  function dummy() public returns(uint){\r\n    return 10;\r\n  }\r\n  dumdum dd;\r\n  function setDum() public {\r\n    dd.dumcom = \"hh\";\r\n    dd.dumpw = \"ee\";\r\n  }\r\n  function dumd() public view returns(dumdum memory){\r\n    return dd;\r\n  }\r\n  mapping(string=>dumdum[]) dmap;\r\n  function setDMap(string memory str) public { // 회원 가입 시기 말고 첫 예약 들어 온 시기에 넣어주면 될\r\n    dmap[str].push(dumdum(\"1\",\"1\"));\r\n  }\r\n\r\n  function daRet(string memory a) public view returns(dumdum[] memory){\r\n    return dmap[a];\r\n  }\r\n\r\n}\r\n",
  "sourcePath": "C:/Users/qeadz/Desktop/truffleEx1/contracts/NoNoShow.sol",
  "compiler": {
    "name": "solc",
    "version": "0.5.12+commit.7709ece9.Emscripten.clang"
  },
  "schemaVersion": "3.0.19",
  "updatedAt": "2020-04-17T17:16:31.003Z",
  "networkType": "ethereum",
  "devdoc": {
    "methods": {}
  },
  "userdoc": {
    "methods": {}
  }
}