{
  "contractName": "NoNoShow",
  "abi": [
    {
      "inputs": [],
      "payable": false,
      "stateMutability": "nonpayable",
      "type": "constructor"
    },
    {
      "anonymous": false,
      "inputs": [
        {
          "indexed": false,
          "internalType": "address",
          "name": "from",
          "type": "address"
        },
        {
          "indexed": false,
          "internalType": "bytes32",
          "name": "keyID",
          "type": "bytes32"
        },
        {
          "indexed": false,
          "internalType": "bytes32",
          "name": "compID",
          "type": "bytes32"
        },
        {
          "indexed": false,
          "internalType": "uint32",
          "name": "date",
          "type": "uint32"
        },
        {
          "indexed": false,
          "internalType": "uint32",
          "name": "time",
          "type": "uint32"
        },
        {
          "indexed": false,
          "internalType": "uint256",
          "name": "personnel",
          "type": "uint256"
        }
      ],
      "name": "alertToCompEvent",
      "type": "event"
    },
    {
      "anonymous": false,
      "inputs": [
        {
          "indexed": false,
          "internalType": "address",
          "name": "from",
          "type": "address"
        },
        {
          "indexed": false,
          "internalType": "bytes32",
          "name": "keyID",
          "type": "bytes32"
        },
        {
          "indexed": false,
          "internalType": "bool",
          "name": "ack",
          "type": "bool"
        }
      ],
      "name": "alertToCustEvent",
      "type": "event"
    },
    {
      "anonymous": false,
      "inputs": [
        {
          "indexed": false,
          "internalType": "address",
          "name": "from",
          "type": "address"
        },
        {
          "indexed": false,
          "internalType": "bytes32",
          "name": "compID",
          "type": "bytes32"
        },
        {
          "components": [
            {
              "internalType": "bytes32",
              "name": "compID",
              "type": "bytes32"
            },
            {
              "internalType": "bytes32",
              "name": "keyID",
              "type": "bytes32"
            },
            {
              "internalType": "string",
              "name": "compName",
              "type": "string"
            },
            {
              "internalType": "string",
              "name": "custName",
              "type": "string"
            },
            {
              "internalType": "string",
              "name": "custPN",
              "type": "string"
            },
            {
              "internalType": "uint32",
              "name": "date",
              "type": "uint32"
            },
            {
              "internalType": "uint32",
              "name": "time",
              "type": "uint32"
            },
            {
              "internalType": "uint32",
              "name": "personnel",
              "type": "uint32"
            },
            {
              "internalType": "uint32",
              "name": "bookState",
              "type": "uint32"
            },
            {
              "internalType": "bool",
              "name": "isShow",
              "type": "bool"
            }
          ],
          "indexed": false,
          "internalType": "struct NoNoShow.books[]",
          "name": "bookList",
          "type": "tuple[]"
        }
      ],
      "name": "checkBookListEvent",
      "type": "event"
    },
    {
      "anonymous": false,
      "inputs": [
        {
          "indexed": false,
          "internalType": "address",
          "name": "from",
          "type": "address"
        },
        {
          "indexed": false,
          "internalType": "string",
          "name": "to",
          "type": "string"
        },
        {
          "components": [
            {
              "internalType": "bytes32",
              "name": "compID",
              "type": "bytes32"
            },
            {
              "internalType": "bytes32",
              "name": "keyID",
              "type": "bytes32"
            },
            {
              "internalType": "string",
              "name": "compName",
              "type": "string"
            },
            {
              "internalType": "string",
              "name": "custName",
              "type": "string"
            },
            {
              "internalType": "string",
              "name": "custPN",
              "type": "string"
            },
            {
              "internalType": "uint32",
              "name": "date",
              "type": "uint32"
            },
            {
              "internalType": "uint32",
              "name": "time",
              "type": "uint32"
            },
            {
              "internalType": "uint32",
              "name": "personnel",
              "type": "uint32"
            },
            {
              "internalType": "uint32",
              "name": "bookState",
              "type": "uint32"
            },
            {
              "internalType": "bool",
              "name": "isShow",
              "type": "bool"
            }
          ],
          "indexed": false,
          "internalType": "struct NoNoShow.books[]",
          "name": "noShowList",
          "type": "tuple[]"
        }
      ],
      "name": "checkNoShowListEvent",
      "type": "event"
    },
    {
      "anonymous": false,
      "inputs": [
        {
          "indexed": false,
          "internalType": "address",
          "name": "from",
          "type": "address"
        },
        {
          "indexed": false,
          "internalType": "string",
          "name": "to",
          "type": "string"
        },
        {
          "indexed": false,
          "internalType": "bool",
          "name": "pass",
          "type": "bool"
        }
      ],
      "name": "compSignUpEvent",
      "type": "event"
    },
    {
      "anonymous": false,
      "inputs": [
        {
          "indexed": false,
          "internalType": "address",
          "name": "from",
          "type": "address"
        },
        {
          "indexed": false,
          "internalType": "string",
          "name": "to",
          "type": "string"
        },
        {
          "indexed": false,
          "internalType": "bool",
          "name": "pass",
          "type": "bool"
        }
      ],
      "name": "custSignUpEvent",
      "type": "event"
    },
    {
      "constant": false,
      "inputs": [
        {
          "internalType": "string",
          "name": "phoneNumber",
          "type": "string"
        },
        {
          "internalType": "string",
          "name": "name",
          "type": "string"
        },
        {
          "internalType": "string",
          "name": "id",
          "type": "string"
        },
        {
          "internalType": "string",
          "name": "pw",
          "type": "string"
        },
        {
          "internalType": "uint32",
          "name": "age",
          "type": "uint32"
        }
      ],
      "name": "custSignUp",
      "outputs": [],
      "payable": false,
      "stateMutability": "nonpayable",
      "type": "function"
    },
    {
      "constant": true,
      "inputs": [
        {
          "internalType": "string",
          "name": "id",
          "type": "string"
        },
        {
          "internalType": "string",
          "name": "pw",
          "type": "string"
        }
      ],
      "name": "custLogIn",
      "outputs": [
        {
          "internalType": "string",
          "name": "",
          "type": "string"
        },
        {
          "internalType": "bytes32",
          "name": "keyID",
          "type": "bytes32"
        },
        {
          "internalType": "bool",
          "name": "pass",
          "type": "bool"
        }
      ],
      "payable": false,
      "stateMutability": "view",
      "type": "function"
    },
    {
      "constant": false,
      "inputs": [
        {
          "internalType": "bytes32",
          "name": "keyID",
          "type": "bytes32"
        },
        {
          "internalType": "bytes32",
          "name": "compID",
          "type": "bytes32"
        },
        {
          "internalType": "uint32",
          "name": "date",
          "type": "uint32"
        },
        {
          "internalType": "uint32",
          "name": "time",
          "type": "uint32"
        },
        {
          "internalType": "uint32",
          "name": "personnel",
          "type": "uint32"
        }
      ],
      "name": "book",
      "outputs": [],
      "payable": false,
      "stateMutability": "nonpayable",
      "type": "function"
    },
    {
      "constant": false,
      "inputs": [
        {
          "internalType": "string",
          "name": "compName",
          "type": "string"
        },
        {
          "internalType": "uint32",
          "name": "startTime",
          "type": "uint32"
        },
        {
          "internalType": "string",
          "name": "id",
          "type": "string"
        },
        {
          "internalType": "string",
          "name": "pw",
          "type": "string"
        },
        {
          "internalType": "string",
          "name": "addr",
          "type": "string"
        },
        {
          "internalType": "string",
          "name": "phoneNumber",
          "type": "string"
        },
        {
          "internalType": "string",
          "name": "img",
          "type": "string"
        },
        {
          "internalType": "string",
          "name": "description",
          "type": "string"
        }
      ],
      "name": "compSignUp",
      "outputs": [],
      "payable": false,
      "stateMutability": "nonpayable",
      "type": "function"
    },
    {
      "constant": true,
      "inputs": [
        {
          "internalType": "string",
          "name": "id",
          "type": "string"
        },
        {
          "internalType": "string",
          "name": "pw",
          "type": "string"
        }
      ],
      "name": "compLogIn",
      "outputs": [
        {
          "internalType": "string",
          "name": "",
          "type": "string"
        },
        {
          "internalType": "bytes32",
          "name": "compID",
          "type": "bytes32"
        },
        {
          "internalType": "bool",
          "name": "pass",
          "type": "bool"
        }
      ],
      "payable": false,
      "stateMutability": "view",
      "type": "function"
    },
    {
      "constant": false,
      "inputs": [
        {
          "internalType": "bytes32",
          "name": "compID",
          "type": "bytes32"
        },
        {
          "internalType": "uint32",
          "name": "date",
          "type": "uint32"
        }
      ],
      "name": "bookList",
      "outputs": [],
      "payable": false,
      "stateMutability": "nonpayable",
      "type": "function"
    },
    {
      "constant": false,
      "inputs": [
        {
          "internalType": "bytes32",
          "name": "compID",
          "type": "bytes32"
        },
        {
          "internalType": "bytes32",
          "name": "keyID",
          "type": "bytes32"
        },
        {
          "internalType": "string",
          "name": "compName",
          "type": "string"
        },
        {
          "internalType": "string",
          "name": "custName",
          "type": "string"
        },
        {
          "internalType": "string",
          "name": "custPN",
          "type": "string"
        },
        {
          "internalType": "uint32",
          "name": "date",
          "type": "uint32"
        },
        {
          "internalType": "uint32",
          "name": "time",
          "type": "uint32"
        },
        {
          "internalType": "uint32",
          "name": "personnel",
          "type": "uint32"
        },
        {
          "internalType": "uint32",
          "name": "bookState",
          "type": "uint32"
        },
        {
          "internalType": "bool",
          "name": "ack",
          "type": "bool"
        }
      ],
      "name": "ackBook",
      "outputs": [],
      "payable": false,
      "stateMutability": "nonpayable",
      "type": "function"
    },
    {
      "constant": false,
      "inputs": [
        {
          "internalType": "bytes32",
          "name": "keyID",
          "type": "bytes32"
        },
        {
          "internalType": "bytes32",
          "name": "compID",
          "type": "bytes32"
        },
        {
          "internalType": "uint32",
          "name": "date",
          "type": "uint32"
        },
        {
          "internalType": "bool",
          "name": "isShow",
          "type": "bool"
        }
      ],
      "name": "resBook",
      "outputs": [],
      "payable": false,
      "stateMutability": "nonpayable",
      "type": "function"
    },
    {
      "constant": false,
      "inputs": [
        {
          "internalType": "bytes32",
          "name": "keyID",
          "type": "bytes32"
        },
        {
          "internalType": "bytes32",
          "name": "compID",
          "type": "bytes32"
        },
        {
          "internalType": "uint32",
          "name": "date",
          "type": "uint32"
        },
        {
          "internalType": "uint32",
          "name": "bookState",
          "type": "uint32"
        }
      ],
      "name": "waitBook",
      "outputs": [],
      "payable": false,
      "stateMutability": "nonpayable",
      "type": "function"
    },
    {
      "constant": false,
      "inputs": [
        {
          "internalType": "bytes32",
          "name": "compID",
          "type": "bytes32"
        },
        {
          "internalType": "string",
          "name": "phoneNumber",
          "type": "string"
        },
        {
          "internalType": "string",
          "name": "compName",
          "type": "string"
        },
        {
          "internalType": "string",
          "name": "custName",
          "type": "string"
        },
        {
          "internalType": "string",
          "name": "custPN",
          "type": "string"
        },
        {
          "internalType": "uint32",
          "name": "date",
          "type": "uint32"
        },
        {
          "internalType": "uint32",
          "name": "time",
          "type": "uint32"
        },
        {
          "internalType": "uint32",
          "name": "personnel",
          "type": "uint32"
        },
        {
          "internalType": "uint32",
          "name": "bookState",
          "type": "uint32"
        }
      ],
      "name": "callBook",
      "outputs": [],
      "payable": false,
      "stateMutability": "nonpayable",
      "type": "function"
    },
    {
      "constant": false,
      "inputs": [
        {
          "internalType": "string",
          "name": "phoneNumber",
          "type": "string"
        },
        {
          "internalType": "string",
          "name": "callerPN",
          "type": "string"
        },
        {
          "internalType": "uint32",
          "name": "idx",
          "type": "uint32"
        }
      ],
      "name": "checkUser",
      "outputs": [],
      "payable": false,
      "stateMutability": "nonpayable",
      "type": "function"
    }
  ],
  "bytecode": "0x608060405234801561001057600080fd5b50336000806101000a81548173ffffffffffffffffffffffffffffffffffffffff021916908373ffffffffffffffffffffffffffffffffffffffff1602179055506130cb806100606000396000f3fe608060405234801561001057600080fd5b50600436106100a95760003560e01c80634c2eadc3116100715780634c2eadc31461013a578063763c10ed1461016c5780639f56854e14610188578063c844e462146101a4578063cc16c478146101c0578063df5262a7146101dc576100a9565b80631b9e1c1b146100ae5780631bc1f5f0146100ca578063224e788f146100e6578063447ac2d914610102578063450944281461011e575b600080fd5b6100c860048036036100c39190810190612077565b61020e565b005b6100e460048036036100df919081019061219a565b610613565b005b61010060048036036100fb91908101906123fd565b6107e7565b005b61011c600480360361011791908101906122d7565b610ae3565b005b61013860048036036101339190810190612260565b610f08565b005b610154600480360361014f9190810190612439565b610f71565b60405161016393929190612d1d565b60405180910390f35b6101866004803603610181919081019061257c565b6110ec565b005b6101a2600480360361019d91908101906124a5565b611434565b005b6101be60048036036101b991908101906121fd565b611702565b005b6101da60048036036101d591908101906125fb565b6118e4565b005b6101f660048036036101f19190810190612439565b611b82565b60405161020593929190612d1d565b60405180910390f35b80156105ab57600360008a81526020019081526020016000206040518061014001604052808c81526020018b81526020018a81526020018981526020018881526020018763ffffffff1681526020018663ffffffff1681526020018563ffffffff1681526020018463ffffffff1681526020016000151581525090806001815401808255809150509060018203906000526020600020906006020160009091929091909150600082015181600001556020820151816001015560408201518160020190805190602001906102e3929190611cfd565b506060820151816003019080519060200190610300929190611cfd565b50608082015181600401908051906020019061031d929190611cfd565b5060a08201518160050160006101000a81548163ffffffff021916908363ffffffff16021790555060c08201518160050160046101000a81548163ffffffff021916908363ffffffff16021790555060e08201518160050160086101000a81548163ffffffff021916908363ffffffff16021790555061010082015181600501600c6101000a81548163ffffffff021916908363ffffffff1602179055506101208201518160050160106101000a81548160ff021916908315150217905550505050600460008b81526020019081526020016000206040518061014001604052808c81526020018b81526020018a81526020018981526020018881526020018763ffffffff1681526020018663ffffffff1681526020018563ffffffff1681526020018463ffffffff1681526020016000151581525090806001815401808255809150509060018203906000526020600020906006020160009091929091909150600082015181600001556020820151816001015560408201518160020190805190602001906104ae929190611cfd565b5060608201518160030190805190602001906104cb929190611cfd565b5060808201518160040190805190602001906104e8929190611cfd565b5060a08201518160050160006101000a81548163ffffffff021916908363ffffffff16021790555060c08201518160050160046101000a81548163ffffffff021916908363ffffffff16021790555060e08201518160050160086101000a81548163ffffffff021916908363ffffffff16021790555061010082015181600501600c6101000a81548163ffffffff021916908363ffffffff1602179055506101208201518160050160106101000a81548160ff0219169083151502179055505050505b7f48c71e3760d25c9734a027d6c1ab38250cdbafcf3fe5310c097e1f234340a5696000809054906101000a900473ffffffffffffffffffffffffffffffffffffffff168a836040516105ff93929190612c02565b60405180910390a150505050505050505050565b6000600160036000878152602001908152602001600020805490500390505b60008163ffffffff16106106f9578263ffffffff16600360008781526020019081526020016000208263ffffffff168154811061066b57fe5b906000526020600020906006020160050160009054906101000a900463ffffffff1663ffffffff1614156106eb5781600360008781526020019081526020016000208263ffffffff16815481106106be57fe5b906000526020600020906006020160050160106101000a81548160ff0219169083151502179055506106f9565b808060019003915050610632565b506000600160046000868152602001908152602001600020805490500390505b60008163ffffffff16106107e0578263ffffffff16600460008681526020019081526020016000208263ffffffff168154811061075257fe5b906000526020600020906006020160050160009054906101000a900463ffffffff1663ffffffff1614156107d25781600460008681526020019081526020016000208263ffffffff16815481106107a557fe5b906000526020600020906006020160050160106101000a81548160ff0219169083151502179055506107e0565b808060019003915050610719565b5050505050565b600660006107f59190611d7d565b6000600160046000858152602001908152602001600020805490500390505b60008163ffffffff1610610a81578163ffffffff16600460008581526020019081526020016000208263ffffffff168154811061084d57fe5b906000526020600020906006020160050160009054906101000a900463ffffffff1663ffffffff161415610a73576006600460008581526020019081526020016000208263ffffffff16815481106108a157fe5b906000526020600020906006020190806001815401808255809150509060018203906000526020600020906006020160009091929091909150600082015481600001556001820154816001015560028201816002019080546001816001161561010002031660029004610915929190611da1565b506003820181600301908054600181600116156101000203166002900461093d929190611da1565b5060048201816004019080546001816001161561010002031660029004610965929190611da1565b506005820160009054906101000a900463ffffffff168160050160006101000a81548163ffffffff021916908363ffffffff1602179055506005820160049054906101000a900463ffffffff168160050160046101000a81548163ffffffff021916908363ffffffff1602179055506005820160089054906101000a900463ffffffff168160050160086101000a81548163ffffffff021916908363ffffffff16021790555060058201600c9054906101000a900463ffffffff1681600501600c6101000a81548163ffffffff021916908363ffffffff1602179055506005820160109054906101000a900460ff168160050160106101000a81548160ff0219169083151502179055505050505b808060019003915050610814565b507f12884e97e7d7b0125aaef14fd9ac19971de24dabe4ca548fcfcb50c3d37737f36000809054906101000a900473ffffffffffffffffffffffffffffffffffffffff16836006604051610ad793929190612bc4565b60405180910390a15050565b6000600189604051610af59190612b09565b9081526020016040518091039020600001549050600360008281526020019081526020016000206040518061014001604052808c81526020018381526020018a81526020018981526020018881526020018763ffffffff1681526020018663ffffffff1681526020018563ffffffff1681526020018463ffffffff168152602001600015158152509080600181540180825580915050906001820390600052602060002090600602016000909192909190915060008201518160000155602082015181600101556040820151816002019080519060200190610bd8929190611cfd565b506060820151816003019080519060200190610bf5929190611cfd565b506080820151816004019080519060200190610c12929190611cfd565b5060a08201518160050160006101000a81548163ffffffff021916908363ffffffff16021790555060c08201518160050160046101000a81548163ffffffff021916908363ffffffff16021790555060e08201518160050160086101000a81548163ffffffff021916908363ffffffff16021790555061010082015181600501600c6101000a81548163ffffffff021916908363ffffffff1602179055506101208201518160050160106101000a81548160ff021916908315150217905550505050600460008b81526020019081526020016000206040518061014001604052808c81526020018381526020018a81526020018981526020018881526020018763ffffffff1681526020018663ffffffff1681526020018563ffffffff1681526020018463ffffffff168152602001600015158152509080600181540180825580915050906001820390600052602060002090600602016000909192909190915060008201518160000155602082015181600101556040820151816002019080519060200190610da3929190611cfd565b506060820151816003019080519060200190610dc0929190611cfd565b506080820151816004019080519060200190610ddd929190611cfd565b5060a08201518160050160006101000a81548163ffffffff021916908363ffffffff16021790555060c08201518160050160046101000a81548163ffffffff021916908363ffffffff16021790555060e08201518160050160086101000a81548163ffffffff021916908363ffffffff16021790555061010082015181600501600c6101000a81548163ffffffff021916908363ffffffff1602179055506101208201518160050160106101000a81548160ff0219169083151502179055505050507f48c71e3760d25c9734a027d6c1ab38250cdbafcf3fe5310c097e1f234340a5696000809054906101000a900473ffffffffffffffffffffffffffffffffffffffff16826001604051610ef493929190612c02565b60405180910390a150505050505050505050565b7fd1734fd516d013f71564198d4f4b4fdaf91e280558fb732201fb43da3a2a03a06000809054906101000a900473ffffffffffffffffffffffffffffffffffffffff168686868686604051610f6296959493929190612c39565b60405180910390a15050505050565b606060008084604051602001610f879190612b09565b60405160208183030381529060405280519060200120600186604051610fad9190612b09565b9081526020016040518091039020600301604051602001610fce9190612bad565b6040516020818303038152906040528051906020012014801561105c575083604051602001610ffd9190612b09565b604051602081830303815290604052805190602001206001866040516110239190612b09565b90815260200160405180910390206004016040516020016110449190612bad565b60405160208183030381529060405280519060200120145b156110c8576001856040516110719190612b09565b90815260200160405180910390206000015460016040518060400160405280600681526020017f636c69656e74000000000000000000000000000000000000000000000000000081525091909250925092506110e5565b600060405180602001604052806000815250906000909250925092505b9250925092565b600660006110fa9190611d7d565b60006003600060016005876040516111129190612b09565b908152602001604051809103902060405161112d9190612bad565b9081526020016040518091039020600001548152602001908152602001600020805490509050600060016005866040516111679190612b09565b90815260200160405180910390206040516111829190612bad565b908152602001604051809103902060000154905060006001830390505b83600184030363ffffffff168163ffffffff1611806111c5575060008163ffffffff1610155b156113cf576006600360008481526020019081526020016000208263ffffffff16815481106111f057fe5b906000526020600020906006020190806001815401808255809150509060018203906000526020600020906006020160009091929091909150600082015481600001556001820154816001015560028201816002019080546001816001161561010002031660029004611264929190611da1565b506003820181600301908054600181600116156101000203166002900461128c929190611da1565b50600482018160040190805460018160011615610100020316600290046112b4929190611da1565b506005820160009054906101000a900463ffffffff168160050160006101000a81548163ffffffff021916908363ffffffff1602179055506005820160049054906101000a900463ffffffff168160050160046101000a81548163ffffffff021916908363ffffffff1602179055506005820160089054906101000a900463ffffffff168160050160086101000a81548163ffffffff021916908363ffffffff16021790555060058201600c9054906101000a900463ffffffff1681600501600c6101000a81548163ffffffff021916908363ffffffff1602179055506005820160109054906101000a900460ff168160050160106101000a81548160ff02191690831515021790555050505080806001900391505061119f565b507f4ece7e9377faaf263dbebe11d20005c475e4c46b39d63db9c8e9af21116dbe2c6000809054906101000a900473ffffffffffffffffffffffffffffffffffffffff1685600660405161142593929190612c9a565b60405180910390a15050505050565b60006001846040516114469190612b09565b9081526020016040518091039020600301805460018160011615610100020316600290049050141561169d576000858585858560405160200161148d959493929190612b5e565b604051602081830303815290604052805190602001209050604051806101000160405280828152602001878152602001868152602001858152602001848152602001600063ffffffff168152602001600063ffffffff1681526020018363ffffffff168152506001856040516115039190612b09565b9081526020016040518091039020600082015181600001556020820151816001019080519060200190611537929190611cfd565b506040820151816002019080519060200190611554929190611cfd565b506060820151816003019080519060200190611571929190611cfd565b50608082015181600401908051906020019061158e929190611cfd565b5060a08201518160050160006101000a81548163ffffffff021916908363ffffffff16021790555060c08201518160050160046101000a81548163ffffffff021916908363ffffffff16021790555060e08201518160050160086101000a81548163ffffffff021916908363ffffffff160217905550905050836005876040516116189190612b09565b90815260200160405180910390209080519060200190611639929190611e28565b507f6ee1dfbc2e7f960e232ec0fc4ffbdbee8ff8ecf493e10dc7f8171b809ffb64396000809054906101000a900473ffffffffffffffffffffffffffffffffffffffff1687600160405161168f93929190612cdf565b60405180910390a1506116fb565b7f6ee1dfbc2e7f960e232ec0fc4ffbdbee8ff8ecf493e10dc7f8171b809ffb64396000809054906101000a900473ffffffffffffffffffffffffffffffffffffffff168660006040516116f293929190612cdf565b60405180910390a15b5050505050565b6000600160036000878152602001908152602001600020805490500390505b60008163ffffffff16106117ef578263ffffffff16600360008781526020019081526020016000208263ffffffff168154811061175a57fe5b906000526020600020906006020160050160009054906101000a900463ffffffff1663ffffffff1614156117e15781600360008781526020019081526020016000208263ffffffff16815481106117ad57fe5b9060005260206000209060060201600501600c6101000a81548163ffffffff021916908363ffffffff1602179055506117ef565b808060019003915050611721565b506000600160046000868152602001908152602001600020805490500390505b60008163ffffffff16106118dd578263ffffffff16600460008681526020019081526020016000208263ffffffff168154811061184857fe5b906000526020600020906006020160050160009054906101000a900463ffffffff1663ffffffff1614156118cf5781600460008681526020019081526020016000208263ffffffff168154811061189b57fe5b9060005260206000209060060201600501600c6101000a81548163ffffffff021916908363ffffffff1602179055506118dd565b80806001900391505061180f565b5050505050565b60006002876040516118f69190612b09565b90815260200160405180910390206003018054600181600116156101000203166002900490501415611b1a5760008389888860405160200161193b9493929190612b20565b6040516020818303038152906040528051906020012090506040518061012001604052808281526020018963ffffffff1681526020018a8152602001888152602001878152602001868152602001858152602001848152602001838152506002886040516119a99190612b09565b90815260200160405180910390206000820151816000015560208201518160010160006101000a81548163ffffffff021916908363ffffffff1602179055506040820151816002019080519060200190611a04929190611cfd565b506060820151816003019080519060200190611a21929190611cfd565b506080820151816004019080519060200190611a3e929190611cfd565b5060a0820151816005019080519060200190611a5b929190611cfd565b5060c0820151816006019080519060200190611a78929190611cfd565b5060e0820151816007019080519060200190611a95929190611cfd565b50610100820151816008019080519060200190611ab3929190611cfd565b509050507f4058f139981afbe299fb17362c672999234af2793279fc0d8ab29fdec123a81e6000809054906101000a900473ffffffffffffffffffffffffffffffffffffffff16856001604051611b0c93929190612cdf565b60405180910390a150611b78565b7f4058f139981afbe299fb17362c672999234af2793279fc0d8ab29fdec123a81e6000809054906101000a900473ffffffffffffffffffffffffffffffffffffffff16846000604051611b6f93929190612cdf565b60405180910390a15b5050505050505050565b606060008084604051602001611b989190612b09565b60405160208183030381529060405280519060200120600286604051611bbe9190612b09565b9081526020016040518091039020600301604051602001611bdf9190612bad565b60405160208183030381529060405280519060200120148015611c6d575083604051602001611c0e9190612b09565b60405160208183030381529060405280519060200120600286604051611c349190612b09565b9081526020016040518091039020600401604051602001611c559190612bad565b60405160208183030381529060405280519060200120145b15611cd957600285604051611c829190612b09565b90815260200160405180910390206000015460016040518060400160405280600481526020017f636f6d70000000000000000000000000000000000000000000000000000000008152509190925092509250611cf6565b600060405180602001604052806000815250906000909250925092505b9250925092565b828054600181600116156101000203166002900490600052602060002090601f016020900481019282601f10611d3e57805160ff1916838001178555611d6c565b82800160010185558215611d6c579182015b82811115611d6b578251825591602001919060010190611d50565b5b509050611d799190611ea8565b5090565b5080546000825560060290600052602060002090810190611d9e9190611ecd565b50565b828054600181600116156101000203166002900490600052602060002090601f016020900481019282601f10611dda5780548555611e17565b82800160010185558215611e1757600052602060002091601f016020900482015b82811115611e16578254825591600101919060010190611dfb565b5b509050611e249190611ea8565b5090565b828054600181600116156101000203166002900490600052602060002090601f016020900481019282601f10611e6957805160ff1916838001178555611e97565b82800160010185558215611e97579182015b82811115611e96578251825591602001919060010190611e7b565b5b509050611ea49190611ea8565b5090565b611eca91905b80821115611ec6576000816000905550600101611eae565b5090565b90565b611f9991905b80821115611f95576000808201600090556001820160009055600282016000611efc9190611f9c565b600382016000611f0c9190611f9c565b600482016000611f1c9190611f9c565b6005820160006101000a81549063ffffffff02191690556005820160046101000a81549063ffffffff02191690556005820160086101000a81549063ffffffff021916905560058201600c6101000a81549063ffffffff02191690556005820160106101000a81549060ff021916905550600601611ed3565b5090565b90565b50805460018160011615610100020316600290046000825580601f10611fc25750611fe1565b601f016020900490600052602060002090810190611fe09190611ea8565b5b50565b600081359050611ff381613043565b92915050565b6000813590506120088161305a565b92915050565b600082601f83011261201f57600080fd5b813561203261202d82612d88565b612d5b565b9150808252602083016020830185838301111561204e57600080fd5b612059838284612ef4565b50505092915050565b60008135905061207181613071565b92915050565b6000806000806000806000806000806101408b8d03121561209757600080fd5b60006120a58d828e01611ff9565b9a505060206120b68d828e01611ff9565b99505060408b013567ffffffffffffffff8111156120d357600080fd5b6120df8d828e0161200e565b98505060608b013567ffffffffffffffff8111156120fc57600080fd5b6121088d828e0161200e565b97505060808b013567ffffffffffffffff81111561212557600080fd5b6121318d828e0161200e565b96505060a06121428d828e01612062565b95505060c06121538d828e01612062565b94505060e06121648d828e01612062565b9350506101006121768d828e01612062565b9250506101206121888d828e01611fe4565b9150509295989b9194979a5092959850565b600080600080608085870312156121b057600080fd5b60006121be87828801611ff9565b94505060206121cf87828801611ff9565b93505060406121e087828801612062565b92505060606121f187828801611fe4565b91505092959194509250565b6000806000806080858703121561221357600080fd5b600061222187828801611ff9565b945050602061223287828801611ff9565b935050604061224387828801612062565b925050606061225487828801612062565b91505092959194509250565b600080600080600060a0868803121561227857600080fd5b600061228688828901611ff9565b955050602061229788828901611ff9565b94505060406122a888828901612062565b93505060606122b988828901612062565b92505060806122ca88828901612062565b9150509295509295909350565b60008060008060008060008060006101208a8c0312156122f657600080fd5b60006123048c828d01611ff9565b99505060208a013567ffffffffffffffff81111561232157600080fd5b61232d8c828d0161200e565b98505060408a013567ffffffffffffffff81111561234a57600080fd5b6123568c828d0161200e565b97505060608a013567ffffffffffffffff81111561237357600080fd5b61237f8c828d0161200e565b96505060808a013567ffffffffffffffff81111561239c57600080fd5b6123a88c828d0161200e565b95505060a06123b98c828d01612062565b94505060c06123ca8c828d01612062565b93505060e06123db8c828d01612062565b9250506101006123ed8c828d01612062565b9150509295985092959850929598565b6000806040838503121561241057600080fd5b600061241e85828601611ff9565b925050602061242f85828601612062565b9150509250929050565b6000806040838503121561244c57600080fd5b600083013567ffffffffffffffff81111561246657600080fd5b6124728582860161200e565b925050602083013567ffffffffffffffff81111561248f57600080fd5b61249b8582860161200e565b9150509250929050565b600080600080600060a086880312156124bd57600080fd5b600086013567ffffffffffffffff8111156124d757600080fd5b6124e38882890161200e565b955050602086013567ffffffffffffffff81111561250057600080fd5b61250c8882890161200e565b945050604086013567ffffffffffffffff81111561252957600080fd5b6125358882890161200e565b935050606086013567ffffffffffffffff81111561255257600080fd5b61255e8882890161200e565b925050608061256f88828901612062565b9150509295509295909350565b60008060006060848603121561259157600080fd5b600084013567ffffffffffffffff8111156125ab57600080fd5b6125b78682870161200e565b935050602084013567ffffffffffffffff8111156125d457600080fd5b6125e08682870161200e565b92505060406125f186828701612062565b9150509250925092565b600080600080600080600080610100898b03121561261857600080fd5b600089013567ffffffffffffffff81111561263257600080fd5b61263e8b828c0161200e565b985050602061264f8b828c01612062565b975050604089013567ffffffffffffffff81111561266c57600080fd5b6126788b828c0161200e565b965050606089013567ffffffffffffffff81111561269557600080fd5b6126a18b828c0161200e565b955050608089013567ffffffffffffffff8111156126be57600080fd5b6126ca8b828c0161200e565b94505060a089013567ffffffffffffffff8111156126e757600080fd5b6126f38b828c0161200e565b93505060c089013567ffffffffffffffff81111561271057600080fd5b61271c8b828c0161200e565b92505060e089013567ffffffffffffffff81111561273957600080fd5b6127458b828c0161200e565b9150509295985092959890939650565b600061276183836129af565b905092915050565b61277281612eac565b82525050565b600061278382612dde565b61278d8185612e01565b93508360208202850161279f85612db4565b8060005b858110156127da578484038952816127bb8582612755565b94506127c683612df4565b925060208a019950506001810190506127a3565b50829750879550505050505092915050565b6127f581612e66565b82525050565b61280481612e66565b82525050565b61281381612e72565b82525050565b61282281612e72565b82525050565b600061283382612de9565b61283d8185612e23565b935061284d818560208601612f03565b61285681612fe4565b840191505092915050565b600061286c82612de9565b6128768185612e34565b9350612886818560208601612f03565b80840191505092915050565b6000815460018116600081146128af57600181146128d557612919565b607f60028304166128c08187612e12565b955060ff198316865260208601935050612919565b600282046128e38187612e12565b95506128ee85612dc9565b60005b82811015612910578154818901526001820191506020810190506128f1565b80880195505050505b505092915050565b60008154600181166000811461293e5760018114612963576129a7565b607f600283041661294f8187612e34565b955060ff19831686528086019350506129a7565b600282046129718187612e34565b955061297c85612dc9565b60005b8281101561299e5781548189015260018201915060208101905061297f565b82880195505050505b505092915050565b6000610140830160008084015490506129c781612f36565b6129d4600087018261280a565b50600184015490506129e581612f36565b6129f2602087018261280a565b50600284018583036040870152612a098382612892565b925050600384018583036060870152612a228382612892565b925050600484018583036080870152612a3b8382612892565b92505060058401549050612a4e81612f50565b612a5b60a0870182612ad4565b50612a6581612f9e565b612a7260c0870182612ad4565b50612a7c81612fb8565b612a8960e0870182612ad4565b50612a9381612f6a565b612aa1610100870182612ad4565b50612aab81612f84565b612ab96101208701826127ec565b50819250505092915050565b612ace81612ee2565b82525050565b612add81612e9c565b82525050565b612aec81612e9c565b82525050565b612b03612afe82612e9c565b612fd2565b82525050565b6000612b158284612861565b915081905092915050565b6000612b2c8287612861565b9150612b388286612861565b9150612b448285612861565b9150612b508284612861565b915081905095945050505050565b6000612b6a8288612861565b9150612b768287612861565b9150612b828286612861565b9150612b8e8285612861565b9150612b9a8284612af2565b6004820191508190509695505050505050565b6000612bb98284612921565b915081905092915050565b6000606082019050612bd96000830186612769565b612be66020830185612819565b8181036040830152612bf88184612778565b9050949350505050565b6000606082019050612c176000830186612769565b612c246020830185612819565b612c3160408301846127fb565b949350505050565b600060c082019050612c4e6000830189612769565b612c5b6020830188612819565b612c686040830187612819565b612c756060830186612ae3565b612c826080830185612ae3565b612c8f60a0830184612ac5565b979650505050505050565b6000606082019050612caf6000830186612769565b8181036020830152612cc18185612828565b90508181036040830152612cd58184612778565b9050949350505050565b6000606082019050612cf46000830186612769565b8181036020830152612d068185612828565b9050612d1560408301846127fb565b949350505050565b60006060820190508181036000830152612d378186612828565b9050612d466020830185612819565b612d5360408301846127fb565b949350505050565b6000604051905081810181811067ffffffffffffffff82111715612d7e57600080fd5b8060405250919050565b600067ffffffffffffffff821115612d9f57600080fd5b601f19601f8301169050602081019050919050565b60008190508160005260206000209050919050565b60008190508160005260206000209050919050565b600081549050919050565b600081519050919050565b6000600682019050919050565b600082825260208201905092915050565b600082825260208201905092915050565b600082825260208201905092915050565b600081905092915050565b600060ff82169050919050565b6000819050919050565b600063ffffffff82169050919050565b60008115159050919050565b6000819050919050565b600073ffffffffffffffffffffffffffffffffffffffff82169050919050565b600063ffffffff82169050919050565b6000612eb782612ebe565b9050919050565b6000612ec982612ed0565b9050919050565b6000612edb82612e7c565b9050919050565b6000612eed82612e9c565b9050919050565b82818337600083830152505050565b60005b83811015612f21578082015181840152602081019050612f06565b83811115612f30576000848401525b50505050565b6000612f49612f4483613002565b612e4c565b9050919050565b6000612f63612f5e83613002565b612e56565b9050919050565b6000612f7d612f7883613036565b612e56565b9050919050565b6000612f97612f928361300f565b612e3f565b9050919050565b6000612fb1612fac8361301c565b612e56565b9050919050565b6000612fcb612fc683613029565b612e56565b9050919050565b6000612fdd82612ff5565b9050919050565b6000601f19601f8301169050919050565b60008160e01b9050919050565b60008160001c9050919050565b60008160801c9050919050565b60008160201c9050919050565b60008160401c9050919050565b60008160601c9050919050565b61304c81612e66565b811461305757600080fd5b50565b61306381612e72565b811461306e57600080fd5b50565b61307a81612e9c565b811461308557600080fd5b5056fea365627a7a72315820e0332558eda922f6a6f04a1375bff1219e1a0f376e4183900d82309bdd7334156c6578706572696d656e74616cf564736f6c634300050c0040",
  "source": "pragma solidity >=0.4.25 <0.7.0;\r\npragma experimental ABIEncoderV2;\r\n\r\ncontract NoNoShow{\r\n  // DB  \r\n  address payable creator;\r\n  struct books{\r\n    bytes32 compID;\r\n    bytes32 keyID;\r\n    string compName; // \r\n    string custName; //  \r\n    string custPN; //  \r\n    uint32 date; // 20201414\r\n    uint32 time; // 1130\r\n    uint32 personnel; // \r\n    uint32 bookState; // 0 , 1 , 2 \r\n    bool isShow; // false true\r\n  }\r\n\r\n  // DB\r\n  struct custDB{\r\n    bytes32 keyID; // + \r\n    string phoneNumber;\r\n    string name;\r\n    string ID;\r\n    string PW;\r\n    uint32 showCnt;\r\n    uint32 noShowCnt;\r\n    uint32 age;\r\n    // ,    \r\n  }\r\n  struct compDB{//comp  company\r\n    bytes32 compID;\r\n    uint32 startTime; // \r\n    string comName;\r\n    string ID;\r\n    string PW;\r\n    string addr; //  \r\n    string phoneNumber; //  \r\n    string img; //   \r\n    string description; //  \r\n    //      \r\n  }\r\n  mapping(string=>custDB) userCust;//   DB\r\n  mapping(string=>compDB) userComp;//   DB\r\n  mapping(bytes32=>books[]) LedgerDB;//      DB\r\n  mapping(bytes32=>books[]) compBooks;// c.f.)        DB\r\n  mapping(string=>string) userID_finder; // phoneNumber => ID\r\n  books[] resBooks; //      \r\n  //    : mapping(=>) , string[]       \r\n  //   (       .)\r\n\r\n  //    \r\n  event custSignUpEvent(address from, string to, bool pass);\r\n  event compSignUpEvent(address from, string to, bool pass);\r\n\r\n  //    \r\n  event alertToCompEvent(address from, bytes32 keyID,bytes32 compID, uint32 date, uint32 time, uint personnel);\r\n  event alertToCustEvent(address from, bytes32 keyID, bool ack);\r\n\r\n  //    \r\n  event checkBookListEvent(address from, bytes32 compID,books[] bookList);\r\n  event checkNoShowListEvent(address from, string to, books[] noShowList);\r\n\r\n  // \r\n  constructor () public{\r\n    creator = msg.sender; //    creator     .\r\n  }\r\n\r\n  // \r\n  function custSignUp(string memory phoneNumber,string memory name,string memory id, string memory pw, uint32 age) public{\r\n    if(bytes(userCust[id].ID).length==0){//   ,    ID 0  \r\n      //c.f.)     delete userCust[phoneNumber]  \r\n      bytes32 keyID = keccak256( abi.encodePacked( phoneNumber,name,id,pw,age ) );\r\n      userCust[id] = custDB(keyID,phoneNumber,name,id,pw,0,0,age); // keyID , +\"1234\"  .\r\n      userID_finder[phoneNumber] = id;\r\n      emit custSignUpEvent(creator,phoneNumber,true);\r\n      return;\r\n    }else{\r\n        emit custSignUpEvent(creator,phoneNumber,false);\r\n        return;\r\n    }\r\n  }\r\n  function custLogIn(string memory id, string memory pw) public view returns(string memory,bytes32 keyID,bool pass){//\r\n    if(keccak256(abi.encodePacked((userCust[id].ID)))  == keccak256(abi.encodePacked((id))) && keccak256(abi.encodePacked((userCust[id].PW))) == keccak256(abi.encodePacked((pw)))){\r\n      return (\"client\",userCust[id].keyID,true);\r\n    }\r\n    return (\"\",\"\",false);\r\n  }\r\n  function book(bytes32 keyID,bytes32 compID,uint32 date, uint32 time, uint32 personnel)public{\r\n    emit alertToCompEvent(creator,keyID,compID,date,time, personnel); //    .  Tx   .\r\n  }\r\n  // \r\n  function compSignUp(string memory compName,uint32 startTime, string memory id, string memory pw ,string memory addr,string memory phoneNumber, string memory img, string memory description) public {\r\n    if(bytes(userComp[id].ID).length==0){//   ,    ID 0  \r\n      //c.f.)     delete userCust[phoneNumber]  \r\n      bytes32 compID = keccak256( abi.encodePacked( phoneNumber,compName,id,pw ) );\r\n      userComp[id] = compDB(compID, startTime, compName, id, pw, addr, phoneNumber, img, description);\r\n      emit compSignUpEvent(creator, phoneNumber, true);\r\n    }else{\r\n      emit compSignUpEvent(creator, phoneNumber, false);\r\n    }\r\n  }\r\n  //function changeCompInfo() =>        .\r\n\r\n  function compLogIn(string memory id, string memory pw) public view returns(string memory,bytes32 compID, bool pass){ //    ..\r\n    if(keccak256(abi.encodePacked((userComp[id].ID)))  == keccak256(abi.encodePacked((id))) && keccak256(abi.encodePacked((userComp[id].PW))) == keccak256(abi.encodePacked((pw)))){\r\n      return (\"comp\",userComp[id].compID,true); //     keccack256  .(string  )\r\n    }\r\n    return (\"\",\"\",false);\r\n  }\r\n  ////   \r\n  function bookList(bytes32 compID,uint32 date) public { //  ID     \r\n    delete resBooks;\r\n    for(uint32 i = uint32(compBooks[compID].length-1);i>=0;i--){\r\n        if(compBooks[compID][i].date == date){\r\n            resBooks.push(compBooks[compID][i]);\r\n        }\r\n    }\r\n    emit checkBookListEvent(creator, compID, resBooks);\r\n  }\r\n  function ackBook(bytes32 compID,bytes32 keyID,string memory compName,string memory custName, string memory custPN, uint32 date,uint32 time,uint32 personnel,uint32 bookState, bool ack) public{\r\n    if(ack){\r\n      LedgerDB[keyID].push(books(compID,keyID,compName,custName,custPN,date,time,personnel,bookState, false));\r\n      compBooks[compID].push(books(compID,keyID,compName,custName,custPN,date,time,personnel,bookState, false));\r\n    }\r\n    emit alertToCustEvent(creator, keyID, ack);\r\n  }\r\n  // ,   \r\n  function resBook(bytes32 keyID,bytes32 compID, uint32 date, bool isShow) public{ //     \r\n    for(uint32 i = uint32(LedgerDB[keyID].length - 1);i>=0;i--){\r\n        if(LedgerDB[keyID][i].date == date){\r\n            LedgerDB[keyID][i].isShow = isShow;\r\n            break;\r\n        }\r\n    }\r\n    for(uint32 i = uint32(compBooks[compID].length - 1);i>=0;i--){\r\n        if(compBooks[compID][i].date == date){\r\n            compBooks[compID][i].isShow = isShow;\r\n            break;\r\n        }\r\n    }\r\n  }\r\n  //     \r\n  function waitBook(bytes32 keyID,bytes32 compID, uint32 date, uint32 bookState) public{ //     \r\n    for(uint32 i = uint32(LedgerDB[keyID].length - 1);i>=0;i--){\r\n        if(LedgerDB[keyID][i].date == date){\r\n            LedgerDB[keyID][i].bookState = bookState;\r\n            break;\r\n        }\r\n    }\r\n    for(uint32 i = uint32(compBooks[compID].length - 1);i>=0;i--){\r\n        if(compBooks[compID][i].date == date){\r\n            compBooks[compID][i].bookState = bookState;\r\n            break;\r\n        }\r\n    }\r\n  }\r\n\r\n  //   \r\n  function callBook(bytes32 compID,string memory phoneNumber,string memory compName,string memory custName, string memory custPN, uint32 date,uint32 time, uint32 personnel,uint32 bookState) public {//     \r\n    bytes32 keyID = userCust[phoneNumber].keyID;\r\n    LedgerDB[keyID].push(books(compID,keyID,compName,custName,custPN,date,time,personnel,bookState,false));\r\n    compBooks[compID].push(books(compID,keyID,compName,custName,custPN,date,time,personnel,bookState,false));\r\n    emit alertToCustEvent(creator, keyID, true);\r\n  }\r\n\r\n  //   \r\n  function checkUser(string memory phoneNumber,string memory callerPN ,uint32 idx) public { //     \r\n    delete resBooks;\r\n    uint32 bookLength = uint32(LedgerDB[userCust[userID_finder[phoneNumber]].keyID].length);\r\n    bytes32 keyID = userCust[userID_finder[phoneNumber]].keyID;\r\n    for(uint32 i = bookLength - 1;i>bookLength-1-idx || i>=0;i--){\r\n        resBooks.push(LedgerDB[keyID][i]);\r\n    }\r\n    emit checkNoShowListEvent(creator,callerPN,resBooks);\r\n  }\r\n}\r\n",
  "sourcePath": "E:/HDD//0/20-1 / 1/nonoShow/Solidity_API_Smart_Contract/contracts/NoNoShow.sol",
  "compiler": {
    "name": "solc",
    "version": "0.5.12+commit.7709ece9.Emscripten.clang"
  },
  "schemaVersion": "3.0.19",
  "updatedAt": "2020-07-09T04:30:47.262Z",
  "devdoc": {
    "methods": {}
  },
  "userdoc": {
    "methods": {
      "bookList(bytes32,uint32)": {
        "notice": "/   "
      }
    }
  }
}