{
  "contractName": "NoNoShow",
  "abi": [
    {
      "inputs": [],
      "payable": false,
      "stateMutability": "nonpayable",
      "type": "constructor"
    },
    {
      "anonymous": false,
      "inputs": [
        {
          "indexed": false,
          "internalType": "address",
          "name": "from",
          "type": "address"
        },
        {
          "indexed": false,
          "internalType": "bytes32",
          "name": "keyID",
          "type": "bytes32"
        },
        {
          "indexed": false,
          "internalType": "bytes32",
          "name": "compID",
          "type": "bytes32"
        },
        {
          "indexed": false,
          "internalType": "uint32",
          "name": "date",
          "type": "uint32"
        },
        {
          "indexed": false,
          "internalType": "uint32",
          "name": "time",
          "type": "uint32"
        },
        {
          "indexed": false,
          "internalType": "uint256",
          "name": "personnel",
          "type": "uint256"
        }
      ],
      "name": "alertToCompEvent",
      "type": "event"
    },
    {
      "anonymous": false,
      "inputs": [
        {
          "indexed": false,
          "internalType": "address",
          "name": "from",
          "type": "address"
        },
        {
          "indexed": false,
          "internalType": "bytes32",
          "name": "keyID",
          "type": "bytes32"
        },
        {
          "indexed": false,
          "internalType": "bool",
          "name": "ack",
          "type": "bool"
        }
      ],
      "name": "alertToCustEvent",
      "type": "event"
    },
    {
      "anonymous": false,
      "inputs": [
        {
          "indexed": false,
          "internalType": "address",
          "name": "from",
          "type": "address"
        },
        {
          "indexed": false,
          "internalType": "bytes32",
          "name": "compID",
          "type": "bytes32"
        },
        {
          "components": [
            {
              "internalType": "bytes32",
              "name": "compID",
              "type": "bytes32"
            },
            {
              "internalType": "bytes32",
              "name": "keyID",
              "type": "bytes32"
            },
            {
              "internalType": "string",
              "name": "compName",
              "type": "string"
            },
            {
              "internalType": "string",
              "name": "custName",
              "type": "string"
            },
            {
              "internalType": "string",
              "name": "custPN",
              "type": "string"
            },
            {
              "internalType": "uint32",
              "name": "date",
              "type": "uint32"
            },
            {
              "internalType": "uint32",
              "name": "time",
              "type": "uint32"
            },
            {
              "internalType": "uint32",
              "name": "personnel",
              "type": "uint32"
            },
            {
              "internalType": "uint32",
              "name": "bookState",
              "type": "uint32"
            },
            {
              "internalType": "bool",
              "name": "isShow",
              "type": "bool"
            }
          ],
          "indexed": false,
          "internalType": "struct NoNoShow.books[]",
          "name": "bookList",
          "type": "tuple[]"
        }
      ],
      "name": "checkBookListEvent",
      "type": "event"
    },
    {
      "anonymous": false,
      "inputs": [
        {
          "indexed": false,
          "internalType": "address",
          "name": "from",
          "type": "address"
        },
        {
          "indexed": false,
          "internalType": "string",
          "name": "to",
          "type": "string"
        },
        {
          "components": [
            {
              "internalType": "bytes32",
              "name": "compID",
              "type": "bytes32"
            },
            {
              "internalType": "bytes32",
              "name": "keyID",
              "type": "bytes32"
            },
            {
              "internalType": "string",
              "name": "compName",
              "type": "string"
            },
            {
              "internalType": "string",
              "name": "custName",
              "type": "string"
            },
            {
              "internalType": "string",
              "name": "custPN",
              "type": "string"
            },
            {
              "internalType": "uint32",
              "name": "date",
              "type": "uint32"
            },
            {
              "internalType": "uint32",
              "name": "time",
              "type": "uint32"
            },
            {
              "internalType": "uint32",
              "name": "personnel",
              "type": "uint32"
            },
            {
              "internalType": "uint32",
              "name": "bookState",
              "type": "uint32"
            },
            {
              "internalType": "bool",
              "name": "isShow",
              "type": "bool"
            }
          ],
          "indexed": false,
          "internalType": "struct NoNoShow.books[]",
          "name": "noShowList",
          "type": "tuple[]"
        }
      ],
      "name": "checkNoShowListEvent",
      "type": "event"
    },
    {
      "anonymous": false,
      "inputs": [
        {
          "indexed": false,
          "internalType": "address",
          "name": "from",
          "type": "address"
        },
        {
          "indexed": false,
          "internalType": "string",
          "name": "to",
          "type": "string"
        },
        {
          "indexed": false,
          "internalType": "bool",
          "name": "pass",
          "type": "bool"
        }
      ],
      "name": "compSignUpEvent",
      "type": "event"
    },
    {
      "anonymous": false,
      "inputs": [
        {
          "indexed": false,
          "internalType": "address",
          "name": "from",
          "type": "address"
        },
        {
          "indexed": false,
          "internalType": "string",
          "name": "to",
          "type": "string"
        },
        {
          "indexed": false,
          "internalType": "bool",
          "name": "pass",
          "type": "bool"
        }
      ],
      "name": "custSignUpEvent",
      "type": "event"
    },
    {
      "constant": false,
      "inputs": [
        {
          "internalType": "string",
          "name": "phoneNumber",
          "type": "string"
        },
        {
          "internalType": "string",
          "name": "name",
          "type": "string"
        },
        {
          "internalType": "string",
          "name": "id",
          "type": "string"
        },
        {
          "internalType": "string",
          "name": "pw",
          "type": "string"
        },
        {
          "internalType": "uint32",
          "name": "age",
          "type": "uint32"
        }
      ],
      "name": "custSignUp",
      "outputs": [],
      "payable": false,
      "stateMutability": "nonpayable",
      "type": "function"
    },
    {
      "constant": true,
      "inputs": [
        {
          "internalType": "string",
          "name": "id",
          "type": "string"
        },
        {
          "internalType": "string",
          "name": "pw",
          "type": "string"
        }
      ],
      "name": "custLogIn",
      "outputs": [
        {
          "internalType": "string",
          "name": "",
          "type": "string"
        },
        {
          "internalType": "bytes32",
          "name": "keyID",
          "type": "bytes32"
        },
        {
          "internalType": "bool",
          "name": "pass",
          "type": "bool"
        }
      ],
      "payable": false,
      "stateMutability": "view",
      "type": "function"
    },
    {
      "constant": false,
      "inputs": [
        {
          "internalType": "bytes32",
          "name": "keyID",
          "type": "bytes32"
        },
        {
          "internalType": "bytes32",
          "name": "compID",
          "type": "bytes32"
        },
        {
          "internalType": "uint32",
          "name": "date",
          "type": "uint32"
        },
        {
          "internalType": "uint32",
          "name": "time",
          "type": "uint32"
        },
        {
          "internalType": "uint32",
          "name": "personnel",
          "type": "uint32"
        }
      ],
      "name": "book",
      "outputs": [],
      "payable": false,
      "stateMutability": "nonpayable",
      "type": "function"
    },
    {
      "constant": false,
      "inputs": [
        {
          "internalType": "string",
          "name": "compName",
          "type": "string"
        },
        {
          "internalType": "uint32",
          "name": "startTime",
          "type": "uint32"
        },
        {
          "internalType": "string",
          "name": "id",
          "type": "string"
        },
        {
          "internalType": "string",
          "name": "pw",
          "type": "string"
        },
        {
          "internalType": "string",
          "name": "addr",
          "type": "string"
        },
        {
          "internalType": "string",
          "name": "phoneNumber",
          "type": "string"
        },
        {
          "internalType": "string",
          "name": "img",
          "type": "string"
        },
        {
          "internalType": "string",
          "name": "description",
          "type": "string"
        }
      ],
      "name": "compSignUp",
      "outputs": [],
      "payable": false,
      "stateMutability": "nonpayable",
      "type": "function"
    },
    {
      "constant": true,
      "inputs": [
        {
          "internalType": "string",
          "name": "id",
          "type": "string"
        },
        {
          "internalType": "string",
          "name": "pw",
          "type": "string"
        }
      ],
      "name": "compLogIn",
      "outputs": [
        {
          "internalType": "string",
          "name": "",
          "type": "string"
        },
        {
          "internalType": "bytes32",
          "name": "compID",
          "type": "bytes32"
        },
        {
          "internalType": "bool",
          "name": "pass",
          "type": "bool"
        }
      ],
      "payable": false,
      "stateMutability": "view",
      "type": "function"
    },
    {
      "constant": false,
      "inputs": [
        {
          "internalType": "bytes32",
          "name": "compID",
          "type": "bytes32"
        },
        {
          "internalType": "uint32",
          "name": "date",
          "type": "uint32"
        }
      ],
      "name": "bookList",
      "outputs": [],
      "payable": false,
      "stateMutability": "nonpayable",
      "type": "function"
    },
    {
      "constant": false,
      "inputs": [
        {
          "internalType": "bytes32",
          "name": "compID",
          "type": "bytes32"
        },
        {
          "internalType": "bytes32",
          "name": "keyID",
          "type": "bytes32"
        },
        {
          "internalType": "string",
          "name": "compName",
          "type": "string"
        },
        {
          "internalType": "string",
          "name": "custName",
          "type": "string"
        },
        {
          "internalType": "string",
          "name": "custPN",
          "type": "string"
        },
        {
          "internalType": "uint32",
          "name": "date",
          "type": "uint32"
        },
        {
          "internalType": "uint32",
          "name": "time",
          "type": "uint32"
        },
        {
          "internalType": "uint32",
          "name": "personnel",
          "type": "uint32"
        },
        {
          "internalType": "uint32",
          "name": "bookState",
          "type": "uint32"
        },
        {
          "internalType": "bool",
          "name": "ack",
          "type": "bool"
        }
      ],
      "name": "ackBook",
      "outputs": [],
      "payable": false,
      "stateMutability": "nonpayable",
      "type": "function"
    },
    {
      "constant": false,
      "inputs": [
        {
          "internalType": "bytes32",
          "name": "keyID",
          "type": "bytes32"
        },
        {
          "internalType": "bytes32",
          "name": "compID",
          "type": "bytes32"
        },
        {
          "internalType": "uint32",
          "name": "date",
          "type": "uint32"
        },
        {
          "internalType": "bool",
          "name": "isShow",
          "type": "bool"
        }
      ],
      "name": "resBook",
      "outputs": [],
      "payable": false,
      "stateMutability": "nonpayable",
      "type": "function"
    },
    {
      "constant": false,
      "inputs": [
        {
          "internalType": "bytes32",
          "name": "keyID",
          "type": "bytes32"
        },
        {
          "internalType": "bytes32",
          "name": "compID",
          "type": "bytes32"
        },
        {
          "internalType": "uint32",
          "name": "date",
          "type": "uint32"
        },
        {
          "internalType": "uint32",
          "name": "bookState",
          "type": "uint32"
        }
      ],
      "name": "waitBook",
      "outputs": [],
      "payable": false,
      "stateMutability": "nonpayable",
      "type": "function"
    },
    {
      "constant": false,
      "inputs": [
        {
          "internalType": "bytes32",
          "name": "compID",
          "type": "bytes32"
        },
        {
          "internalType": "string",
          "name": "phoneNumber",
          "type": "string"
        },
        {
          "internalType": "string",
          "name": "compName",
          "type": "string"
        },
        {
          "internalType": "string",
          "name": "custName",
          "type": "string"
        },
        {
          "internalType": "string",
          "name": "custPN",
          "type": "string"
        },
        {
          "internalType": "uint32",
          "name": "date",
          "type": "uint32"
        },
        {
          "internalType": "uint32",
          "name": "time",
          "type": "uint32"
        },
        {
          "internalType": "uint32",
          "name": "personnel",
          "type": "uint32"
        },
        {
          "internalType": "uint32",
          "name": "bookState",
          "type": "uint32"
        }
      ],
      "name": "callBook",
      "outputs": [],
      "payable": false,
      "stateMutability": "nonpayable",
      "type": "function"
    },
    {
      "constant": false,
      "inputs": [
        {
          "internalType": "string",
          "name": "phoneNumber",
          "type": "string"
        },
        {
          "internalType": "string",
          "name": "callerPN",
          "type": "string"
        },
        {
          "internalType": "int32",
          "name": "idx",
          "type": "int32"
        }
      ],
      "name": "checkUser",
      "outputs": [],
      "payable": false,
      "stateMutability": "nonpayable",
      "type": "function"
    }
  ],
  "bytecode": "0x608060405234801561001057600080fd5b50336000806101000a81548173ffffffffffffffffffffffffffffffffffffffff021916908373ffffffffffffffffffffffffffffffffffffffff1602179055506130ee806100606000396000f3fe608060405234801561001057600080fd5b50600436106100a95760003560e01c80634c2eadc3116100715780634c2eadc31461013a578063716432871461016c5780639f56854e14610188578063c844e462146101a4578063cc16c478146101c0578063df5262a7146101dc576100a9565b80631b9e1c1b146100ae5780631bc1f5f0146100ca578063224e788f146100e6578063447ac2d914610102578063450944281461011e575b600080fd5b6100c860048036036100c39190810190612076565b61020e565b005b6100e460048036036100df9190810190612199565b610613565b005b61010060048036036100fb91908101906123fc565b6107e1565b005b61011c600480360361011791908101906122d6565b610ada565b005b6101386004803603610133919081019061225f565b610eff565b005b610154600480360361014f9190810190612438565b610f68565b60405161016393929190612d1c565b60405180910390f35b610186600480360361018191908101906124a4565b6110e3565b005b6101a2600480360361019d9190810190612523565b611424565b005b6101be60048036036101b991908101906121fc565b6116f2565b005b6101da60048036036101d591908101906125fa565b6118ce565b005b6101f660048036036101f19190810190612438565b611b6c565b60405161020593929190612d1c565b60405180910390f35b80156105ab57600360008a81526020019081526020016000206040518061014001604052808c81526020018b81526020018a81526020018981526020018881526020018763ffffffff1681526020018663ffffffff1681526020018563ffffffff1681526020018463ffffffff1681526020016000151581525090806001815401808255809150509060018203906000526020600020906006020160009091929091909150600082015181600001556020820151816001015560408201518160020190805190602001906102e3929190611ce7565b506060820151816003019080519060200190610300929190611ce7565b50608082015181600401908051906020019061031d929190611ce7565b5060a08201518160050160006101000a81548163ffffffff021916908363ffffffff16021790555060c08201518160050160046101000a81548163ffffffff021916908363ffffffff16021790555060e08201518160050160086101000a81548163ffffffff021916908363ffffffff16021790555061010082015181600501600c6101000a81548163ffffffff021916908363ffffffff1602179055506101208201518160050160106101000a81548160ff021916908315150217905550505050600460008b81526020019081526020016000206040518061014001604052808c81526020018b81526020018a81526020018981526020018881526020018763ffffffff1681526020018663ffffffff1681526020018563ffffffff1681526020018463ffffffff1681526020016000151581525090806001815401808255809150509060018203906000526020600020906006020160009091929091909150600082015181600001556020820151816001015560408201518160020190805190602001906104ae929190611ce7565b5060608201518160030190805190602001906104cb929190611ce7565b5060808201518160040190805190602001906104e8929190611ce7565b5060a08201518160050160006101000a81548163ffffffff021916908363ffffffff16021790555060c08201518160050160046101000a81548163ffffffff021916908363ffffffff16021790555060e08201518160050160086101000a81548163ffffffff021916908363ffffffff16021790555061010082015181600501600c6101000a81548163ffffffff021916908363ffffffff1602179055506101208201518160050160106101000a81548160ff0219169083151502179055505050505b7f48c71e3760d25c9734a027d6c1ab38250cdbafcf3fe5310c097e1f234340a5696000809054906101000a900473ffffffffffffffffffffffffffffffffffffffff168a836040516105ff93929190612c01565b60405180910390a150505050505050505050565b6000600160036000878152602001908152602001600020805490500390505b60008160030b126106f6578263ffffffff16600360008781526020019081526020016000208263ffffffff168154811061066857fe5b906000526020600020906006020160050160009054906101000a900463ffffffff1663ffffffff1614156106e85781600360008781526020019081526020016000208263ffffffff16815481106106bb57fe5b906000526020600020906006020160050160106101000a81548160ff0219169083151502179055506106f6565b808060019003915050610632565b506000600160046000868152602001908152602001600020805490500390505b60008160030b126107da578263ffffffff16600460008681526020019081526020016000208263ffffffff168154811061074c57fe5b906000526020600020906006020160050160009054906101000a900463ffffffff1663ffffffff1614156107cc5781600460008681526020019081526020016000208263ffffffff168154811061079f57fe5b906000526020600020906006020160050160106101000a81548160ff0219169083151502179055506107da565b808060019003915050610716565b5050505050565b600660006107ef9190611d67565b6000600160046000858152602001908152602001600020805490500390505b60008160030b12610a78578163ffffffff16600460008581526020019081526020016000208263ffffffff168154811061084457fe5b906000526020600020906006020160050160009054906101000a900463ffffffff1663ffffffff161415610a6a576006600460008581526020019081526020016000208263ffffffff168154811061089857fe5b90600052602060002090600602019080600181540180825580915050906001820390600052602060002090600602016000909192909190915060008201548160000155600182015481600101556002820181600201908054600181600116156101000203166002900461090c929190611d8b565b5060038201816003019080546001816001161561010002031660029004610934929190611d8b565b506004820181600401908054600181600116156101000203166002900461095c929190611d8b565b506005820160009054906101000a900463ffffffff168160050160006101000a81548163ffffffff021916908363ffffffff1602179055506005820160049054906101000a900463ffffffff168160050160046101000a81548163ffffffff021916908363ffffffff1602179055506005820160089054906101000a900463ffffffff168160050160086101000a81548163ffffffff021916908363ffffffff16021790555060058201600c9054906101000a900463ffffffff1681600501600c6101000a81548163ffffffff021916908363ffffffff1602179055506005820160109054906101000a900460ff168160050160106101000a81548160ff0219169083151502179055505050505b80806001900391505061080e565b507f12884e97e7d7b0125aaef14fd9ac19971de24dabe4ca548fcfcb50c3d37737f36000809054906101000a900473ffffffffffffffffffffffffffffffffffffffff16836006604051610ace93929190612bc3565b60405180910390a15050565b6000600189604051610aec9190612b08565b9081526020016040518091039020600001549050600360008281526020019081526020016000206040518061014001604052808c81526020018381526020018a81526020018981526020018881526020018763ffffffff1681526020018663ffffffff1681526020018563ffffffff1681526020018463ffffffff168152602001600015158152509080600181540180825580915050906001820390600052602060002090600602016000909192909190915060008201518160000155602082015181600101556040820151816002019080519060200190610bcf929190611ce7565b506060820151816003019080519060200190610bec929190611ce7565b506080820151816004019080519060200190610c09929190611ce7565b5060a08201518160050160006101000a81548163ffffffff021916908363ffffffff16021790555060c08201518160050160046101000a81548163ffffffff021916908363ffffffff16021790555060e08201518160050160086101000a81548163ffffffff021916908363ffffffff16021790555061010082015181600501600c6101000a81548163ffffffff021916908363ffffffff1602179055506101208201518160050160106101000a81548160ff021916908315150217905550505050600460008b81526020019081526020016000206040518061014001604052808c81526020018381526020018a81526020018981526020018881526020018763ffffffff1681526020018663ffffffff1681526020018563ffffffff1681526020018463ffffffff168152602001600015158152509080600181540180825580915050906001820390600052602060002090600602016000909192909190915060008201518160000155602082015181600101556040820151816002019080519060200190610d9a929190611ce7565b506060820151816003019080519060200190610db7929190611ce7565b506080820151816004019080519060200190610dd4929190611ce7565b5060a08201518160050160006101000a81548163ffffffff021916908363ffffffff16021790555060c08201518160050160046101000a81548163ffffffff021916908363ffffffff16021790555060e08201518160050160086101000a81548163ffffffff021916908363ffffffff16021790555061010082015181600501600c6101000a81548163ffffffff021916908363ffffffff1602179055506101208201518160050160106101000a81548160ff0219169083151502179055505050507f48c71e3760d25c9734a027d6c1ab38250cdbafcf3fe5310c097e1f234340a5696000809054906101000a900473ffffffffffffffffffffffffffffffffffffffff16826001604051610eeb93929190612c01565b60405180910390a150505050505050505050565b7fd1734fd516d013f71564198d4f4b4fdaf91e280558fb732201fb43da3a2a03a06000809054906101000a900473ffffffffffffffffffffffffffffffffffffffff168686868686604051610f5996959493929190612c38565b60405180910390a15050505050565b606060008084604051602001610f7e9190612b08565b60405160208183030381529060405280519060200120600186604051610fa49190612b08565b9081526020016040518091039020600301604051602001610fc59190612bac565b60405160208183030381529060405280519060200120148015611053575083604051602001610ff49190612b08565b6040516020818303038152906040528051906020012060018660405161101a9190612b08565b908152602001604051809103902060040160405160200161103b9190612bac565b60405160208183030381529060405280519060200120145b156110bf576001856040516110689190612b08565b90815260200160405180910390206000015460016040518060400160405280600681526020017f636c69656e74000000000000000000000000000000000000000000000000000081525091909250925092506110dc565b600060405180602001604052806000815250906000909250925092505b9250925092565b600660006110f19190611d67565b60006003600060016005876040516111099190612b08565b90815260200160405180910390206040516111249190612bac565b90815260200160405180910390206000015481526020019081526020016000208054905090506000600160058660405161115e9190612b08565b90815260200160405180910390206040516111799190612bac565b908152602001604051809103902060000154905060006001830390505b83600184030360030b8160030b13156113bf5760008160030b12156111ba576113bf565b6006600360008481526020019081526020016000208263ffffffff16815481106111e057fe5b906000526020600020906006020190806001815401808255809150509060018203906000526020600020906006020160009091929091909150600082015481600001556001820154816001015560028201816002019080546001816001161561010002031660029004611254929190611d8b565b506003820181600301908054600181600116156101000203166002900461127c929190611d8b565b50600482018160040190805460018160011615610100020316600290046112a4929190611d8b565b506005820160009054906101000a900463ffffffff168160050160006101000a81548163ffffffff021916908363ffffffff1602179055506005820160049054906101000a900463ffffffff168160050160046101000a81548163ffffffff021916908363ffffffff1602179055506005820160089054906101000a900463ffffffff168160050160086101000a81548163ffffffff021916908363ffffffff16021790555060058201600c9054906101000a900463ffffffff1681600501600c6101000a81548163ffffffff021916908363ffffffff1602179055506005820160109054906101000a900460ff168160050160106101000a81548160ff021916908315150217905550505050808060019003915050611196565b507f4ece7e9377faaf263dbebe11d20005c475e4c46b39d63db9c8e9af21116dbe2c6000809054906101000a900473ffffffffffffffffffffffffffffffffffffffff1685600660405161141593929190612c99565b60405180910390a15050505050565b60006001846040516114369190612b08565b9081526020016040518091039020600301805460018160011615610100020316600290049050141561168d576000858585858560405160200161147d959493929190612b5d565b604051602081830303815290604052805190602001209050604051806101000160405280828152602001878152602001868152602001858152602001848152602001600063ffffffff168152602001600063ffffffff1681526020018363ffffffff168152506001856040516114f39190612b08565b9081526020016040518091039020600082015181600001556020820151816001019080519060200190611527929190611ce7565b506040820151816002019080519060200190611544929190611ce7565b506060820151816003019080519060200190611561929190611ce7565b50608082015181600401908051906020019061157e929190611ce7565b5060a08201518160050160006101000a81548163ffffffff021916908363ffffffff16021790555060c08201518160050160046101000a81548163ffffffff021916908363ffffffff16021790555060e08201518160050160086101000a81548163ffffffff021916908363ffffffff160217905550905050836005876040516116089190612b08565b90815260200160405180910390209080519060200190611629929190611e12565b507f6ee1dfbc2e7f960e232ec0fc4ffbdbee8ff8ecf493e10dc7f8171b809ffb64396000809054906101000a900473ffffffffffffffffffffffffffffffffffffffff1687600160405161167f93929190612cde565b60405180910390a1506116eb565b7f6ee1dfbc2e7f960e232ec0fc4ffbdbee8ff8ecf493e10dc7f8171b809ffb64396000809054906101000a900473ffffffffffffffffffffffffffffffffffffffff168660006040516116e293929190612cde565b60405180910390a15b5050505050565b6000600160036000878152602001908152602001600020805490500390505b60008160030b126117dc578263ffffffff16600360008781526020019081526020016000208263ffffffff168154811061174757fe5b906000526020600020906006020160050160009054906101000a900463ffffffff1663ffffffff1614156117ce5781600360008781526020019081526020016000208263ffffffff168154811061179a57fe5b9060005260206000209060060201600501600c6101000a81548163ffffffff021916908363ffffffff1602179055506117dc565b808060019003915050611711565b506000600160046000868152602001908152602001600020805490500390505b60008160030b126118c7578263ffffffff16600460008681526020019081526020016000208263ffffffff168154811061183257fe5b906000526020600020906006020160050160009054906101000a900463ffffffff1663ffffffff1614156118b95781600460008681526020019081526020016000208263ffffffff168154811061188557fe5b9060005260206000209060060201600501600c6101000a81548163ffffffff021916908363ffffffff1602179055506118c7565b8080600190039150506117fc565b5050505050565b60006002876040516118e09190612b08565b90815260200160405180910390206003018054600181600116156101000203166002900490501415611b04576000838988886040516020016119259493929190612b1f565b6040516020818303038152906040528051906020012090506040518061012001604052808281526020018963ffffffff1681526020018a8152602001888152602001878152602001868152602001858152602001848152602001838152506002886040516119939190612b08565b90815260200160405180910390206000820151816000015560208201518160010160006101000a81548163ffffffff021916908363ffffffff16021790555060408201518160020190805190602001906119ee929190611ce7565b506060820151816003019080519060200190611a0b929190611ce7565b506080820151816004019080519060200190611a28929190611ce7565b5060a0820151816005019080519060200190611a45929190611ce7565b5060c0820151816006019080519060200190611a62929190611ce7565b5060e0820151816007019080519060200190611a7f929190611ce7565b50610100820151816008019080519060200190611a9d929190611ce7565b509050507f4058f139981afbe299fb17362c672999234af2793279fc0d8ab29fdec123a81e6000809054906101000a900473ffffffffffffffffffffffffffffffffffffffff16856001604051611af693929190612cde565b60405180910390a150611b62565b7f4058f139981afbe299fb17362c672999234af2793279fc0d8ab29fdec123a81e6000809054906101000a900473ffffffffffffffffffffffffffffffffffffffff16846000604051611b5993929190612cde565b60405180910390a15b5050505050505050565b606060008084604051602001611b829190612b08565b60405160208183030381529060405280519060200120600286604051611ba89190612b08565b9081526020016040518091039020600301604051602001611bc99190612bac565b60405160208183030381529060405280519060200120148015611c57575083604051602001611bf89190612b08565b60405160208183030381529060405280519060200120600286604051611c1e9190612b08565b9081526020016040518091039020600401604051602001611c3f9190612bac565b60405160208183030381529060405280519060200120145b15611cc357600285604051611c6c9190612b08565b90815260200160405180910390206000015460016040518060400160405280600481526020017f636f6d70000000000000000000000000000000000000000000000000000000008152509190925092509250611ce0565b600060405180602001604052806000815250906000909250925092505b9250925092565b828054600181600116156101000203166002900490600052602060002090601f016020900481019282601f10611d2857805160ff1916838001178555611d56565b82800160010185558215611d56579182015b82811115611d55578251825591602001919060010190611d3a565b5b509050611d639190611e92565b5090565b5080546000825560060290600052602060002090810190611d889190611eb7565b50565b828054600181600116156101000203166002900490600052602060002090601f016020900481019282601f10611dc45780548555611e01565b82800160010185558215611e0157600052602060002091601f016020900482015b82811115611e00578254825591600101919060010190611de5565b5b509050611e0e9190611e92565b5090565b828054600181600116156101000203166002900490600052602060002090601f016020900481019282601f10611e5357805160ff1916838001178555611e81565b82800160010185558215611e81579182015b82811115611e80578251825591602001919060010190611e65565b5b509050611e8e9190611e92565b5090565b611eb491905b80821115611eb0576000816000905550600101611e98565b5090565b90565b611f8391905b80821115611f7f576000808201600090556001820160009055600282016000611ee69190611f86565b600382016000611ef69190611f86565b600482016000611f069190611f86565b6005820160006101000a81549063ffffffff02191690556005820160046101000a81549063ffffffff02191690556005820160086101000a81549063ffffffff021916905560058201600c6101000a81549063ffffffff02191690556005820160106101000a81549060ff021916905550600601611ebd565b5090565b90565b50805460018160011615610100020316600290046000825580601f10611fac5750611fcb565b601f016020900490600052602060002090810190611fca9190611e92565b5b50565b600081359050611fdd8161304f565b92915050565b600081359050611ff281613066565b92915050565b6000813590506120078161307d565b92915050565b600082601f83011261201e57600080fd5b813561203161202c82612d87565b612d5a565b9150808252602083016020830185838301111561204d57600080fd5b612058838284612f00565b50505092915050565b60008135905061207081613094565b92915050565b6000806000806000806000806000806101408b8d03121561209657600080fd5b60006120a48d828e01611fe3565b9a505060206120b58d828e01611fe3565b99505060408b013567ffffffffffffffff8111156120d257600080fd5b6120de8d828e0161200d565b98505060608b013567ffffffffffffffff8111156120fb57600080fd5b6121078d828e0161200d565b97505060808b013567ffffffffffffffff81111561212457600080fd5b6121308d828e0161200d565b96505060a06121418d828e01612061565b95505060c06121528d828e01612061565b94505060e06121638d828e01612061565b9350506101006121758d828e01612061565b9250506101206121878d828e01611fce565b9150509295989b9194979a5092959850565b600080600080608085870312156121af57600080fd5b60006121bd87828801611fe3565b94505060206121ce87828801611fe3565b93505060406121df87828801612061565b92505060606121f087828801611fce565b91505092959194509250565b6000806000806080858703121561221257600080fd5b600061222087828801611fe3565b945050602061223187828801611fe3565b935050604061224287828801612061565b925050606061225387828801612061565b91505092959194509250565b600080600080600060a0868803121561227757600080fd5b600061228588828901611fe3565b955050602061229688828901611fe3565b94505060406122a788828901612061565b93505060606122b888828901612061565b92505060806122c988828901612061565b9150509295509295909350565b60008060008060008060008060006101208a8c0312156122f557600080fd5b60006123038c828d01611fe3565b99505060208a013567ffffffffffffffff81111561232057600080fd5b61232c8c828d0161200d565b98505060408a013567ffffffffffffffff81111561234957600080fd5b6123558c828d0161200d565b97505060608a013567ffffffffffffffff81111561237257600080fd5b61237e8c828d0161200d565b96505060808a013567ffffffffffffffff81111561239b57600080fd5b6123a78c828d0161200d565b95505060a06123b88c828d01612061565b94505060c06123c98c828d01612061565b93505060e06123da8c828d01612061565b9250506101006123ec8c828d01612061565b9150509295985092959850929598565b6000806040838503121561240f57600080fd5b600061241d85828601611fe3565b925050602061242e85828601612061565b9150509250929050565b6000806040838503121561244b57600080fd5b600083013567ffffffffffffffff81111561246557600080fd5b6124718582860161200d565b925050602083013567ffffffffffffffff81111561248e57600080fd5b61249a8582860161200d565b9150509250929050565b6000806000606084860312156124b957600080fd5b600084013567ffffffffffffffff8111156124d357600080fd5b6124df8682870161200d565b935050602084013567ffffffffffffffff8111156124fc57600080fd5b6125088682870161200d565b925050604061251986828701611ff8565b9150509250925092565b600080600080600060a0868803121561253b57600080fd5b600086013567ffffffffffffffff81111561255557600080fd5b6125618882890161200d565b955050602086013567ffffffffffffffff81111561257e57600080fd5b61258a8882890161200d565b945050604086013567ffffffffffffffff8111156125a757600080fd5b6125b38882890161200d565b935050606086013567ffffffffffffffff8111156125d057600080fd5b6125dc8882890161200d565b92505060806125ed88828901612061565b9150509295509295909350565b600080600080600080600080610100898b03121561261757600080fd5b600089013567ffffffffffffffff81111561263157600080fd5b61263d8b828c0161200d565b985050602061264e8b828c01612061565b975050604089013567ffffffffffffffff81111561266b57600080fd5b6126778b828c0161200d565b965050606089013567ffffffffffffffff81111561269457600080fd5b6126a08b828c0161200d565b955050608089013567ffffffffffffffff8111156126bd57600080fd5b6126c98b828c0161200d565b94505060a089013567ffffffffffffffff8111156126e657600080fd5b6126f28b828c0161200d565b93505060c089013567ffffffffffffffff81111561270f57600080fd5b61271b8b828c0161200d565b92505060e089013567ffffffffffffffff81111561273857600080fd5b6127448b828c0161200d565b9150509295985092959890939650565b600061276083836129ae565b905092915050565b61277181612eb8565b82525050565b600061278282612ddd565b61278c8185612e00565b93508360208202850161279e85612db3565b8060005b858110156127d9578484038952816127ba8582612754565b94506127c583612df3565b925060208a019950506001810190506127a2565b50829750879550505050505092915050565b6127f481612e65565b82525050565b61280381612e65565b82525050565b61281281612e71565b82525050565b61282181612e71565b82525050565b600061283282612de8565b61283c8185612e22565b935061284c818560208601612f0f565b61285581612ff0565b840191505092915050565b600061286b82612de8565b6128758185612e33565b9350612885818560208601612f0f565b80840191505092915050565b6000815460018116600081146128ae57600181146128d457612918565b607f60028304166128bf8187612e11565b955060ff198316865260208601935050612918565b600282046128e28187612e11565b95506128ed85612dc8565b60005b8281101561290f578154818901526001820191506020810190506128f0565b80880195505050505b505092915050565b60008154600181166000811461293d5760018114612962576129a6565b607f600283041661294e8187612e33565b955060ff19831686528086019350506129a6565b600282046129708187612e33565b955061297b85612dc8565b60005b8281101561299d5781548189015260018201915060208101905061297e565b82880195505050505b505092915050565b6000610140830160008084015490506129c681612f42565b6129d36000870182612809565b50600184015490506129e481612f42565b6129f16020870182612809565b50600284018583036040870152612a088382612891565b925050600384018583036060870152612a218382612891565b925050600484018583036080870152612a3a8382612891565b92505060058401549050612a4d81612f5c565b612a5a60a0870182612ad3565b50612a6481612faa565b612a7160c0870182612ad3565b50612a7b81612fc4565b612a8860e0870182612ad3565b50612a9281612f76565b612aa0610100870182612ad3565b50612aaa81612f90565b612ab86101208701826127eb565b50819250505092915050565b612acd81612eee565b82525050565b612adc81612ea8565b82525050565b612aeb81612ea8565b82525050565b612b02612afd82612ea8565b612fde565b82525050565b6000612b148284612860565b915081905092915050565b6000612b2b8287612860565b9150612b378286612860565b9150612b438285612860565b9150612b4f8284612860565b915081905095945050505050565b6000612b698288612860565b9150612b758287612860565b9150612b818286612860565b9150612b8d8285612860565b9150612b998284612af1565b6004820191508190509695505050505050565b6000612bb88284612920565b915081905092915050565b6000606082019050612bd86000830186612768565b612be56020830185612818565b8181036040830152612bf78184612777565b9050949350505050565b6000606082019050612c166000830186612768565b612c236020830185612818565b612c3060408301846127fa565b949350505050565b600060c082019050612c4d6000830189612768565b612c5a6020830188612818565b612c676040830187612818565b612c746060830186612ae2565b612c816080830185612ae2565b612c8e60a0830184612ac4565b979650505050505050565b6000606082019050612cae6000830186612768565b8181036020830152612cc08185612827565b90508181036040830152612cd48184612777565b9050949350505050565b6000606082019050612cf36000830186612768565b8181036020830152612d058185612827565b9050612d1460408301846127fa565b949350505050565b60006060820190508181036000830152612d368186612827565b9050612d456020830185612818565b612d5260408301846127fa565b949350505050565b6000604051905081810181811067ffffffffffffffff82111715612d7d57600080fd5b8060405250919050565b600067ffffffffffffffff821115612d9e57600080fd5b601f19601f8301169050602081019050919050565b60008190508160005260206000209050919050565b60008190508160005260206000209050919050565b600081549050919050565b600081519050919050565b6000600682019050919050565b600082825260208201905092915050565b600082825260208201905092915050565b600082825260208201905092915050565b600081905092915050565b600060ff82169050919050565b6000819050919050565b600063ffffffff82169050919050565b60008115159050919050565b6000819050919050565b60008160030b9050919050565b600073ffffffffffffffffffffffffffffffffffffffff82169050919050565b600063ffffffff82169050919050565b6000612ec382612eca565b9050919050565b6000612ed582612edc565b9050919050565b6000612ee782612e88565b9050919050565b6000612ef982612ea8565b9050919050565b82818337600083830152505050565b60005b83811015612f2d578082015181840152602081019050612f12565b83811115612f3c576000848401525b50505050565b6000612f55612f508361300e565b612e4b565b9050919050565b6000612f6f612f6a8361300e565b612e55565b9050919050565b6000612f89612f8483613042565b612e55565b9050919050565b6000612fa3612f9e8361301b565b612e3e565b9050919050565b6000612fbd612fb883613028565b612e55565b9050919050565b6000612fd7612fd283613035565b612e55565b9050919050565b6000612fe982613001565b9050919050565b6000601f19601f8301169050919050565b60008160e01b9050919050565b60008160001c9050919050565b60008160801c9050919050565b60008160201c9050919050565b60008160401c9050919050565b60008160601c9050919050565b61305881612e65565b811461306357600080fd5b50565b61306f81612e71565b811461307a57600080fd5b50565b61308681612e7b565b811461309157600080fd5b50565b61309d81612ea8565b81146130a857600080fd5b5056fea365627a7a723158201f26ff2fd27e6f5da8fcb4a7ea1bfabf56ef65bd98f2825de556efefdb3736016c6578706572696d656e74616cf564736f6c63430005100040",
  "source": "pragma solidity >=0.4.25 <0.7.0;\r\npragma experimental ABIEncoderV2;\r\n\r\ncontract NoNoShow{\r\n  // DB  \r\n  address payable creator;\r\n  struct books{\r\n    bytes32 compID;\r\n    bytes32 keyID;\r\n    string compName; // \r\n    string custName; //  \r\n    string custPN; //  \r\n    uint32 date; // 20201414\r\n    uint32 time; // 1130\r\n    uint32 personnel; // \r\n    uint32 bookState; // 0 , 1 , 2 \r\n    bool isShow; // false true\r\n  }\r\n\r\n  // DB\r\n  struct custDB{\r\n    bytes32 keyID; // + \r\n    string phoneNumber;\r\n    string name;\r\n    string ID;\r\n    string PW;\r\n    uint32 showCnt;\r\n    uint32 noShowCnt;\r\n    uint32 age;\r\n    // ,    \r\n  }\r\n  struct compDB{//comp  company\r\n    bytes32 compID;\r\n    uint32 startTime; // \r\n    string comName;\r\n    string ID;\r\n    string PW;\r\n    string addr; //  \r\n    string phoneNumber; //  \r\n    string img; //   \r\n    string description; //  \r\n    //      \r\n  }\r\n  mapping(string=>custDB) userCust;//   DB\r\n  mapping(string=>compDB) userComp;//   DB\r\n  mapping(bytes32=>books[]) LedgerDB;//      DB\r\n  mapping(bytes32=>books[]) compBooks;// c.f.)        DB\r\n  mapping(string=>string) userID_finder; // phoneNumber => ID\r\n  books[] resBooks; //      \r\n  //    : mapping(=>) , string[]       \r\n  //   (       .)\r\n\r\n  //    \r\n  event custSignUpEvent(address from, string to, bool pass);\r\n  event compSignUpEvent(address from, string to, bool pass);\r\n\r\n  //    \r\n  event alertToCompEvent(address from, bytes32 keyID,bytes32 compID, uint32 date, uint32 time, uint personnel);\r\n  event alertToCustEvent(address from, bytes32 keyID, bool ack);\r\n\r\n  //    \r\n  event checkBookListEvent(address from, bytes32 compID,books[] bookList);\r\n  event checkNoShowListEvent(address from, string to, books[] noShowList);\r\n\r\n  // \r\n  constructor () public{\r\n    creator = msg.sender; //    creator     .\r\n  }\r\n\r\n  // \r\n  function custSignUp(string memory phoneNumber,string memory name,string memory id, string memory pw, uint32 age) public{\r\n    if(bytes(userCust[id].ID).length==0){//   ,    ID 0  \r\n      //c.f.)     delete userCust[phoneNumber]  \r\n      bytes32 keyID = keccak256( abi.encodePacked( phoneNumber,name,id,pw,age ) );\r\n      userCust[id] = custDB(keyID,phoneNumber,name,id,pw,0,0,age); // keyID , +\"1234\"  .\r\n      userID_finder[phoneNumber] = id;\r\n      emit custSignUpEvent(creator,phoneNumber,true);\r\n      return;\r\n    }else{\r\n        emit custSignUpEvent(creator,phoneNumber,false);\r\n        return;\r\n    }\r\n  }\r\n  function custLogIn(string memory id, string memory pw) public view returns(string memory,bytes32 keyID,bool pass){//\r\n    if(keccak256(abi.encodePacked((userCust[id].ID)))  == keccak256(abi.encodePacked((id))) && keccak256(abi.encodePacked((userCust[id].PW))) == keccak256(abi.encodePacked((pw)))){\r\n      return (\"client\",userCust[id].keyID,true);\r\n    }\r\n    return (\"\",\"\",false);\r\n  }\r\n  function book(bytes32 keyID,bytes32 compID,uint32 date, uint32 time, uint32 personnel)public{\r\n    emit alertToCompEvent(creator,keyID,compID,date,time, personnel); //    .  Tx   .\r\n  }\r\n  // \r\n  function compSignUp(string memory compName,uint32 startTime, string memory id, string memory pw ,string memory addr,string memory phoneNumber, string memory img, string memory description) public {\r\n    if(bytes(userComp[id].ID).length==0){//   ,    ID 0  \r\n      //c.f.)     delete userCust[phoneNumber]  \r\n      bytes32 compID = keccak256( abi.encodePacked( phoneNumber,compName,id,pw ) );\r\n      userComp[id] = compDB(compID, startTime, compName, id, pw, addr, phoneNumber, img, description);\r\n      emit compSignUpEvent(creator, phoneNumber, true);\r\n    }else{\r\n      emit compSignUpEvent(creator, phoneNumber, false);\r\n    }\r\n  }\r\n  //function changeCompInfo() =>        .\r\n\r\n  function compLogIn(string memory id, string memory pw) public view returns(string memory,bytes32 compID, bool pass){ //    ..\r\n    if(keccak256(abi.encodePacked((userComp[id].ID)))  == keccak256(abi.encodePacked((id))) && keccak256(abi.encodePacked((userComp[id].PW))) == keccak256(abi.encodePacked((pw)))){\r\n      return (\"comp\",userComp[id].compID,true); //     keccack256  .(string  )\r\n    }\r\n    return (\"\",\"\",false);\r\n  }\r\n  ////   \r\n  function bookList(bytes32 compID,uint32 date) public { //  ID     \r\n    delete resBooks;\r\n    for(int32 i = int32(compBooks[compID].length-1);i>=0;i--){\r\n        if(compBooks[compID][uint32(i)].date == date){\r\n            resBooks.push(compBooks[compID][uint32(i)]);\r\n        }\r\n    }\r\n    emit checkBookListEvent(creator, compID, resBooks);\r\n  }\r\n  function ackBook(bytes32 compID,bytes32 keyID,string memory compName,string memory custName, string memory custPN, uint32 date,uint32 time,uint32 personnel,uint32 bookState, bool ack) public{\r\n    if(ack){\r\n      LedgerDB[keyID].push(books(compID,keyID,compName,custName,custPN,date,time,personnel,bookState, false));\r\n      compBooks[compID].push(books(compID,keyID,compName,custName,custPN,date,time,personnel,bookState, false));\r\n    }\r\n    emit alertToCustEvent(creator, keyID, ack);\r\n  }\r\n  // ,   \r\n  function resBook(bytes32 keyID,bytes32 compID, uint32 date, bool isShow) public{ //     \r\n    for(int32 i = int32(LedgerDB[keyID].length - 1);i>=0;i--){\r\n        if(LedgerDB[keyID][uint32(i)].date == date){\r\n            LedgerDB[keyID][uint32(i)].isShow = isShow;\r\n            break;\r\n        }\r\n    }\r\n    for(int32 i = int32(compBooks[compID].length - 1);i>=0;i--){\r\n        if(compBooks[compID][uint32(i)].date == date){\r\n            compBooks[compID][uint32(i)].isShow = isShow;\r\n            break;\r\n        }\r\n    }\r\n  }\r\n  //     \r\n  function waitBook(bytes32 keyID,bytes32 compID, uint32 date, uint32 bookState) public{ //     \r\n    for(int32 i = int32(LedgerDB[keyID].length - 1);i>=0;i--){\r\n        if(LedgerDB[keyID][uint32(i)].date == date){\r\n            LedgerDB[keyID][uint32(i)].bookState = bookState;\r\n            break;\r\n        }\r\n    }\r\n    for(int32 i = int32(compBooks[compID].length - 1);i>=0;i--){\r\n        if(compBooks[compID][uint32(i)].date == date){\r\n            compBooks[compID][uint32(i)].bookState = bookState;\r\n            break;\r\n        }\r\n    }\r\n  }\r\n\r\n  //   \r\n  function callBook(bytes32 compID,string memory phoneNumber,string memory compName,string memory custName, string memory custPN, uint32 date,uint32 time, uint32 personnel,uint32 bookState) public {//     \r\n    bytes32 keyID = userCust[phoneNumber].keyID;\r\n    LedgerDB[keyID].push(books(compID,keyID,compName,custName,custPN,date,time,personnel,bookState,false));\r\n    compBooks[compID].push(books(compID,keyID,compName,custName,custPN,date,time,personnel,bookState,false));\r\n    emit alertToCustEvent(creator, keyID, true);\r\n  }\r\n\r\n  //   \r\n  function checkUser(string memory phoneNumber,string memory callerPN ,int32 idx) public { //     \r\n    delete resBooks;\r\n    int32 bookLength = int32(LedgerDB[userCust[userID_finder[phoneNumber]].keyID].length);\r\n    bytes32 keyID = userCust[userID_finder[phoneNumber]].keyID;\r\n    for(int32 i =int32(bookLength - 1);i>bookLength-1-idx;i--){\r\n        if(i<0){break;}\r\n        resBooks.push(LedgerDB[keyID][uint32(i)]);\r\n    }\r\n    emit checkNoShowListEvent(creator,callerPN,resBooks);\r\n  }\r\n}\r\n",
  "sourcePath": "C:\\Users\\Administrator\\Desktop\\Solidity_API_Smart_Contract\\contracts\\NoNoShow.sol",
  "compiler": {
    "name": "solc",
    "version": "0.5.16+commit.9c3226ce.Emscripten.clang"
  },
  "schemaVersion": "3.2.0",
  "updatedAt": "2020-07-09T09:09:56.993Z",
  "devdoc": {
    "methods": {}
  },
  "userdoc": {
    "methods": {
      "bookList(bytes32,uint32)": {
        "notice": "/   "
      }
    }
  }
}