{
  "contractName": "noShowChain",
  "abi": [
    {
      "inputs": [],
      "payable": false,
      "stateMutability": "nonpayable",
      "type": "constructor"
    },
    {
      "constant": false,
      "inputs": [
        {
          "internalType": "string",
          "name": "company",
          "type": "string"
        },
        {
          "internalType": "string",
          "name": "pw",
          "type": "string"
        }
      ],
      "name": "signInCEO",
      "outputs": [],
      "payable": true,
      "stateMutability": "payable",
      "type": "function"
    },
    {
      "constant": false,
      "inputs": [
        {
          "internalType": "string",
          "name": "company",
          "type": "string"
        },
        {
          "internalType": "string",
          "name": "pw",
          "type": "string"
        }
      ],
      "name": "logInCEO",
      "outputs": [
        {
          "internalType": "int256",
          "name": "point",
          "type": "int256"
        },
        {
          "internalType": "int256",
          "name": "itemCnt",
          "type": "int256"
        }
      ],
      "payable": false,
      "stateMutability": "nonpayable",
      "type": "function"
    },
    {
      "constant": false,
      "inputs": [
        {
          "internalType": "string",
          "name": "company",
          "type": "string"
        },
        {
          "internalType": "string",
          "name": "pn",
          "type": "string"
        },
        {
          "internalType": "string",
          "name": "name",
          "type": "string"
        },
        {
          "internalType": "uint256",
          "name": "reserveTime",
          "type": "uint256"
        }
      ],
      "name": "newTx",
      "outputs": [],
      "payable": true,
      "stateMutability": "payable",
      "type": "function"
    },
    {
      "constant": false,
      "inputs": [
        {
          "internalType": "string",
          "name": "company",
          "type": "string"
        },
        {
          "internalType": "string",
          "name": "pn",
          "type": "string"
        },
        {
          "internalType": "uint256",
          "name": "timeStamp",
          "type": "uint256"
        },
        {
          "internalType": "bool",
          "name": "isShow",
          "type": "bool"
        }
      ],
      "name": "TxDone",
      "outputs": [],
      "payable": true,
      "stateMutability": "payable",
      "type": "function"
    },
    {
      "constant": false,
      "inputs": [
        {
          "internalType": "string",
          "name": "pn",
          "type": "string"
        }
      ],
      "name": "showLedgerByPN",
      "outputs": [
        {
          "components": [
            {
              "internalType": "string",
              "name": "company",
              "type": "string"
            },
            {
              "internalType": "string",
              "name": "pn",
              "type": "string"
            },
            {
              "internalType": "string",
              "name": "name",
              "type": "string"
            },
            {
              "internalType": "uint256",
              "name": "reserveTime",
              "type": "uint256"
            },
            {
              "internalType": "bool",
              "name": "isShow",
              "type": "bool"
            },
            {
              "internalType": "bool",
              "name": "TxDone",
              "type": "bool"
            }
          ],
          "internalType": "struct noShowChain.Tx",
          "name": "x",
          "type": "tuple"
        }
      ],
      "payable": false,
      "stateMutability": "nonpayable",
      "type": "function"
    },
    {
      "constant": true,
      "inputs": [
        {
          "internalType": "string",
          "name": "company",
          "type": "string"
        }
      ],
      "name": "showPoint",
      "outputs": [
        {
          "internalType": "int256",
          "name": "point",
          "type": "int256"
        }
      ],
      "payable": false,
      "stateMutability": "view",
      "type": "function"
    },
    {
      "constant": true,
      "inputs": [
        {
          "internalType": "string",
          "name": "company",
          "type": "string"
        }
      ],
      "name": "showItems",
      "outputs": [
        {
          "internalType": "int256",
          "name": "ItemCnt",
          "type": "int256"
        }
      ],
      "payable": false,
      "stateMutability": "view",
      "type": "function"
    },
    {
      "constant": false,
      "inputs": [
        {
          "internalType": "string",
          "name": "company",
          "type": "string"
        }
      ],
      "name": "useItem",
      "outputs": [
        {
          "internalType": "int256",
          "name": "ItemCnt",
          "type": "int256"
        }
      ],
      "payable": true,
      "stateMutability": "payable",
      "type": "function"
    },
    {
      "constant": false,
      "inputs": [
        {
          "internalType": "string",
          "name": "company",
          "type": "string"
        }
      ],
      "name": "buyItem",
      "outputs": [
        {
          "internalType": "int256",
          "name": "ItemCnt",
          "type": "int256"
        }
      ],
      "payable": true,
      "stateMutability": "payable",
      "type": "function"
    },
    {
      "constant": false,
      "inputs": [
        {
          "internalType": "string",
          "name": "id",
          "type": "string"
        },
        {
          "internalType": "string",
          "name": "pw",
          "type": "string"
        },
        {
          "internalType": "string",
          "name": "pn",
          "type": "string"
        }
      ],
      "name": "signInCustomer",
      "outputs": [],
      "payable": true,
      "stateMutability": "payable",
      "type": "function"
    },
    {
      "constant": false,
      "inputs": [
        {
          "internalType": "string",
          "name": "id",
          "type": "string"
        },
        {
          "internalType": "string",
          "name": "pw",
          "type": "string"
        }
      ],
      "name": "logInCustomer",
      "outputs": [
        {
          "internalType": "int256",
          "name": "point",
          "type": "int256"
        },
        {
          "internalType": "int256",
          "name": "itemCnt",
          "type": "int256"
        }
      ],
      "payable": false,
      "stateMutability": "nonpayable",
      "type": "function"
    },
    {
      "constant": true,
      "inputs": [
        {
          "internalType": "string",
          "name": "id",
          "type": "string"
        }
      ],
      "name": "showPoint_cst",
      "outputs": [
        {
          "internalType": "int256",
          "name": "point",
          "type": "int256"
        }
      ],
      "payable": false,
      "stateMutability": "view",
      "type": "function"
    },
    {
      "constant": true,
      "inputs": [
        {
          "internalType": "string",
          "name": "id",
          "type": "string"
        }
      ],
      "name": "showItems_cst",
      "outputs": [
        {
          "internalType": "int256",
          "name": "ItemCnt",
          "type": "int256"
        }
      ],
      "payable": false,
      "stateMutability": "view",
      "type": "function"
    },
    {
      "constant": false,
      "inputs": [
        {
          "internalType": "string",
          "name": "id",
          "type": "string"
        }
      ],
      "name": "useItem_cst",
      "outputs": [
        {
          "internalType": "int256",
          "name": "ItemCnt",
          "type": "int256"
        }
      ],
      "payable": true,
      "stateMutability": "payable",
      "type": "function"
    },
    {
      "constant": false,
      "inputs": [
        {
          "internalType": "string",
          "name": "id",
          "type": "string"
        }
      ],
      "name": "buyItem_cst",
      "outputs": [
        {
          "internalType": "int256",
          "name": "ItemCnt",
          "type": "int256"
        }
      ],
      "payable": true,
      "stateMutability": "payable",
      "type": "function"
    },
    {
      "constant": true,
      "inputs": [
        {
          "internalType": "string",
          "name": "a",
          "type": "string"
        },
        {
          "internalType": "string",
          "name": "b",
          "type": "string"
        }
      ],
      "name": "compareStrings",
      "outputs": [
        {
          "internalType": "bool",
          "name": "",
          "type": "bool"
        }
      ],
      "payable": false,
      "stateMutability": "view",
      "type": "function"
    }
  ],
  "bytecode": "0x608060405234801561001057600080fd5b50336000806101000a81548173ffffffffffffffffffffffffffffffffffffffff021916908373ffffffffffffffffffffffffffffffffffffffff16021790555061279f806100606000396000f3fe6080604052600436106100f35760003560e01c8063953a72111161008a578063ca03ca0e11610059578063ca03ca0e1461033e578063f0dca0bf1461037c578063f9a13046146103b9578063fc7d0863146103f6576100f3565b8063953a721114610264578063a077980a14610294578063bab7ca13146102d1578063bed34bba14610301576100f3565b80635ef47cdc116100c65780635ef47cdc146101b1578063639ab824146101cd578063667a47611461020b57806390df42b114610227576100f3565b80630b866034146100f857806313f199261461011457806357becd5e146101445780635e83593714610174575b600080fd5b610112600480360361010d919081019061221a565b610412565b005b61012e600480360361012991908101906121d9565b6104cb565b60405161013b91906125ca565b60405180910390f35b61015e600480360361015991908101906121d9565b6106a1565b60405161016b91906125ca565b60405180910390f35b34801561018057600080fd5b5061019b600480360361019691908101906121d9565b610897565b6040516101a891906125ca565b60405180910390f35b6101cb60048036036101c69190810190612286565b6109d5565b005b3480156101d957600080fd5b506101f460048036036101ef919081019061221a565b610ab2565b6040516102029291906125e5565b60405180910390f35b6102256004803603610220919081019061231d565b610ce6565b005b34801561023357600080fd5b5061024e600480360361024991908101906121d9565b610df0565b60405161025b919061260e565b60405180910390f35b61027e600480360361027991908101906121d9565b6111a6565b60405161028b91906125ca565b60405180910390f35b3480156102a057600080fd5b506102bb60048036036102b691908101906121d9565b6113ae565b6040516102c891906125ca565b60405180910390f35b6102eb60048036036102e691908101906121d9565b6113de565b6040516102f891906125ca565b60405180910390f35b34801561030d57600080fd5b506103286004803603610323919081019061221a565b6115cc565b60405161033591906125af565b60405180910390f35b34801561034a57600080fd5b506103656004803603610360919081019061221a565b611625565b6040516103739291906125e5565b60405180910390f35b34801561038857600080fd5b506103a3600480360361039e91908101906121d9565b611859565b6040516103b091906125ca565b60405180910390f35b3480156103c557600080fd5b506103e060048036036103db91908101906121d9565b611889565b6040516103ed91906125ca565b60405180910390f35b610410600480360361040b91908101906123c8565b6119c7565b005b66038d7ea4c6800034101561042657600080fd5b60016040518060800160405280848152602001838152602001600081526020016000815250908060018154018082558091505090600182039060005260206000209060040201600090919290919091506000820151816000019080519060200190610492929190612034565b5060208201518160010190805190602001906104af929190612034565b5060408201518160020155606082015181600301555050505050565b6000670de0b6b3a76400003410156104e257600080fd5b6003826040516104f29190612598565b90815260200160405180910390206040518060400160405280601e8152602001600a8152509080600181540180825580915050906001820390600052602060002090600202016000909192909190915060008201518160000155602082015181600101555050506000600180549050905060008090505b81811015610676576106316001828154811061058157fe5b90600052602060002090600402016000018054600181600116156101000203166002900480601f0160208091040260200160405190810160405280929190818152602001828054600181600116156101000203166002900480156106265780601f106105fb57610100808354040283529160200191610626565b820191906000526020600020905b81548152906001019060200180831161060957829003601f168201915b5050505050856115cc565b15610669576001818154811061064357fe5b906000526020600020906004020160030160008154809291906001019190505550610676565b8080600101915050610569565b506003836040516106879190612598565b908152602001604051809103902080549050915050919050565b6000806005836040516106b49190612598565b908152602001604051809103902080549050111561086d576005826040516106dc9190612598565b90815260200160405180910390208054806106f357fe5b60019003818190600052602060002090600202016000808201600061071891906120b4565b6001820160009055505090556000600480549050905060008090505b81811015610842576107fc6004828154811061074c57fe5b90600052602060002090600502016000018054600181600116156101000203166002900480601f0160208091040260200160405190810160405280929190818152602001828054600181600116156101000203166002900480156107f15780601f106107c6576101008083540402835291602001916107f1565b820191906000526020600020905b8154815290600101906020018083116107d457829003601f168201915b5050505050856115cc565b15610835576004818154811061080e57fe5b90600052602060002090600502016004016000815480929190600190039190505550610842565b8080600101915050610734565b506005836040516108539190612598565b908152602001604051809103902080549050915050610892565b60058260405161087d9190612598565b90815260200160405180910390208054905090505b919050565b600080600480549050905060008090505b818110156109aa57610970600482815481106108c057fe5b90600052602060002090600502016000018054600181600116156101000203166002900480601f0160208091040260200160405190810160405280929190818152602001828054600181600116156101000203166002900480156109655780601f1061093a57610100808354040283529160200191610965565b820191906000526020600020905b81548152906001019060200180831161094857829003601f168201915b5050505050856115cc565b1561099d576004818154811061098257fe5b906000526020600020906005020160030154925050506109d0565b80806001019150506108a8565b507fffffffffffffffffffffffffffffffffffffffffffffffffffffffffffffffff9150505b919050565b66038d7ea4c680003410156109e957600080fd5b60046040518060a00160405280858152602001848152602001838152602001600081526020016000815250908060018154018082558091505090600182039060005260206000209060050201600090919290919091506000820151816000019080519060200190610a5b929190612034565b506020820151816001019080519060200190610a78929190612034565b506040820151816002019080519060200190610a95929190612034565b506060820151816003015560808201518160040155505050505050565b6000806000600480549050905060008090505b81811015610cb057610b8d60048281548110610add57fe5b90600052602060002090600502016000018054600181600116156101000203166002900480601f016020809104026020016040519081016040528092919081815260200182805460018160011615610100020316600290048015610b825780601f10610b5757610100808354040283529160200191610b82565b820191906000526020600020905b815481529060010190602001808311610b6557829003601f168201915b5050505050876115cc565b8015610c555750610c5460048281548110610ba457fe5b90600052602060002090600502016001018054600181600116156101000203166002900480601f016020809104026020016040519081016040528092919081815260200182805460018160011615610100020316600290048015610c495780601f10610c1e57610100808354040283529160200191610c49565b820191906000526020600020905b815481529060010190602001808311610c2c57829003601f168201915b5050505050866115cc565b5b15610ca35760048181548110610c6757fe5b90600052602060002090600502016003015460048281548110610c8657fe5b906000526020600020906005020160040154935093505050610cdf565b8080600101915050610ac5565b507fffffffffffffffffffffffffffffffffffffffffffffffffffffffffffffffff8081915080905092509250505b9250929050565b60026040518060c0016040528086815260200185815260200184815260200183815260200160001515815260200160001515815250908060018154018082558091505090600182039060005260206000209060050201600090919290919091506000820151816000019080519060200190610d62929190612034565b506020820151816001019080519060200190610d7f929190612034565b506040820151816002019080519060200190610d9c929190612034565b506060820151816003015560808201518160040160006101000a81548160ff02191690831515021790555060a08201518160040160016101000a81548160ff02191690831515021790555050505050505050565b610df86120fc565b6000600280549050905060006001820390505b6000811061113b57610ed360028281548110610e2357fe5b90600052602060002090600502016001018054600181600116156101000203166002900480601f016020809104026020016040519081016040528092919081815260200182805460018160011615610100020316600290048015610ec85780601f10610e9d57610100808354040283529160200191610ec8565b820191906000526020600020905b815481529060010190602001808311610eab57829003601f168201915b5050505050856115cc565b1561112d5760028181548110610ee557fe5b90600052602060002090600502016040518060c0016040529081600082018054600181600116156101000203166002900480601f016020809104026020016040519081016040528092919081815260200182805460018160011615610100020316600290048015610f975780601f10610f6c57610100808354040283529160200191610f97565b820191906000526020600020905b815481529060010190602001808311610f7a57829003601f168201915b50505050508152602001600182018054600181600116156101000203166002900480601f0160208091040260200160405190810160405280929190818152602001828054600181600116156101000203166002900480156110395780601f1061100e57610100808354040283529160200191611039565b820191906000526020600020905b81548152906001019060200180831161101c57829003601f168201915b50505050508152602001600282018054600181600116156101000203166002900480601f0160208091040260200160405190810160405280929190818152602001828054600181600116156101000203166002900480156110db5780601f106110b0576101008083540402835291602001916110db565b820191906000526020600020905b8154815290600101906020018083116110be57829003601f168201915b50505050508152602001600382015481526020016004820160009054906101000a900460ff161515151581526020016004820160019054906101000a900460ff161515151581525050925050506111a1565b808060019003915050610e0b565b506040518060c0016040528060405180602001604052806000815250815260200160405180602001604052806000815250815260200160405180602001604052806000815250815260200160008152602001600015158152602001600015158152509150505b919050565b60006005826040516111b89190612598565b908152602001604051809103902060405180604001604052806040518060400160405280600681526020017f437570616e6700000000000000000000000000000000000000000000000000008152508152602001600a815250908060018154018082558091505090600182039060005260206000209060020201600090919290919091506000820151816000019080519060200190611258929190612034565b50602082015181600101555050506000600480549050905060008090505b818110156113835761133e6004828154811061128e57fe5b90600052602060002090600502016000018054600181600116156101000203166002900480601f0160208091040260200160405190810160405280929190818152602001828054600181600116156101000203166002900480156113335780601f1061130857610100808354040283529160200191611333565b820191906000526020600020905b81548152906001019060200180831161131657829003601f168201915b5050505050856115cc565b15611376576004818154811061135057fe5b906000526020600020906005020160040160008154809291906001019190505550611383565b8080600101915050611276565b506005836040516113949190612598565b908152602001604051809103902080549050915050919050565b6000806003836040516113c19190612598565b908152602001604051809103902080549050905080915050919050565b6000806003836040516113f19190612598565b90815260200160405180910390208054905011156115a2576003826040516114199190612598565b908152602001604051809103902080548061143057fe5b60019003818190600052602060002090600202016000808201600090556001820160009055505090556000600180549050905060008090505b81811015611577576115316001828154811061148157fe5b90600052602060002090600402016000018054600181600116156101000203166002900480601f0160208091040260200160405190810160405280929190818152602001828054600181600116156101000203166002900480156115265780601f106114fb57610100808354040283529160200191611526565b820191906000526020600020905b81548152906001019060200180831161150957829003601f168201915b5050505050856115cc565b1561156a576001818154811061154357fe5b90600052602060002090600402016003016000815480929190600190039190505550611577565b8080600101915050611469565b506003836040516115889190612598565b9081526020016040518091039020805490509150506115c7565b6003826040516115b29190612598565b90815260200160405180910390208054905090505b919050565b6000816040516020016115df9190612598565b60405160208183030381529060405280519060200120836040516020016116069190612598565b6040516020818303038152906040528051906020012014905092915050565b6000806000600180549050905060008090505b81811015611823576117006001828154811061165057fe5b90600052602060002090600402016000018054600181600116156101000203166002900480601f0160208091040260200160405190810160405280929190818152602001828054600181600116156101000203166002900480156116f55780601f106116ca576101008083540402835291602001916116f5565b820191906000526020600020905b8154815290600101906020018083116116d857829003601f168201915b5050505050876115cc565b80156117c857506117c76001828154811061171757fe5b90600052602060002090600402016001018054600181600116156101000203166002900480601f0160208091040260200160405190810160405280929190818152602001828054600181600116156101000203166002900480156117bc5780601f10611791576101008083540402835291602001916117bc565b820191906000526020600020905b81548152906001019060200180831161179f57829003601f168201915b5050505050866115cc565b5b1561181657600181815481106117da57fe5b906000526020600020906004020160020154600182815481106117f957fe5b906000526020600020906004020160030154935093505050611852565b8080600101915050611638565b507fffffffffffffffffffffffffffffffffffffffffffffffffffffffffffffffff8081915080905092509250505b9250929050565b60008060058360405161186c9190612598565b908152602001604051809103902080549050905080915050919050565b600080600180549050905060008090505b8181101561199c57611962600182815481106118b257fe5b90600052602060002090600402016000018054600181600116156101000203166002900480601f0160208091040260200160405190810160405280929190818152602001828054600181600116156101000203166002900480156119575780601f1061192c57610100808354040283529160200191611957565b820191906000526020600020905b81548152906001019060200180831161193a57829003601f168201915b5050505050856115cc565b1561198f576001818154811061197457fe5b906000526020600020906004020160020154925050506119c2565b808060010191505061189a565b507fffffffffffffffffffffffffffffffffffffffffffffffffffffffffffffffff9150505b919050565b6000600280549050905060008090505b81811015611dd257600084600283815481106119ef57fe5b90600052602060002090600502016003015403118015611a38575060028181548110611a1757fe5b906000526020600020906005020160040160019054906101000a900460ff16155b8015611b005750611aff60028281548110611a4f57fe5b90600052602060002090600502016000018054600181600116156101000203166002900480601f016020809104026020016040519081016040528092919081815260200182805460018160011615610100020316600290048015611af45780601f10611ac957610100808354040283529160200191611af4565b820191906000526020600020905b815481529060010190602001808311611ad757829003601f168201915b5050505050876115cc565b5b8015611bc85750611bc760028281548110611b1757fe5b90600052602060002090600502016001018054600181600116156101000203166002900480601f016020809104026020016040519081016040528092919081815260200182805460018160011615610100020316600290048015611bbc5780601f10611b9157610100808354040283529160200191611bbc565b820191906000526020600020905b815481529060010190602001808311611b9f57829003601f168201915b5050505050866115cc565b5b15611dc557600160028281548110611bdc57fe5b906000526020600020906005020160040160016101000a81548160ff0219169083151502179055508260028281548110611c1257fe5b906000526020600020906005020160040160006101000a81548160ff0219169083151502179055508215611d0457611cff60028281548110611c5057fe5b90600052602060002090600502016001018054600181600116156101000203166002900480601f016020809104026020016040519081016040528092919081815260200182805460018160011615610100020316600290048015611cf55780601f10611cca57610100808354040283529160200191611cf5565b820191906000526020600020905b815481529060010190602001808311611cd857829003601f168201915b5050505050611dda565b611dc4565b611dc360028281548110611d1457fe5b90600052602060002090600502016001018054600181600116156101000203166002900480601f016020809104026020016040519081016040528092919081815260200182805460018160011615610100020316600290048015611db95780601f10611d8e57610100808354040283529160200191611db9565b820191906000526020600020905b815481529060010190602001808311611d9c57829003601f168201915b5050505050611efc565b5b5b80806001019150506119d7565b505050505050565b6000600480549050905060008090505b81811015611ef757611eb260048281548110611e0257fe5b90600052602060002090600502016002018054600181600116156101000203166002900480601f016020809104026020016040519081016040528092919081815260200182805460018160011615610100020316600290048015611ea75780601f10611e7c57610100808354040283529160200191611ea7565b820191906000526020600020905b815481529060010190602001808311611e8a57829003601f168201915b5050505050846115cc565b15611eea5760048181548110611ec457fe5b906000526020600020906005020160030160008154809291906001019190505550611ef7565b8080600101915050611dea565b505050565b6000600480549050905060008090505b8181101561202f57611fd460048281548110611f2457fe5b90600052602060002090600502016002018054600181600116156101000203166002900480601f016020809104026020016040519081016040528092919081815260200182805460018160011615610100020316600290048015611fc95780601f10611f9e57610100808354040283529160200191611fc9565b820191906000526020600020905b815481529060010190602001808311611fac57829003601f168201915b5050505050846115cc565b1561202257600a60048281548110611fe857fe5b906000526020600020906005020160030154036004828154811061200857fe5b90600052602060002090600502016003018190555061202f565b8080600101915050611f0c565b505050565b828054600181600116156101000203166002900490600052602060002090601f016020900481019282601f1061207557805160ff19168380011785556120a3565b828001600101855582156120a3579182015b828111156120a2578251825591602001919060010190612087565b5b5090506120b09190612136565b5090565b50805460018160011615610100020316600290046000825580601f106120da57506120f9565b601f0160209004906000526020600020908101906120f89190612136565b5b50565b6040518060c00160405280606081526020016060815260200160608152602001600081526020016000151581526020016000151581525090565b61215891905b8082111561215457600081600090555060010161213c565b5090565b90565b60008135905061216a8161272e565b92915050565b600082601f83011261218157600080fd5b813561219461218f8261265d565b612630565b915080825260208301602083018583830111156121b057600080fd5b6121bb8382846126db565b50505092915050565b6000813590506121d381612745565b92915050565b6000602082840312156121eb57600080fd5b600082013567ffffffffffffffff81111561220557600080fd5b61221184828501612170565b91505092915050565b6000806040838503121561222d57600080fd5b600083013567ffffffffffffffff81111561224757600080fd5b61225385828601612170565b925050602083013567ffffffffffffffff81111561227057600080fd5b61227c85828601612170565b9150509250929050565b60008060006060848603121561229b57600080fd5b600084013567ffffffffffffffff8111156122b557600080fd5b6122c186828701612170565b935050602084013567ffffffffffffffff8111156122de57600080fd5b6122ea86828701612170565b925050604084013567ffffffffffffffff81111561230757600080fd5b61231386828701612170565b9150509250925092565b6000806000806080858703121561233357600080fd5b600085013567ffffffffffffffff81111561234d57600080fd5b61235987828801612170565b945050602085013567ffffffffffffffff81111561237657600080fd5b61238287828801612170565b935050604085013567ffffffffffffffff81111561239f57600080fd5b6123ab87828801612170565b92505060606123bc878288016121c4565b91505092959194509250565b600080600080608085870312156123de57600080fd5b600085013567ffffffffffffffff8111156123f857600080fd5b61240487828801612170565b945050602085013567ffffffffffffffff81111561242157600080fd5b61242d87828801612170565b935050604061243e878288016121c4565b925050606061244f8782880161215b565b91505092959194509250565b612464816126bb565b82525050565b612473816126bb565b82525050565b612482816126c7565b82525050565b600061249382612694565b61249d81856126b0565b93506124ad8185602086016126ea565b80840191505092915050565b60006124c482612689565b6124ce818561269f565b93506124de8185602086016126ea565b6124e78161271d565b840191505092915050565b600060c083016000830151848203600086015261250f82826124b9565b9150506020830151848203602086015261252982826124b9565b9150506040830151848203604086015261254382826124b9565b91505060608301516125586060860182612589565b50608083015161256b608086018261245b565b5060a083015161257e60a086018261245b565b508091505092915050565b612592816126d1565b82525050565b60006125a48284612488565b915081905092915050565b60006020820190506125c4600083018461246a565b92915050565b60006020820190506125df6000830184612479565b92915050565b60006040820190506125fa6000830185612479565b6126076020830184612479565b9392505050565b6000602082019050818103600083015261262881846124f2565b905092915050565b6000604051905081810181811067ffffffffffffffff8211171561265357600080fd5b8060405250919050565b600067ffffffffffffffff82111561267457600080fd5b601f19601f8301169050602081019050919050565b600081519050919050565b600081519050919050565b600082825260208201905092915050565b600081905092915050565b60008115159050919050565b6000819050919050565b6000819050919050565b82818337600083830152505050565b60005b838110156127085780820151818401526020810190506126ed565b83811115612717576000848401525b50505050565b6000601f19601f8301169050919050565b612737816126bb565b811461274257600080fd5b50565b61274e816126d1565b811461275957600080fd5b5056fea365627a7a7231582031e36470336f0090ef599a54d8e240ebbb8d8dcd0fea0b5171a7342e454761f56c6578706572696d656e74616cf564736f6c634300050c0040",
  "source": "pragma solidity >=0.4.25 <0.7.0;\r\npragma experimental ABIEncoderV2;\r\n\r\ncontract noShowChain\r\n{\r\n// variables\r\n    address payable creator;\r\n    // company\r\n    //users\r\n    struct user {\r\n        string company;\r\n        string pw;\r\n        int point; //i'll buy item ether.... this variable is useless\r\n        int itemCnt;\r\n    }\r\n    user[] userCEO;\r\n\r\n    //ledger\r\n    struct Tx {\r\n        string company;\r\n        string pn;\r\n        string name;\r\n        uint reserveTime;\r\n        bool isShow;\r\n        bool TxDone;\r\n    }\r\n    Tx[] ledger;\r\n\r\n    //banner items\r\n    struct bannerItem {\r\n        uint term;\r\n        uint price;\r\n    }\r\n    mapping(string=>bannerItem[]) bannerItems; //string is company\r\n\r\n\r\n    //customer\r\n    //user\r\n    struct customer {\r\n        string id;\r\n        string pw;\r\n        string pn;\r\n        int point;\r\n        int itemCnt;\r\n    }\r\n    customer[] userCustomer;\r\n\r\n    //ledger\r\n\r\n    //bargain items\r\n    struct giftCardItem {\r\n        string company;\r\n        uint bargainRatio;\r\n    }\r\n    mapping(string=>giftCardItem[]) giftCardItems; //string is user's ID\r\n// methods\r\n    constructor () public {\r\n        creator = msg.sender;\r\n    }\r\n    //company\r\n    //users\r\n    function signInCEO(string memory company, string memory pw) payable public {\r\n        require(msg.value >= 0.001 ether); //signIn fee is 0.001 ether\r\n        //user storage newUser = user(company,pw,0,0);\r\n        userCEO.push(user(company,pw,0,0));\r\n        // bannerItem[] memory item;\r\n        // bannerItems[company] = item;\r\n    }\r\n    function logInCEO(string memory company, string memory pw) public returns(int point, int itemCnt) {\r\n        uint userLength = userCEO.length;\r\n        for(uint i=0; i<userLength; i++){\r\n            if(compareStrings(userCEO[i].company, company) && compareStrings(userCEO[i].pw, pw)){\r\n                return (userCEO[i].point, userCEO[i].itemCnt);\r\n            }\r\n        }\r\n        return(-1,-1);\r\n    }\r\n\r\n    //ledger\r\n    function newTx (string memory company, string memory pn, string memory name, uint reserveTime) payable public {\r\n        //Tx memory tempTx = Tx(company,pn,name,reserveTime,false,false);\r\n        ledger.push(Tx(company,pn,name,reserveTime,false,false));\r\n    }\r\n    function TxDone (string memory company, string memory pn, uint timeStamp, bool isShow) payable public {\r\n        // timeStamp is used to check if reserveTime is over\r\n        // if isShow True, call givePoint\r\n        uint TxLength = ledger.length;\r\n        for(uint i=0; i<TxLength; i++){\r\n            if(ledger[i].reserveTime - timeStamp >0 && !ledger[i].TxDone && compareStrings(ledger[i].company, company) && compareStrings(ledger[i].pn, pn)){\r\n                ledger[i].TxDone = true;\r\n                ledger[i].isShow = isShow;\r\n                if(isShow){\r\n                    givePoint(ledger[i].pn);\r\n                }else{\r\n                    penalty(ledger[i].pn);\r\n                }\r\n            }\r\n        }\r\n    }\r\n    function showLedgerByPN(string memory pn) public returns(Tx memory x){ // we have to check pn on client\r\n        uint TxLength = ledger.length;\r\n        for(uint i=TxLength-1; i>=0; i--){\r\n            if(compareStrings(ledger[i].pn, pn)){\r\n                //Tx memory tempTx = ledger[i];\r\n                return ledger[i];\r\n            }\r\n        }\r\n        //Tx memory nullTx = Tx(\"\",\"\",\"\",0,false,false);\r\n        return Tx(\"\",\"\",\"\",0,false,false);\r\n    }\r\n    function givePoint(string memory pn) private { // used in TxDone\r\n        // raise some points of the user PN. if he's not registered this web site, then return\r\n        uint userLength = userCustomer.length;\r\n        for(uint i=0; i<userLength;i++){\r\n            if(compareStrings(userCustomer[i].pn, pn)){\r\n                userCustomer[i].point++;\r\n                break;\r\n            }\r\n        }\r\n    }\r\n    function penalty(string memory pn) private { // used in TxDone\r\n        // call when user no-showed\r\n        uint userLength = userCustomer.length;\r\n        for(uint i=0; i<userLength;i++){\r\n            if(compareStrings(userCustomer[i].pn, pn)){\r\n                userCustomer[i].point = userCustomer[i].point - 10;\r\n                break;\r\n            }\r\n        }\r\n    }\r\n\r\n    //banner items\r\n    function showPoint(string memory company) public view returns(int point) {\r\n        uint userLength = userCEO.length;\r\n        for(uint i=0; i<userLength; i++){\r\n            if(compareStrings(userCEO[i].company, company)){\r\n                return (userCEO[i].point);\r\n            }\r\n        }\r\n        return -1;\r\n    }\r\n    function showItems(string memory company) public view returns(int ItemCnt) {// bannerItem[] ,\r\n        int itemCnt = int(bannerItems[company].length);\r\n        return (itemCnt);\r\n    }\r\n    function useItem(string memory company) public payable returns (int ItemCnt){\r\n        if(bannerItems[company].length>0){\r\n            bannerItems[company].pop();\r\n            uint userLength = userCEO.length;\r\n            for(uint i=0; i<userLength; i++){\r\n                if(compareStrings(userCEO[i].company, company)){\r\n                    userCEO[i].itemCnt--;\r\n                    break;\r\n                }\r\n            }\r\n            return int(bannerItems[company].length);\r\n        }else{\r\n            return int(bannerItems[company].length);\r\n        }\r\n    }\r\n    function buyItem(string memory company) public payable returns (int ItemCnt){\r\n        require(msg.value >= 1 ether);\r\n        // bannerItem memory item = bannerItem(30,10);\r\n        bannerItems[company].push(bannerItem(30,10));\r\n        uint userLength = userCEO.length;\r\n        for(uint i=0; i<userLength; i++){\r\n            if(compareStrings(userCEO[i].company, company)){\r\n                userCEO[i].itemCnt++;\r\n                break;\r\n            }\r\n        }\r\n        return int(bannerItems[company].length);\r\n    }\r\n\r\n    // customer\r\n    //user\r\n    function signInCustomer(string memory id, string memory pw, string memory pn) public payable {\r\n        require(msg.value >= 0.001 ether); //signIn fee is 0.001 ether\r\n        // customer memory newUser = customer(id,pw,pn,0,0);\r\n        userCustomer.push(customer(id,pw,pn,0,0));\r\n        // giftCardItem[] memory item;\r\n        // giftCardItems[id] = item;\r\n    }\r\n    function logInCustomer(string memory id, string memory pw) public returns(int point, int itemCnt) {\r\n        uint userLength = userCustomer.length;\r\n        for(uint i=0; i<userLength; i++){\r\n            if(compareStrings(userCustomer[i].id, id) && compareStrings(userCustomer[i].pw, pw)){\r\n                return (userCustomer[i].point, userCustomer[i].itemCnt);\r\n            }\r\n        }\r\n        return(-1,-1);\r\n    }\r\n    //ledger\r\n    //bargain Items\r\n    function showPoint_cst(string memory id) public view returns(int point) {\r\n        uint userLength = userCustomer.length;\r\n        for(uint i=0; i<userLength; i++){\r\n            if(compareStrings(userCustomer[i].id, id)){\r\n                return (userCustomer[i].point);\r\n            }\r\n        }\r\n        return -1;\r\n    }\r\n    function showItems_cst(string memory id) public view returns(int ItemCnt) {// bannerItem[] ,\r\n        int itemCnt = int(giftCardItems[id].length);\r\n        return (itemCnt);\r\n    }\r\n    function useItem_cst(string memory id) public payable returns (int ItemCnt){\r\n        if(giftCardItems[id].length>0){\r\n            giftCardItems[id].pop();\r\n            uint userLength = userCustomer.length;\r\n            for(uint i=0; i<userLength; i++){\r\n                if(compareStrings(userCustomer[i].id, id)){\r\n                    userCustomer[i].itemCnt--;\r\n                    break;\r\n                }\r\n            }\r\n            return int(giftCardItems[id].length);\r\n        }else{\r\n            return int(giftCardItems[id].length);\r\n        }\r\n    }\r\n    function buyItem_cst(string memory id) public payable returns (int ItemCnt){\r\n        // giftCardItem memory item = giftCardItem(\"Cupang\",10);\r\n        giftCardItems[id].push(giftCardItem(\"Cupang\",10));\r\n        uint userLength = userCustomer.length;\r\n        for(uint i=0; i<userLength; i++){\r\n            if(compareStrings(userCustomer[i].id, id)){\r\n                userCustomer[i].itemCnt++;\r\n                break;\r\n            }\r\n        }\r\n        return int(giftCardItems[id].length);\r\n    }\r\n\r\n      function compareStrings (string memory a, string memory b) public view returns (bool) {\r\n        return (keccak256(abi.encodePacked((a))) == keccak256(abi.encodePacked((b))) );\r\n       }\r\n}\r\n",
  "sourcePath": "C:/Users/qeadz/Desktop/truffleEx1/contracts/chitting.sol",
  "compiler": {
    "name": "solc",
    "version": "0.5.12+commit.7709ece9.Emscripten.clang"
  },
  "schemaVersion": "3.0.19",
  "updatedAt": "2020-04-17T12:54:32.407Z",
  "devdoc": {
    "methods": {}
  },
  "userdoc": {
    "methods": {}
  }
}